:020000041004E6
:1000000000600020592904108F210410151D0410D0
:10001000AA5555AA45554C420000000000000000BA
:10002000000000000000000000000000B9300410D3
:10003000000000000000000059230410893604105D
:10004000B916041041230410000000000000000055
:10005000DD3B0410412F0410151404103B3E041026
:100060000000000000000000000000000000000090
:1000700000000000651304101B1D0410191D04105E
:100080000000000087210410892104108B21041036
:100090008D210410C9290410572304107F14041063
:1000A0000000000000000000000000000000000050
:1000B0000000000000000000000000000000000040
:1000C00000F002F800F096F80CA030C808382418A8
:1000D0002D18A246671EAB4654465D46AC4201D180
:1000E00000F088F87E460F3E0FCCB646012633421C
:1000F00000D0FB1AA246AB46334318479C8200004F
:100100003C830000103A02D378C878C1FAD852076D
:1001100001D330C830C101D504680C6070470000BD
:100120000023002400250026103A01D378C1FBD813
:10013000520700D330C100D50B607047EFF3148233
:10014000EFF309811C4880F31488BFF36F8FF0B57B
:1001500043464C4655465E466746F8B4174CEFF3A7
:100160000883236006B4164C2068164C2060164C99
:100170002068164C2060164C2068164C2060164CE7
:10018000276800202060BFF34F8F30BF27600B4CE3
:10019000246884F3088882B003BCF8BC9846A14662
:1001A000AA46B346BC46F0BC04BC80F3098881F380
:1001B0001488BFF36F8F1047000000000800002074
:1001C00004ED00E00003002024ED00E00403002023
:1001D00000E200E0080300200800204010B5642978
:1001E00002D100F077F810BD002010BD1FB51FBD73
:1001F00010B510BD03488546FFF7F8FF06F0FCFB7D
:1002000001F054F80060002003B4FFF7F1FF03BCD5
:1002100001F084F870B505460C46164602E00FCC96
:100220000FC5103E102EFAD2082E02D303CC03C500
:10023000083E042E07D301CC01C5361F03E0217808
:100240002970641C6D1C761EF9D270BD0FB405496F
:1002500010B503AA029800F041FF10BC08BC04B01E
:1002600018470000E8020020F8B50E4604460020BA
:1002700020622046E1688847002829D0252802D03E
:100280006268A16820E0E1682046002788470500F1
:100290001ED028464138192802D80127FF022035F0
:1002A0003246204627602946FFF798FF002808D0ED
:1002B000012804D0F61DF608F6000836D9E7361DE9
:1002C000D7E762682846A1689047206A401CCFE7BC
:1002D000206AF8BDF7B5002575291068009914A6A5
:1002E00011D0C046C046002802DA404211A608E0FC
:1002F000009909688A0701D50FA602E0490704D5CD
:100300000EA6012501E0C046C046009F0024243708
:1003100004E000F0F7FE30313955641C0028F8D1B4
:100320002B4632462146009800F07FFEFEBD0000BD
:10033000000000002D0000002B0000002000000045
:1003400010B5044600F002F8204610BDF8B5042AA6
:100350002CD3830712D00B78491C0370401C521E0B
:1003600083070BD00B78491C0370401C521E830777
:1003700004D00B78491C0370401C521E8B079B0F46
:1003800005D0C91ADF002023DE1B08C90AE0FFF7E9
:1003900041FFF8BD1D4608C9FD401C46B4402C4332
:1003A00010C0121F042AF5D2F308C91A521EF0D445
:1003B0000B78491C0370401C521EEAD40B78491C70
:1003C0000370401C012AE4D409780170F8BD0022B2
:1003D00003098B422CD3030A8B4211D300239C4682
:1003E0004EE003460B433CD4002243088B4231D3FA
:1003F00003098B421CD3030A8B4201D394463FE08E
:10040000C3098B4201D3CB01C01A524183098B42ED
:1004100001D38B01C01A524143098B4201D34B01D6
:10042000C01A524103098B4201D30B01C01A524139
:10043000C3088B4201D3CB00C01A524183088B42C0
:1004400001D38B00C01A524143088B4201D34B00A9
:10045000C01A5241411A00D201465241104670471B
:100460005DE0CA0F00D04942031000D34042534020
:1004700000229C4603098B422DD3030A8B4212D3E0
:10048000FC22890112BA030A8B420CD38901921112
:100490008B4208D3890192118B4204D389013AD04F
:1004A000921100E08909C3098B4201D3CB01C01A24
:1004B000524183098B4201D38B01C01A5241430937
:1004C0008B4201D34B01C01A524103098B4201D325
:1004D0000B01C01A5241C3088B4201D3CB00C01A92
:1004E000524183088B4201D38B00C01A5241D9D2AA
:1004F00043088B4201D34B00C01A5241411A00D22B
:100500000146634652415B10104601D34042002B26
:1005100000D54942704763465B1000D3404201B5A5
:100520000020C046C04602BD0246C80FC007814336
:100530004B0030B54B405B009B0D20D01923DB06F0
:10054000C91801231B05994220DB0324A4070425B5
:100550001346AB400BD3002B04D1EB0613409B009A
:10056000E34204D401246407002312195941FF23F4
:100570001B0599420BD2C9000143500F09E0CB0281
:1005800004D501430803024305D0054830BDFF21CF
:10059000C905084330BD084607210905884330BD19
:1005A0000000C07FF0B50C46871A9C410D46861AA4
:1005B0009D4103D2C01BA141D21963410D0D1F0DF6
:1005C000C94EEC1BAE435CD07F057F0D0026002F8B
:1005D00051D02D05AC46A943DD020123ED0A1B05D0
:1005E0001D4320231B1B24D41746E74038187141B4
:1005F0002F46E740CC199D402818314661410C0D2B
:1006000027D161449A4013D50023401C5941520020
:100610000ED14008400001224B005205D34207D3BF
:1006200005204007C14201D5B04900E0B04930463D
:10063000F0BD6B00002A00D001229A181F23203C35
:100640001B1B01D5002302E0E540281871410C0D69
:10065000D7D0012424050919C407CD07400849084B
:10066000E40F28436144002CD5D00024401C614194
:100670009A40D0D1CDE76A05520DD9D1C90FC9072B
:10068000D5E79C4D4E00002801D0012400E0002455
:1006900034195F00002A01D0012600E00026BE19AF
:1006A000954FAC420CD8AE420AD8B44206D00125D0
:1006B0006D05EC42BCD010461946F0BD9942FCD005
:1006C00000203946F0BDF0B51FB40C460F46811A24
:1006D0009F412546861A9D4106D20125ED076F40B0
:1006E000401ABC4152187B41210D1E0D8D1BAC469A
:1006F0007D4D8D437ED075056D0D7CD00D05AE46CC
:10070000AC431B031B0B794D52429D41202366468F
:100710009B1B14D31746F7403818002600907441ED
:1007200060462F460741E41900989D40281866410D
:1007300016D4714671189A4025D5012320E09318EC
:100740002A466A415200002B00D0521C1E23203E34
:100750009B1B002B61DD3541EE1728186641E8D55B
:10076000001876415B1C9A4000D3401C4B05F318DF
:100770001524E34010D3002B52D071467118D30FCB
:10078000C01802D3491C05B0F0BD0123DB079A4213
:10079000F9D140084000F6E701225205B21801D114
:1007A000002853D00123CC0ADB029943891E002A7A
:1007B00008D1020C03D0020C0004103902E00246FA
:1007C000002020390023550B05D112020823550BB8
:1007D00001D152010D23550C01D112011B1DD50C65
:1007E00001D192009B1C150D01D152005B1C2025EC
:1007F000EE1A01E02CE022E00546F5401543984052
:10080000CA1AE10769181305C918002ABBDA0320C0
:1008100040070818C10FC9070FE071466118B2E719
:10082000F10740080843711071444A000CD00123BD
:100830005B059A42A7D2C90FC9070020A3E7490563
:10084000490D26D1002001E00028F4D100219AE7CB
:10085000284D6600002801D0012100E00021711818
:100860005F00002A01D0012600E00026BE19224FB9
:10087000A94210D8AE420ED8B14208D001256D056C
:10088000E94206D01946A802414010467BE79C4247
:1008900001D0214677E70020394674E710B50C46B1
:1008A0005C4005D50124E4076340FFF70CFF10BD51
:1008B000FFF778FE10BD30B40C465C4004D501242F
:1008C000E407634030BC6DE630BCFCE670B5012443
:1008D000E40761400D465D4002D4FFF763FE70BD42
:1008E0006340FFF7F0FE70BDFF0700000000F0FF5F
:1008F0000000F07F0000E0FF0000F87FF0B5F94D48
:100900000C091E092C402E402F468BB0A7437DD0EA
:10091000B543FCD0002E7AD0002CFCD00D465D40B3
:10092000ED0F2543AC1BFF25AD0464190894C502E7
:10093000440DC9022143500DDC0204430120C007CD
:1009400001430443D2020191200C110C00958C4606
:10095000010423468B430A9161460904E24D8A4310
:100960000991010A7D4449198039097805464D43AA
:1009700001266D18F605751B6943C90C640B891CAB
:100980004C436418B5012C1B250C2E04B4434C4376
:100990004D43210C691889090591009DE90701D093
:1009A0000121C90704912C4601996708CD072F43FF
:1009B0004C08059DE10B4D432D0C294666467543B9
:1009C00002950D4645432E46029D7D1BB441009580
:1009D0000D465D4301942C0C2F040D465543AE4645
:1009E0002D0C3D43029503947546049C2D04641B15
:1009F000049406D2029C039D641C00267541039555
:100A0000029401AC70CC009F7D1B01E03EE162E1ED
:100A1000B44109040095079101940599A408614324
:100A2000090C0C464443650BE7040C4666467443C8
:100A3000A646640B3C43039502947446049DE4046B
:100A40002C1B049406D2029C039D641C0026754155
:100A50000395029401AC70CC009F7D1BB4410194BE
:100A60000C465C430095650FE7000C465443A646D0
:100A7000640F3C43039502947446049DE4002C1BD0
:100A8000049406D2029C039D641C002675410395C4
:100A9000029401AC70CC009F7D1BB441AE09AF063F
:100AA000049DC900AD092F43049DA406AD0604951D
:100AB000079D344369180791059DE10B4D432D0CAB
:100AC00029466646754302950D4645432E46029DCE
:100AD0007D1BB44100950D465D4301942C0C2F0401
:100AE0000D465543AE462D0C3D4302950394754685
:100AF000049C2D04641B049406D2029C039D641C78
:100B0000002675410395029401AC70CC009F7D1BBB
:100B1000B44101948C050694079C890A61180095DC
:100B20000791019C0599A4086143090C0D464543B2
:100B3000680BEF040D46644665436C0B3C43049F11
:100B4000ED047D1BAC4602D20025641C6841009E6A
:100B5000019D371B85410846584301950C46460FB9
:100B6000C5005443600F28436546E4002C1B02D2A5
:100B70000025401C6E41019D3F1AB5412846BD0924
:100B8000800628438446A009BF064E020699A406A3
:100B900076180743079D002068410A99079019437A
:100BA0000020099B00906046FF1913434041E20F6B
:100BB00064003A43A4460446D71A8C41A04203D9A4
:100BC0000120009020463A46C70F941840416246E3
:100BD000D20F2243644664000494009CBE46640025
:100BE000D71AA446044602978C417746002F01D1BC
:100BF000A04204D96046401C8446029A2046C40F95
:100C0000A64694184041049A0546D20F22436446F2
:100C10006400D31A8D417146002901D1A84202D93E
:100C200028461A46641C10430122002800D01643AF
:100C300061020020079B891904465C410223002CB5
:100C400002DB491813466441089DCE0A2D145D1934
:100C50004B056705E10A2C050D1908993E43C907A4
:100C60006940002B08D0934006D30022761C5141E6
:100C7000002B01D1760876001C4A002D43DB15427B
:100C800041D0AA433FD030460BB0F0BD06180D4608
:100C90004D41174C7642AC411AD395181C465C4125
:100CA000134A6D42A24113D3012252054C00D44293
:100CB0000AD15C00D4420BD04B4002D592021143C2
:100CC000E2E749004908DFE75940C90FC90718E0C2
:100CD00000200849D8E7054801420DD10342F7D06A
:100CE000F2E700000000FF07707900000000F07FCD
:100CF0000000E0FF0000F87F114859400143C01296
:100D000041400020C0E70123089A9B069A4205DC77
:100D1000032252078918C90FC907B5E705225207F0
:100D20008918074A1143D2125140ADE770B51546F4
:100D30001C4602460B4628462146FFF7DFFD70BDE4
:100D4000FFFFFF7F1F22030C02D10F22000402D0FD
:100D5000030E03D004E00020014670470002083A69
:100D6000030F01D10001121F830F01D18000921ED9
:100D7000002801DB4000521E120551184205C01226
:100D8000411810467047C10FC90700D040420122E8
:100D900092071143D6E701218907D3E70121C9054D
:100DA0000123411842001B06D3185B0E0AD0C11064
:100DB0000722D206891840075242D14201D552007B
:100DC00089187047090208D50146002A03D0C10FCF
:100DD000C9070020704710467047420202D0002029
:100DE00002497047072109050143F4E70000F87F35
:100DF000F0B5FF252D04C609C209FF2704462E4081
:100E00000137CB093E4348402A402B400746002A81
:100E10006BD0002B69D0AA4267D0AB4265D00028C6
:100E200000DA32460125ED0529432C430902200250
:100E3000090AD21A4B0C7F24E31A434C000A7C4463
:100E4000E35C7D242404121914145B00A218884268
:100E500001D3521C00E0400049420C465C4324117F
:100E60005C43DB016415E318040A5C43C502200DF2
:100E70000C4644436419250A5D432303EC0C0D46DC
:100E8000654300030019EB184C42A34201D35B18E1
:100E9000401CD4052018002B07D05B00C91804D3D0
:100EA000401C002901D1400840003F2189048A42AA
:100EB00009D3002A08DC1106090F04D003214907D1
:100EC0004018C00FC007F0BD01224100120689186A
:100ED0007F2252069142F6D205214907C84201D528
:100EE0009010F0BDFF20C005F0BD002F00DA3246A3
:100EF0001648AA4207D2AB4205D21902090E17D0F2
:100F0000F80FC007F0BDFF2563002D06AB42F9D8EE
:100F10004900A942F6D8AB4201D1A942F2D0A94278
:100F200001D1002101E061004908D0050843F0BD6E
:100F30001102090EFBD0FF200243D005F0BD0A4686
:100F40000146104654E70000167500000000C07FFF
:100F500010B501469E240002CA15A307002A02D03C
:100F60001843002A04DBA21A002A0CDDD04010BD71
:100F70001206120E01D140004008A21A03D4D0403C
:100F800040420028F3DDFF2248001206904201D9BA
:100F9000002010BDC817C043584010BD0102C21543
:100FA00004D00123DB071943002A0ADB9E239A1A87
:100FB00002D40846D0407047FF22410012069142F9
:100FC00001D900207047C017C04370471F22030C8F
:100FD00002D10F2200041CD0030E01D10002083AF6
:100FE000030F01D10001121F830F01D18000921E57
:100FF000002801DB4000521ED20551180212511880
:101000001922904004D3491C002801D14908490005
:1010100008467047C10FC90700D04042012292071D
:101020001143D3E701218907D0E7FFB504460D46F8
:1010300081B0243000902168880604D51022E06930
:101040009143216000E00120A84201DD471B00E040
:1010500000270498A1697A191018081AA06120784D
:10106000C00602D42046C046C046002608E00398C9
:101070006268A168805D9047206A401C761C2062EF
:1010800004988642F3DB2078C0060AD52046C04685
:10109000C04606E06268A16830209047206A401C84
:1010A000206238467F1E0028F4DC07E00098626862
:1010B000A168405D9047206A401C206228466D1E52
:1010C0000028F3DC2046C046C0462078000602D542
:1010D000022005B0F0BD0120FBE70000084B70B511
:1010E0000D467B4400F0A1F80446284600F0B0F815
:1010F000002802D00020C04370BD204670BD000013
:101100008758000001468008081A02091018020AD0
:101110001018020C1018C008820012185200891A08
:1011200001E0401C0A390A29FBD27047F8B5224C6D
:101130004E00069DA6420AD8A64201D1002806D13B
:101140005E00A64203D8A6420AD1002A08D00D2488
:10115000240425422CD02946002000F07DF8F8BD5B
:101160000C461C430CD4994202D0EFF30080F8BD2A
:10117000904202D0EFF30080F8BDEFF30080F8BD9D
:1011800009242407E5008B4206D0EFF30080A0433A
:10119000591A06D2284304E0101A05D3EFF3008051
:1011A000A04380F30088F8BDEFF30080A043F1E78F
:1011B000009500F069F8F8BD0000E0FF10B5FF23CE
:1011C0001B0644009C421DD84C009C421AD8034682
:1011D000124A0B4307D4401A02D3EFF3008010BD2C
:1011E000EFF3008010BD081A06D2EFF30080012152
:1011F0009043C907084302E0EFF30080904380F377
:10120000008810BD0D231B041A4204D01146002093
:1012100000F022F810BD00F041F810BD0000009071
:1012200001694A1C02610878704700B58FB00291CD
:1012300000210591054901937944039111460490D9
:101240006846FFF711F80FB000BD0000E5FFFFFF93
:10125000C068802108407047C80212D54803400F7B
:10126000002804D0C803C043012188407047EFF331
:1012700000800001000903210907084380F300886A
:10128000704700207047000010B500200249029A04
:1012900000F014F810BD00000000F87F10B50248FF
:1012A00000F00CF810BD00000000C07F10B504462F
:1012B000C046C0462046FEF7A7FF10BD10B50C463D
:1012C0001107090F092904D00A290AD008290CD1CD
:1012D00004E011460820FFF7BFFF06E0510606D5DF
:1012E00001E0510601D50120C007214610BDD106FD
:1012F00007D501010909CC084907000E000604437F
:1013000009E0410F20024907000A0143200E0006B0
:101310001D22D14101430846E7E70000014918209A
:10132000ABBEFEE726000200704730B58C1802788D
:10133000401C13071B0F01D10378401C120906D172
:101340000278401C03E00578401C0D70491C5B1EB0
:10135000F9D101E00B70491C521EFBD1A142E6D32A
:10136000002030BD7047F8B504460D4616461F46AE
:101370002A2000F0F4FE2104080E00F0FAFEE0B28C
:1013800000F0F7FE3104080E00F0F3FEF0B200F0BA
:10139000F0FE2B2000F0E3FE2904080E00F0E9FE29
:1013A000E8B200F0E6FE3904080E00F0E2FEF8B202
:1013B00000F0DFFE2C2000F0D2FEF8BD10B5014693
:1013C000002004E0114A125C521C1218D0B20F4ADD
:1013D000125C002AF6D1C21C202A0CDA02220B4B26
:1013E0001A543523094C421CA3542346821C995499
:1013F0000023C21CA3540222054B1A7035225A70D6
:101400001A4691700022DA7010BD0000B00400206E
:101410001C00002010B500F0B3FF10BD10B50A4C41
:101420000A48844200D90EE02002000A401E084902
:1014300048610321081F00F0CFFE002004498861A5
:101440000720086100BF10BD7F3E0000FFFFFF00C6
:1014500000E000E00148006870470000CC02002076
:1014600000B50146FFF7F6FF024600BFFFF7F2FFA7
:10147000801A8842FAD300BD0146012070477047A8
:10148000F0B58BB005460E461C224EA16846FEF70D
:10149000C1FE07A800F0E4F9002D73D04021684692
:1014A00081734C21C17220210172B22141745B21F0
:1014B00001754B48846A200C4A4988420BD1684622
:1014C000C17D702081436846C175C07D6107490EAA
:1014D00008436946C8754248446A200C414988421D
:1014E0000BD168464179302081436846417140798B
:1014F000A107890E08436946487139484038046B92
:10150000200C384988420BD16846C07D810889008B
:101510006846C175C07DA107890F08436946C87533
:101520006846C17A042001436846C172407F0001C9
:101530006946897F084312280ADB6846C17D04207A
:1015400081436846C175C07D0A900A98FFF736FF4F
:10155000684680B20121090408430921C906C86010
:1015600000BF0920C006C068012109040840002806
:10157000F7D16946487F0001897F0843122801DBC3
:1015800001F0D0FF00BF1848008B0028FBD00120DD
:10159000154908831720888100200861002E0BD090
:1015A0000920C006076900BF0920C0060069102194
:1015B000084039408842F7D00C480D4908600BB00C
:1015C000F0BD0000023F00023E30023C20023B4CD6
:1015D000023A400239B202345B02350B00000000CF
:1015E000C007001055AA000000001048CCBCECFC5D
:1015F000140000200121890788627047002907D064
:1016000001229207D269024301239B07DA6106E0B7
:1016100001229207D269824301239B07DA61704756
:101620004168012907D1890709690268114301222C
:101630009207116107E00121890709690268914356
:10164000012292071161816801290ED189078969F8
:1016500002681143012292079161114649690268AB
:1016600091430122920751611AE0816800290FD14C
:1016700001218907896902689143012292079161DA
:10168000114649690268914301229207516107E0BE
:1016900001218907496902681143012292075161BA
:1016A0007047014601208007406A0840002801D0A9
:1016B000012070470020FCE710B50120C002FFF7B1
:1016C000F0FF012807D1C002FFF794FF0948006826
:1016D000401C084908602020FFF7E3FF012807D1DC
:1016E0002020FFF787FF04480078401C024908705B
:1016F00010BD0000140300201003002070B5014647
:1017000000220A790879002808D101208007406862
:101710000C68A0430124A40760600BE00879062848
:1017200008D100220120800740680C682043012472
:10173000A4076060002058E00C68C440E307DB0F9A
:10174000002B50D008280EDA0124A407E46A860092
:101750000F25B540AC4386001546B5402C43012506
:10176000AD07EC623FE0072814DD102812DA0124EF
:10177000A407246B0546083DAE000F25B540AC43D9
:101780000546083DAE001546B5402C430125AD0782
:101790002C6328E00F2814DD182812DA0124A4078E
:1017A000646B0546103DAE000F25B540AC430546C1
:1017B000103DAE001546B5402C430125AD076C63C6
:1017C00011E017280FDD1D4C248B0546183DAE0097
:1017D0000F25B540AC430546183DAE001546B54053
:1017E0002C43164D2C83441CE0B21A28A4DB487904
:1017F000012807D18007C0680C6820430124A40792
:10180000E06007E001208007C0680C68A043012465
:10181000A407E0608879012807D1800780680C68F8
:1018200020430124A407A06007E00120800780680E
:101830000C68A0430124A407A06070BD20000040F4
:1018400001490860704700004000004001218907FD
:10185000C863704700210160017181714171704757
:1018600010B51549154A144B283BDB691B061B0FA5
:101870004370114B283BDB691B071B0F83700B6800
:1018800043600F4C4368A34209D113680D4CA34237
:1018900002D10423037004E00223037001E001235A
:1018A00003704378002B01D101234370064B9B8AC0
:1018B0005B1C9B00836010BD280090401C00001042
:1018C00041A0000244A000F200001040FFB585B026
:1018D00004460D4616460020049001F06BFF0746B3
:1018E000284602F03DF938180290272C01DDC0206F
:1018F000049003A800F032FD002801D0C420049019
:10190000049800282CD118A103C9019100906946C0
:10191000002000F00DFF00222146104600F0F8FEE6
:10192000134A14480168002000F0F8FF0020124913
:10193000087001204870029848600898886008463E
:10194000C66000208862C8620C4808630E9848632D
:10195000084600F021FF084800F044FE049000BF54
:10196000049809B0F0BD0000FFFFFFFFFF0000007A
:1019700055555500D0020020900300207914041022
:10198000014602480160002070470000D00200209C
:10199000F8B5044600BF062001218140284A1160A5
:1019A00000BF00BFA178684681702179C17021888D
:1019B000018001F037FF234801F0E4FE00202249B6
:1019C000C860012048710020204948728872208830
:1019D0001D498860002008744874A18808030A2102
:1019E000FEF7FFFC184908600020087108460068EF
:1019F000002805D1164801F0A7FF134908600EE042
:101A0000134801F0A1FF10490968884203D2104829
:101A100001F09AFF01E00C4800680B4908600D488E
:101A20000D4988600020486101F0C4FE064A126832
:101A3000002385184B412A46074802F09DFBF8BD5C
:101A400000E100E078030020380300206803002054
:101A5000FFEFFF00F9420410500300207CB5002086
:101A600001905748407A002809D001F0A3FE544B5A
:101A70000CCB101A8B4102D200205149487252E01F
:101A80005048007C4F49497C884205DB4D48007C2A
:101A90004C49497C401A07E04A48007C4949497C46
:101AA000401AFF210131081AC5B24649C868694683
:101AB00002F016FA4349C860009C0AE0266900203B
:101AC0002073A068002802D02046A16888473446C9
:101AD00000BF002CF2D13B49C86801A902F0A0FB6D
:101AE0003849C86068460079012816D102F0B4F977
:101AF000064672B63348007C401C3249497C884215
:101B000002D13048007C02E02E48007C401C2D4968
:101B10000874304602F0DEF900BF2A48407C4019C4
:101B20002849487400BF2748007C2649497C8842E0
:101B300005DB2448007C2349497C401A07E0214802
:101B4000007C2049497C401AFF210131081A0028F5
:101B500096D11C48007900281AD001F0EBFE00282D
:101B60002DD11849087101F0A1FF174801F00AFEB4
:101B700001A9134802F0DCF901F01CFE114A1268B9
:101B8000002384184B412246104802F0F5FA16E073
:101B90000D48007C002812D001F00CFE0A4A14689F
:101BA00052681925AD03002364195A41201A8A414D
:101BB00005D2064800F054F8044802F09DFB7CBDB5
:101BC0006803002038030020780300205003002021
:101BD00010B50120000701F0C3FE0848007C401C3E
:101BE0000649497C884202D10448007C02E003484F
:101BF000007C401C0149087410BD0000380300201F
:101C0000F8B504460D461646002100911248C572EB
:101C1000067212480368406810490968611A002278
:101C2000591850410C4A116050600020114648720A
:101C3000012088726946104602F07AF968460078F9
:101C4000002802D0002004498872012002F03AFBEB
:101C500068460078F8BD0000680300207803002083
:101C6000F8B505461949C868294602F06FFA0446D6
:101C70000020009028731548C068A04222D0002C94
:101C800020D06946204602F0CBFA1049C860684669
:101C90000078002818D002F0DFF8064672B60B482C
:101CA000007C401C0949497C884202D10748007CDD
:101CB00002E00648007C401C04490874304602F0EB
:101CC00009F901E00148C460F8BD000038030020B4
:101CD000FFB581B0064614461D460220FFF7B0FD51
:101CE0002C2000F03CFA3219029B19463046FFF7CF
:101CF0003AFB012707E02904080E00F03AFAE8B29F
:101D000000F037FA7F1CA742F5D90220FFF79EFDAD
:101D100005B0F0BD00BFFEE7704770470A884B88EA
:101D20005B001A438B881A43CB881A430B891A43EA
:101D30004B89DB031A43C2607047816370470174AB
:101D400070470168802291438031016070470246EC
:101D5000106B0840002801D0012070470020FCE7EC
:101D6000014648690007800F70470000F8B5044637
:101D70000D46206840084000206020680321490388
:101D800088436979490303225203114008432060C4
:101D9000687940002A490F5A2868784329490E1A61
:101DA0002949286888420FD8286841003046FEF744
:101DB0000EFB06462068302188432060606880B2B0
:101DC00009034018606015E020492868884211D84E
:101DD0002868420081183046FEF7F9FA0646206866
:101DE0003021884310302060606880B201214904AE
:101DF000401860606068800A8002E988084360607B
:101E0000208DB1B2218520680621884329794900B7
:101E10000622114008432060287A012805D1206855
:101E2000082188430830206003E0206808218843A7
:101E30002060206840084000401C2060F8BD000081
:101E4000D40200200024F400A0860100801A0600BD
:101E50000146087E704700000349016000210171BE
:101E60004171C18001727047881300000146086803
:101E70000006C00F002801D0012070470220FCE7B7
:101E800000B587B00121084601F0EEFB412040017A
:101E900005900021684601768176417605A8FFF716
:101EA0002DFC0021684601740321417401218174D5
:101EB00004A800F06DF90120C002019000200290FA
:101EC000039001A8FFF7ACFB2020019000200390B5
:101ED00001A8FFF7A5FB41204001FFF78BFB012183
:101EE00041204001FFF78AFB07B000BD70B50446F2
:101EF0000220FFF7A5FCFF23E133FF22413200213E
:101F00000846FFF730FA00250EE0002607E021041E
:101F1000080E00F02EF9E0B200F02BF9761CFF203D
:101F2000E1308642F3D36D1CFF2041308542ECD373
:101F30000220FFF78BFC70BD10B54020FFF786FC38
:101F40000520FFF78DFA4020FFF77AFC0F20FFF7FE
:101F500087FA4020FFF77AFC0F20FFF781FA022072
:101F6000FFF76EFCF02000F0FAF8C32000F001F952
:101F7000F02000F0F4F8962000F0FBF8362000F096
:101F8000EEF8682000F0F5F83A2000F0E8F80520B7
:101F900000F0EFF8B02000F0E2F8802000F0E9F85F
:101FA000B62000F0DCF8002000F0E3F8022000F09A
:101FB000E0F8B52000F0D3F8022000F0DAF80320B2
:101FC00000F0D7F8002000F0D4F8042000F0D1F899
:101FD000B12000F0C4F8802000F0CBF8102000F011
:101FE000C8F8B42000F0BBF8002000F0C2F8B72019
:101FF00000F0B5F8C62000F0BCF8C52000F0AFF83E
:10200000242000F0B6F8E42000F0A9F8312000F018
:10201000B0F8E82000F0A3F8402000F0AAF88A20E9
:1020200000F0A7F8002000F0A4F8002000F0A1F8CC
:10203000292000F09EF8192000F09BF8A52000F060
:1020400098F8332000F095F8C22000F088F8A72017
:1020500000F085F8E02000F082F8F02000F089F828
:10206000092000F086F8132000F083F8122000F019
:1020700080F8122000F07DF82B2000F07AF83C2048
:1020800000F077F8442000F074F84B2000F071F86D
:102090001B2000F06EF8182000F06BF8172000F0FD
:1020A00068F81D2000F065F8212000F062F8E120BA
:1020B00000F055F8F02000F05CF8092000F059F825
:1020C000132000F056F80C2000F053F80D2000F01B
:1020D00050F8272000F04DF83B2000F04AF844204B
:1020E00000F047F84D2000F044F80B2000F041F8D4
:1020F000172000F03EF8172000F03BF81D2000F0FC
:1021000038F8212000F035F8362000F028F8482073
:1021100000F02FF8F02000F022F8C32000F029F89A
:10212000F02000F01CF8692000F023F8132000F0E4
:1021300016F8112000F013F8292000F010F8022002
:10214000FFF784FB10BD10B50446204600F034FFB5
:1021500000BF102000F0E8FE0128FAD010BD10B535
:10216000044601208003FFF76BFB2046FFF7EBFFDF
:1021700010BD10B5044601208003FFF767FB204621
:10218000FFF7E1FF10BD7047704770477047704719
:1021900010B50446A078002810D06178227850B29B
:1021A00000F056F82078C106C90E01208840217839
:1021B00049118900074A891808600AE02078C10699
:1021C000C90E0120884003498031227852119200C3
:1021D000885010BD00E100E010B5002819DA1A4A55
:1021E00003071B0F083B9B089B00D2588307DC0E9C
:1021F000FF23A3409A438B071B0E8407E40EA340E2
:102200001A43114B0407240F083CA408A4001A51D8
:1022100018E00E4A03231B02D21883089B00D258F1
:102220008307DC0EFF23A3409A438B071B0E840712
:10223000E40EA3401A43054B032424021B1984080F
:10224000A4001A5110BD00001CED00E000E100E008
:1022500010B5002819DA1A4A03071B0F083B9B0820
:102260009B00D2588307DC0EFF23A3409A438B07C1
:102270001B0E8407E40EA3401A43114B0407240FDE
:10228000083CA408A4001A5118E00E4A03231B02BC
:10229000D21883089B00D2588307DC0EFF23A3408B
:1022A0009A438B071B0E8407E40EA3401A43054B89
:1022B000032424021B198408A4001A5110BD000035
:1022C0001CED00E000E100E010B5002819DA1A4A20
:1022D00003071B0F083B9B089B00D2588307DC0EAB
:1022E000FF23A3409A438B071B0E8407E40EA340F1
:1022F0001A43114B0407240F083CA408A4001A51E8
:1023000018E00E4A03231B02D21883089B00D25800
:102310008307DC0EFF23A3409A438B071B0E840721
:10232000E40EA3401A43054B032424021B1984081E
:10233000A4001A5110BD00001CED00E000E100E017
:10234000704770B504460D4616463246294620466B
:10235000FDF7F6FF70BD70477047000070B504468A
:10236000002506480068008808210840002803D09E
:10237000204601F043FA0546284670BDCC6F041094
:10238000FEB50920C0060568012000062840002887
:102390007DD001F0EBFB5B4880B2012109044018BD
:1023A0000921C906C86057480838406D0561554A7B
:1023B000083A506D526D116B8847012804D151487D
:1023C0000838406D846A03E04E480838406DC46A9E
:1023D000002C09D1012000070921C906486000200E
:1023E0004949096808805CE0474800680088474917
:1023F000084021784822114308434349096808806E
:1024000020461C3000903820015D20788001404A31
:10241000126880188172217889013D4A00981268FB
:102420008918088221788901394A00981268891828
:10243000488220788001364909684018807D8021D3
:10244000084321788901324A1268891888756078B2
:1024500004210840002824D088060921C9064860C4
:10246000607820210840002812D001F0A3F9074627
:10247000606801F075FB381801906078C207D20FD0
:102480000223184001460198FFF7BAFB09E026E055
:102490006378DA07D20F02273B4019466068FFF7DE
:1024A000AFFBE80FC007002804D1012080072840B7
:1024B00000280BD004F0C6FB12490839496D886129
:1024C00001F058F90F490839496D48610D4808383D
:1024D000466D446521463046726B904700BF01202F
:1024E000C0032840002801D0FFF772FB0120400400
:1024F0002840002801D0C046C0460920C00605601B
:10250000FEBD000060040020CC6F0410F0FF00004E
:10251000D06F041070B504460D460620012181409D
:102520002C4A116000BF09202B49096848712A49CB
:102530000968C87105202849096888712649096811
:102540000872002D1FD1244800684079802108437B
:1025500021490968487120480068C07980210843F2
:102560001D490968C8711C480068807980210843AA
:1025700019490968887118480068007A8021084361
:102580001549096808721548046500201249096850
:102590000880012000070921C906486010498860A9
:1025A0000920C0060668066047200C490860002024
:1025B00008710B2000F0C0F900221146104600F00F
:1025C000C9F8062001218140024A803A116000BF0B
:1025D00070BD000080E100E0CC6F041058040020C2
:1025E00040000048F0B585B004460020039002A8E2
:1025F000FFF7B4FE00287BD1404908710120000795
:102600000921C90648603E483C49886000213B4892
:10261000C160103000903B490098096848812078DB
:1026200045076D0F37480068008837490840482142
:10263000294308433349096808800020A901334A27
:10264000126889188881A901304A12688918C881DE
:102650000021A8012D4A12688018818220461C3072
:102660000190A901294A01981268891808820198E5
:1026700081B2A801254A126880184182A801234925
:1026800009684018807D80210843A9011F4A12680B
:1026900089188875194844653820015DA8011B4ACE
:1026A00012688018817272B6607820210840002874
:1026B00012D001F07FF80746606801F051FA3E1829
:1026C0006078C207D20F0223184001463046FFF758
:1026D00097FA03900AE00BE06378DA07D20F02273B
:1026E0003B4019466068FFF78BFA039062B601E041
:1026F000C4200390039805B0F0BD000058040020EA
:10270000862E0000CC6F0410F0FF0000D06F041084
:1027100010B58301054C24681B19D9728301034C41
:1027200024681B1920331A7010BD0000D06F0410EC
:1027300030B50246002008E00C5C9301044D2D6882
:102740005B1921331C54431CD8B20528F4DB30BD7F
:10275000D06F041030B5012901D0012A0CD18301BA
:102760000C4C24681B19DB7D0A2423438401094D8A
:102770002D686419E3750BE08301064C24681B196E
:10278000DB7DF52423408401024D2D686419E37537
:1027900030BD0000D06F04108189C18301461C3117
:1027A000818301229204816891420DD2027A202114
:1027B0000A54018909040A0E21210A5481688903F7
:1027C0008A0F22210A544CE00122120581689142AD
:1027D00014D2018989050A0E20210A5481688903CF
:1027E0000A0E21210A54816809038A0F22210A5402
:1027F0000A5C04210A4322210A5432E00122920594
:102800008168914214D2018909050A0E20210A54D7
:10281000816809030A0E21210A54816889028A0FFE
:1028200022210A540A5C08210A4322210A5418E092
:10283000012212068168914213D2018989040A0E8D
:1028400020210A54816889020A0E21210A548168D4
:1028500009028A0F22210A540A5C0C210A43222110
:102860000A54417880221140002906D122210A5CB5
:1028700080210A4322210A5405E022210A5C4021DA
:102880000A4322210A5422210A5C30210A432221D0
:102890000A5421490A7823210A541F490988090446
:1028A0000A0E24210A541C49096809030A0F25212C
:1028B0000A54002226210A544178102211404278FD
:1028C000D207D20F1143427802231A401143262225
:1028D00011542621095CCA06D20E26210A54095C2D
:1028E000FB221140262211542621095C0278520154
:1028F0001143CAB226210A54FF2227210A5400227A
:1029000038210A54417802221140002902D0802245
:1029100038210A54704700005804002010B5830184
:10292000044C24681B1999618301024C24681B190B
:10293000DA6110BDD06F0410C106080E002106E058
:102940008A01044B1B68D21820329077491C082951
:10295000F6DB7047D06F041001F084FA012802D131
:10296000FDF7AEFB05E0044880F3088800BF04F0E3
:1029700043F800BFFEE7000000600020114909682D
:102980008906890E01700F4909680905890E417091
:102990000C490968C903C90E81700A49096809030D
:1029A000490FC17007490968C901C90E017105497C
:1029B0000968C900090F4171024989898904890C94
:1029C000C18070470000F0400EB5022000F092F880
:1029D000012879D1022000F087F801A8FFF7CEFF87
:1029E0006846407939490978884207D0694648796C
:1029F00003F014F8694648793449087068468079CC
:102A000033490978884207D06946887902F0B8F8D6
:102A1000694688792E4908706846C0792D49097839
:102A2000884207D06946C87903F06CFE6946C879C8
:102A3000284908706846007A27490978884207D0F3
:102A40006946087A01F0D2FC6946087A2249087082
:102A50006846407A21490978884207D06946487A11
:102A600003F002F86946487A1C4908701C4800784F
:102A7000002813DD00201A4908701A4808231A4656
:102A80001E210090C42001F041FC164808231A467C
:102A90003C210090C42001F039FC14E0104800787B
:102AA000401C0F490870002008231A461E21009080
:102AB000C42000F02BF8002008231A463C21009087
:102AC000C42000F023F800BF0EBD00001803002052
:102AD000190300201B0300201A0300201C03002000
:102AE0000C03002044700410014908727047000074
:102AF0002000F0400146044800780840002801D03A
:102B0000012070470020FCE72000F040FFB581B0B5
:102B100007460D461E46002406E0291938460A9B42
:102B2000039AFFF7D5F8641CB442F6D305B0F0BDA4
:102B300038B504460D4601210906206908400028E1
:102B400054D089112069084000284FD12069C00F56
:102B5000C007002827D0264803F0F8FE2549091AA7
:102B6000E06840780C30814211DDE2685078811CC9
:102B70001F4803F0A7FE2246183204211C4803F028
:102B800096FE224614320421194803F090FE1A489A
:102B900000901A481A4A03681A4801681A480078CF
:102BA000FEF794FE22E001218906206908400028F2
:102BB0000BD0114800901148114A03681148016870
:102BC00011480078FEF782FE10E001218907206994
:102BD000084000280AD0084800900848084A0368BE
:102BE0000848016808480078FEF770FE012038BDEB
:102BF000D004002002020000312B04102803002022
:102C0000E30700202003002024030020002811D027
:102C1000164A92B201231B041A430923DB06DA6029
:102C200000BF0922D206D26801231B041A40002AE1
:102C3000F7D119E00D4A9178927804239A430B4B0F
:102C40009A701A4692B201231B041A430923DB0629
:102C5000DA6000BF0922D206D26801231B041A40A1
:102C6000002AF7D1014A9170704700001C00002033
:102C7000FEB504460D4600F0D1FB401E80002B49F6
:102C80000E58012109073046FFF757F80121684621
:102C90000180442141800021818001210903C180FC
:102CA00089000181458100F0B9FB401E80001F4969
:102CB0000E5869463046FFF731F800BF00F0AEFB12
:102CC000401E800019490E583046FFF749F8032886
:102CD00001D10120FEBD00F0A1FB401E8000134980
:102CE0000E580121C9043046FFF731F80028E5D01D
:102CF00000F094FB401E80000C490E580C493046F1
:102D0000FFF71BF80AE000F089FB401E800007492E
:102D10000E583046FFF79CF82070641C2846691E48
:102D2000CDB20028EFD100BFD4E70000F4020020AC
:102D3000000008103EB50446002168460180442189
:102D400041800021818001210903C1808900018126
:102D50000121418100F062FB401E800025490D5891
:102D60002846FEF7EEFF00BF00F058FB401E800033
:102D700020490D582846FFF779F80128F4D000F0D3
:102D80004DFB401E80001B490D5869462846FEF742
:102D9000C5FF00F043FB401E800016490D58217806
:102DA0002846FEF7CCFF00BF00F038FB401E800035
:102DB00010490D582846FEF7D3FF032801D1012002
:102DC0003EBD00F02BFB401E80000A490D5801213A
:102DD000C9042846FEF7BBFF0028E5D000F01EFB23
:102DE000401E800003490D5803492846FEF7A5FF01
:102DF0000020E5E7F402002000000810F0B589B0DB
:102E000004460F4606A800F043F86846007E01021B
:102E10006846407E081805906846C07E01026846F4
:102E2000007F08180490AF22059951430846FDF72A
:102E3000AAFF05460022134BFDF760FD0022124B4E
:102E400001910090FDF737FD03910290FDF76CFBB7
:102E500020607D22049951430846FDF794FF054602
:102E60000022084BFDF74AFD0022084B019100901B
:102E7000FDF721FD03910290FDF756FB386009B084
:102E8000F0BD0000E0FFEF40008046400000184029
:102E900038B5044606A0006800906846FFF74AFF70
:102EA0000A20FEF7DDFA06212046FFF7E1FE38BDD5
:102EB000E000000000B501E000F078F8042000F028
:102EC00033F80128F8D000BD0C490978022291435B
:102ED000891C0A4A117002E00849C9680843074979
:102EE0008039097BC907C90F0029F5D00349097842
:102EF00002229143014A1170704700008000404057
:102F0000002807D00749496802229143891C054AD5
:102F1000516005E00349496802229143014A51602A
:102F2000704700000000404001460448007B084014
:102F3000002801D0012070470020FCE7000040403D
:102F40007047000010B50446606800F03BF8164872
:102F500040680421884321788900042211400843F5
:102F6000114948600846006840218843A1788901DA
:102F70004022114008430C4908600846006880213F
:102F80008843E178C901802211400843064908605E
:102F900008460068400940016178C906C90E084327
:102FA0000149086010BD00000000404001488068F1
:102FB00070470000000040400149886070470000F1
:102FC00000004040F8B50546012702266900104878
:102FD000FDF7FDF90446002C0BD07F20400284420F
:102FE00007D802E07006060E6408FF2CFAD8601EAF
:102FF000C7B2084806740068FF21090288433902F5
:10300000FF2212021140084302490860F8BD000087
:103010000024F400000040400149C86270470000ED
:1030200000004040012101700721417000218170A2
:10303000C17001494160704740420F001FB5012136
:10304000112000F011FB6846FEF704FC04200090FC
:103050000421684601710121817100214171FEF74F
:103060004DFB08200090042168460171FEF746FBE5
:1030700001200090042168460171FEF73FFB02A881
:10308000FFF7D0FF0021684601720721417200213D
:103090008172C1720748039002A8FFF753FFFF2017
:1030A000FFF7BAFFFFF710FFFFF704FF0120FFF75C
:1030B00027FF1FBD0048E8017047000010B586B02B
:1030C000FFF7BCFF0121084600F0CEFA04A8FEF786
:1030D000C1FBA44804900621684601750121817551
:1030E000417504A8FEF70AFB9E48FEF7AFFBFEF70A
:1030F00023FF0020FEF7FAFE9B4BFF2241326421A2
:103100000020FEF7E5FD984BFF22413265210020AB
:10311000FEF7DEFD944BFF224132FF2123310020D8
:10312000FEF7D6FD904BFF224132FF2124310020D3
:10313000FEF7CEFD8C4BBE226421A02000F05AFE8B
:10314000232402A903A8FFF759FE039803F080F98E
:1031500086486100009008460B3008231A46C821B3
:1031600001F0D4F8824808231A4696210090822064
:1031700001F0CCF87F481D231122B4210090842057
:1031800001F0C4F8029801F023FD78486100009036
:1031900008460B3008231A46FF21123101F0B6F819
:1031A00075481F231A46FC210090802001F0AEF8DC
:1031B0006D481F381E234122692100902D20FFF702
:1031C000A5FC0020032309226A2100903F20FFF77D
:1031D0009DFC002003230922822100903F20FFF75D
:1031E00095FC0020152303226D2100904220FFF75B
:1031F0008DFC002003230F22762100905020FFF742
:1032000085FC00200C230322792100905020FFF739
:103210007DFC00200C230322792100905C20FFF725
:1032200075FC1F201E23412269210090CD20FFF74D
:103230006DFC0020032309226A210090DA20FFF7A9
:1032400065FC00200323092282210090DA20FFF789
:103250005DFC0020152303226D210090D720FFF78D
:1032600055FC0020152303226D210090E320FFF779
:103270004DFC00200F23032276210090EA20FFF767
:1032800045FC00200F23032276210090F320FFF756
:103290003DFC00200323092282210090ED20FFF74E
:1032A00035FC00201323032270210090FA20FFF741
:1032B0002DFC00200223092273210090F720FFF744
:1032C00025FC00200323022281210090FF20FFF72C
:1032D0001DFC00200323012282210090FE20FFF725
:1032E00015FC00200223042283210090FB20FFF71D
:1032F0000DFC224803F03AF91C4861000090084692
:10330000AB3008231A46C82101F000F818480823FA
:103310001A4696210090FF20233000F0F7FF154851
:103320001D231122B4210090FF20253000F0EEFF74
:10333000124801F089FC0D48610000900846AB304E
:1033400008231A46FF21123100F0E0FF0A481F232C
:103350001A46FC210090FF20213000F0D7FF06B074
:1033600010BD000052400000FFFF0000AA7C0410C6
:10337000EA7C04102A7D0410177F04100000C84264
:1033800010B586B004460121092000F06DF900F067
:1033900045F8401E80001D490858019000F03EF895
:1033A000401E80001A49095C684601720021817242
:1033B000417201A8FEF7A2F900F030F8401E80002B
:1033C00014490858019000F029F8401E8000124965
:1033D000095C6846017201A8FEF790F90394032185
:1033E00068460174417400218174C17441750321E0
:1033F00001750121817503A800F0F2FB002000F0A7
:10340000E3FC012000F0BCFB06B010BDDC6F041033
:10341000E06F0410E46F0410E86F041001480078B6
:1034200070470000F002002030B585B00446FFF779
:10343000F5FF401E8000294908582949884204D1D7
:103440000121284800F010F903E00121264800F08E
:103450000BF9FFF7E3FF401E800024490858039052
:10346000FFF7DCFF401E80002149095C68460174BB
:1034700000218174417403A8FEF740F9FFF7CEFFE5
:10348000401E80001B4908580390FFF7C7FF401EED
:1034900080001949095C6846017403A8FEF72EF9FB
:1034A0006846FEF7D9FC0121684601710094FFF7D8
:1034B000B5FF401E800009490D5869462846FEF7B1
:1034C00055FCFFF7ABFF401E800004490D580B4927
:1034D0002846FEF732FC002005B030BDF402002083
:1034E0000000A0400104000001020000F46F04107D
:1034F000F86F0410EC6F0410F06F04107F809F735E
:103500000120014908707047F002002010B5044600
:1035100000BF202000F048FB0128FAD0204600F030
:1035200061FC10BD002004E01549095C491C091824
:10353000C8B21349095C0029F6D1C11C20291EDA42
:1035400002210F4A115421220D4B411C5A540822CA
:10355000811C5A540022C11C5A541946091889B2B8
:103560000122120411430922D206D16000BF0921B1
:10357000C906C9680122120411400029F7D1704719
:10358000B004002002480068401C014908607047F0
:10359000CC02002010B5314B197A314B1A8900202A
:1035A000002905D109231340092B01D120231843F9
:1035B000002905D111231340112B01D140231843B9
:1035C000002905D121231340212B01D18023184349
:1035D000002906D141231340412B02D1FF2301339F
:1035E0001843002906D181231340812B02D10123E6
:1035F0005B021843002909D1FF2302331340FF2443
:103600000234A34202D101239B021843002907D1AF
:10361000144B1340134CA34202D10123DB02184385
:10362000002905D105231340052B01D11023184390
:10363000002905D193079B0F032B01D108231843C1
:10364000022901D101231843042901D1022318437F
:10365000082901D10423184310BD00000000904048
:103660000000104801040000012905D1054A126A32
:103670000243044B1A6204E0024A126A8243014B7D
:103680001A6270470000904010B5FFF77BFF10BD35
:1036900010B50820294988800321481FFEF714FE31
:1036A0000321081FFEF710FE03210020FEF70CFE89
:1036B00003210120FEF708FE03210420FEF704FE8B
:1036C00003210520FEF700FE00210620FEF7FCFD89
:1036D00003210720FEF7F8FD03210D20FEF7F4FD7E
:1036E00003210E20FEF7F0FD03210F20FEF7ECFD75
:1036F00003211120FEF7E8FD03211220FEF7E4FD6F
:1037000003211320FEF7E0FD03211420FEF7DCFD6A
:1037100003211520FEF7D8FD03211620FEF7D4FD66
:1037200003211720FEF7D0FD00210120FDF7A8FEA0
:1037300003480449086262B610BD00000000104052
:1037400066000E00000090400246012A07D10029C1
:1037500002D007480079704705484079FBE7002907
:1037600002D003488079F6E701484079F3E700008A
:103770004804002010B50921C906886800F022F825
:1037800010BD00000A49097E017409492039096AFF
:10379000C16007492039CA688968426001600449EC
:1037A0002039C969816002492039496B41617047FC
:1037B0002804002010B5024803F0E0F810BD000016
:1037C00008040020F8B5074669460B4803F0DDF809
:1037D00005460E46084A916A009AD21B1202101240
:1037E000054A483203F0ECF80446314600202A1B13
:1037F00081411046F8BD0000080400200246002068
:103800000923DB06596811604B01590F032901D1C7
:10381000022006E0022901D1012002E0012900D1A5
:103820000320704710B5044620883C490861E078C1
:10383000002802D1A078002813D000BF3848008BA0
:103840000028FBD036488089400A400217303449AE
:103850008881324800F0CCFC3048806A2F49C86229
:103860000DE0192000042D49C86288622D48486285
:103870002D48C8612D480862FF20E930C882E178F0
:10388000264820300176254A516A128A90B200F00B
:10389000F5FC2249C88A03F01DFA2048C08A1F4956
:1038A000088300211D4A116051600920C00600698B
:1038B000114608630846006B486300219160D1609F
:1038C0001B49C9794806400E03F05FFA3830C1B28F
:1038D000124840300171164949794806400E03F0FC
:1038E00054FA1B30C1B20D48403041711049097A79
:1038F0004806400E03F049FA3830C1B2074840305C
:1039000081710B49097A4806400E03F03EFA1B30DC
:10391000C1B202484030C17110BD0000080400204F
:1039200000001048C2F528008D5B0000ECEB65013B
:10393000C00000200348008B002801D101207047FF
:103940000020FCE70000104810B50446034802467A
:103950004832816A204603F033F810BD0804002085
:10396000014988607047000040000048F7B584B006
:1039700016460598012807D1002E02D02C4804795C
:1039800009E02B48447906E0002E02D028488479CB
:1039900001E02748C47903A92548403802F0F5FF23
:1039A0000499081A071B2248403800691430B842AD
:1039B00009D201252D06012001901D484038007DC7
:1039C0001C49487203E001256D060020019018484B
:1039D0004038416A384603F06DF91649497AC90002
:1039E000401A02900399029808180002000A28431E
:1039F0000199002902D00121090700E000210843B4
:103A00000921C90648600298002808DA012000064A
:103A1000854204D100204860012007B0F0BD092094
:103A2000C00640680249403908640020F5E70000FC
:103A300048040020C00000200921C90648607047E2
:103A400070B504460E461248416A204603F032F92A
:103A50000446102C01D9204600E01020044609201D
:103A6000C00605692046083028180002000A012116
:103A700009064018002E01D0090100E0002108438A
:103A800004498860084680680149C863284670BDBB
:103A9000080400204000004810B50348007E0028BC
:103AA00001D000F0B5FB10BD2804002010B594B083
:103AB0002A48007E002842D05022284920396846F2
:103AC000FCF7A8FB684600F0FBFA049A90B209994B
:103AD00000F0D4FB6846018BC08A814206D069465B
:103AE000C88A03F0F7F86846C18A018300F0B7F985
:103AF000044672B66846007D184920390875684644
:103B0000C08AC8826846008B08830798C8610898F5
:103B10000862099848620A9888620B98C8620F98F0
:103B2000C8631098086410A801890C4820300181EE
:103B3000403803F00BF9204600F0CFF90BE000F01D
:103B40008EF9044672B60548203803F0FFF8204687
:103B500000F0C3F900BF14B010BD0000280400201D
:103B600010B50446204603F010F910BD0248C08A83
:103B7000024948807047000008040020C00000206F
:103B8000002807D00749096B49084900491C054A24
:103B9000116305E00349096B49084900014A1163B3
:103BA00070470000000030400146C80FC0070028E1
:103BB00008D0094840680840002801D0012070471B
:103BC0000020FCE70448008B0840002801D00120B9
:103BD000F5E70020F3E700000000304070470000E8
:103BE000F8B504467648006B0007C00F002806D1E0
:103BF000206801017348FCF7EAFB054605E02068F0
:103C0000C1007048FCF7E3FB05466802060C6C48EF
:103C100020308680F001281A401CC003070C3F2F7B
:103C200004DD701C86B2781C8706BF0E6449203103
:103C30000F720846007B6021884321794901602288
:103C4000114008435E49203108735D48007F6021C0
:103C50008843617949011140084359490877584818
:103C60002030007B08218843A179C9000822114037
:103C700008435349203108735148007F0821884385
:103C8000A179C900114008434D490877E07900281F
:103C90000ED14B482030007B022188434849203117
:103CA00008734748007F02218843454908773FE071
:103CB000E07902281DD142482030007B0221884350
:103CC000801C3F49203108730846007B042188434B
:103CD0003B49203108733A48007F02218843801C09
:103CE000374908770846007F04218843344908771C
:103CF0001EE033482030007B02218843801C30497D
:103D0000203108730846007B04218843001D2C499C
:103D1000203108732A48007F02218843801C2849EB
:103D200008770846007F04218843001D244908774E
:103D30002348006B012149028843217A490201226C
:103D40005202114008431E4908630846006B89155A
:103D50008843217A4910090252101140084318493A
:103D600008630846006B91018843617A89039201D8
:103D700011400843124908630846006B510088430C
:103D8000617A4910C9035200114008430C49086385
:103D90000B482030007B10218843A17A09011022B2
:103DA000114008430649203108730548007F10215F
:103DB0008843A17A09011140084301490877F8BDF9
:103DC000000030400000127A0549097D38229143F5
:103DD000C20038231A401143014A11757047000090
:103DE00020003040C105C90D014A11807047000014
:103DF00000003040FFB581B0064614461D46022043
:103E0000FDF71EFD2C20FEF7AAF902980319324691
:103E100001463046FDF7A7FA012707E02904080EFE
:103E2000FEF7A7F9E8B2FEF7A4F97F1CA742F5D97F
:103E30000220FDF70BFD05B0F0BD704730B47446AD
:103E4000641E2578641CAB4204D3635D5B00E318F9
:103E500030BC18471D46F8E7EFF310807047EFF3CA
:103E60001080704738B5002016490860002409E02A
:103E7000FFF790FB009069460888002800D003E017
:103E8000601CC4B2032CF3DB00BF68460088202806
:103E900015DB6846008802F097FE01200A49087089
:103EA000FCF775F90AE000BFBFF34F8F07480849D8
:103EB000C860BFF34F8F00BF00BFFEE7F3E70120EC
:103EC00038BD0000140000200C0000200400FA059A
:103ED00000ED00E080F31088704780F31088704791
:103EE000FEB505460E462C46002002900195356031
:103EF00000900EE0207B002806D0FFF75BFC2168D5
:103F00000F1A002F00DD06E0029424690098401C7F
:103F10000090002CEED100BF0098002804D00021B2
:103F200002980161019401E0002030600198FEBD1B
:103F3000F3B587B00446002108980170A07A0028E4
:103F400059D02E48036840682D4909680022591845
:103F5000504104910590FFF77FFF019072B6FFF783
:103F600029FC039102906368226819277F030026C9
:103F700004990598C9197041511A83410BD3FF2345
:103F80007333002204990598CB185041039A029983
:103F9000591A904127D2217AE07AFFF7D5FB0546DE
:103FA0000026029A0399531971410C229B18714102
:103FB00062682068181A91410ED2227AE17A20684C
:103FC000FFF7D4FC089908700198FFF783FF0020E1
:103FD000A072012060720DE00198FFF77BFF0121C4
:103FE0000898017006E00198FFF774FF01200007B0
:103FF000FFF722FD00BF09B0F0BD000078030020EC
:1040000038030020F8B504460D4616461F46207BAF
:104010004019401E217B491E884380B200902088B1
:104020006188884203DB20886188401A04E0608848
:104030002188401AA188081A009988420EDBA068DE
:10404000C1192A463046FEF77CF9A1886388009A98
:104050009818FCF7C6F961800020F8BD0120FCE744
:10406000F8B504460D4616461F46207B4019401EF3
:10407000217B491E884380B2009020886188884255
:1040800003DB20886188401A04E060882188401A98
:10409000A188081A00994018A18888420EDAA16800
:1040A000C8192A463146FEF74CF9A1882388009AA0
:1040B0009818FCF796F921800020F8BD0120FCE754
:1040C000FEB5114C114E7269316995092E46664351
:1040D00002960F4B0E0A0196CEB200961F46019E25
:1040E0007743009E5E43360ABE1910367609866213
:1040F000029E8036360A4662C1610262054E4E4318
:10410000360CC682FEBD00005307000000001048B8
:10411000F6BC080055050000F8B503460A461946E6
:104120000024009301E00C460969002906D04D687F
:10413000086857681668801BBD41F4D31161002CD4
:1041400001D1009200E022610098F8BD30B502462E
:104150000B4611460024104601E00C46096900296F
:1041600001D09942F9D1002905D0914201D10869C5
:1041700001E00D69256130BDF8B5044615461E46BF
:1041800000200090207B002801D00120F8BD66604F
:104190002560012020731549C8682146FFF7BCFF40
:1041A000A04220D16946204600F03AF80F49C86085
:1041B00068460078002816D0FFF74EFE074672B614
:1041C0000A48007C401C0949497C884202D10748C2
:1041D000007C02E00548007C401C04490874384615
:1041E000FFF778FE00BF68460078CFE7380300206D
:1041F00010B5044600F00CF800BF0448008B0028FE
:10420000FBD02046FFF75CFF10BD00000000104807
:10421000012002490883002008617047000010480F
:10422000FEB507460D463C460197002028701BE06E
:10423000207B002817D0FFF70FFE009072B6FFF723
:10424000B9FA21680E1A002E07DD01213046FFF76A
:10425000F7FB0098FFF73EFE08E001202870009869
:10426000FFF738FE02E02469002CE1D100BF287876
:10427000002801D00198FEBD2046FCE770B5054638
:104280000E463146284602F015FD04460120800204
:10429000844200D3441E082C00D208246005000E7E
:1042A000064908750648008808210840002803D1FF
:1042B0000248007D0249487270BD000008040020D9
:1042C000C000002010B50446002C0AD008484079F0
:1042D00000280CD1074800F00FF80120044948716C
:1042E00005E00448FDF7BCFC00200149487110BD01
:1042F000380300205003002010B50446FFF7CCFB24
:1043000001200149087110BD38030020FFB581B0BC
:1043100015461C460220FDF793FA2C20FDF71FFFDF
:1043200002980019431E01984019421E02990198F3
:10433000FDF719F8002652E000274DE030466043B3
:10434000C1190A98405C0300FFF778FD08050C13BB
:104350001A21282F363D0020FDF70BFF0020FDF726
:1043600008FF37E0FF20FDF704FFFF20FDF701FF06
:1043700030E0F820FDF7FDFE0020FDF7FAFE29E011
:104380000720FDF7F6FEE020FDF7F3FE22E0002017
:10439000FDF7EFFE1F20FDF7ECFE1BE0FF20FDF711
:1043A000E8FEE020FDF7E5FE14E00720FDF7E1FE62
:1043B000FF20FDF7DEFE0DE0F820FDF7DAFE1F20FE
:1043C000FDF7D7FE06E00020FDF7D3FE0020FDF745
:1043D000D0FE00BF00BF7F1CA742AFD3761CAE4209
:1043E000AAD30220FDF732FA05B0F0BD38B5044675
:1043F00000201D232422232100901B20FEF786FB92
:10440000632C17D00A212046FBF7EBFFCDB20A4BF5
:1044100023222F21284600F011F80A212046FBF71D
:10442000E0FFC4B2002C05D0034B23221B21204601
:1044300000F004F838BD0000FFFF0000F8B50446A6
:104440000D4616461F462300FFF7F8FC0A062530E6
:104450004A647993B2C2E6FE3A463146284601F0F4
:1044600075FC3A463146284601F07AFC3A46314618
:10447000284601F080FC3A463146284601F087FC88
:104480003A463146284601F08DFC3A4631462846E8
:1044900001F093FCE2E03A463146284601F060FC28
:1044A0003A463146284601F066FCD7E03A463146A6
:1044B000284601F04BFC3A463146284601F050FCB4
:1044C0003A463146284601F082FC3A4631462846B3
:1044D00001F05DFC3A463146284601F063FCBDE040
:1044E0003A463146284601F031FC3A4631462846E4
:1044F00001F036FC3A463146284601F03CFC3A468B
:104500003146284601F063FC3A463146284601F020
:104510003EFCA3E03A463146284601F04EFC3A46BE
:104520003146284601F01CFC3A463146284601F047
:1045300022FC3A463146284601F049FC8EE03A46D4
:104540003146284601F039FC3A463146284601F00A
:10455000FDFB3A463146284601F00DFC3A4631460D
:10456000284601F034FC3A463146284601F00FFC5B
:1045700074E03A463146284601F0E8FB3A463146B7
:10458000284601F01AFC3A463146284601F00AFC5A
:104590003A463146284601F01AFC3A46314628464A
:1045A00001F0E9FB3A463146284601F0F0FB55E0C0
:1045B0003A463146284601F0C9FB3A46314628467C
:1045C00001F0CEFB3A463146284601F0D4FB45E0E7
:1045D0003A463146284601F0B9FB3A46314628466C
:1045E00001F0BEFB3A463146284601F0C4FB3A468C
:1045F0003146284601F0CBFB3A463146284601F0C9
:10460000D1FB3A463146284601F0D7FB3A463146BF
:10461000284601F0DCFB21E03A463146284601F00D
:1046200095FB3A463146284601F09AFB3A46314618
:10463000284601F0A0FB3A463146284601F0A7FB88
:104640003A463146284600E007E001F0B6FB3A461C
:104650003146284601F0BBFB00E000BF00BFF8BDBB
:10466000F8B504460D4616461F462300FFF7E6FB45
:104670000A062A4E7296BADEFDFCFBFA3A4631462D
:10468000284601F0AFFB3A463146284601F0E4FBEC
:104690003A463146284601F019FC3A46314628464A
:1046A00001F04EFC3A463146284601F083FC3A467A
:1046B0003146284601F0B8FC00223146284601F078
:1046C000EDFC49E13A463146284601F0C5FB3A4641
:1046D0003146284601F0FAFB00223146284601F017
:1046E00081FB00223146284601F02AFC0022314697
:1046F000284601F05FFC00223146284601F094FC78
:1047000000223146284601F0C9FC25E13A463146EF
:10471000284601F067FB3A463146284601F09CFBEB
:104720003A463146284601F0B9FC3A463146284619
:1047300001F006FC3A463146284601F03BFC0022D7
:104740003146284601F0C2FB00223146284601F0DE
:104750006BFC01E13A463146284601F043FB3A46FC
:104760003146284601F078FB3A463146284601F0AA
:10477000ADFB3A463146284601F090FC3A463146B8
:10478000284601F0DDFB00223146284601F012FCEC
:1047900000223146284601F047FCDDE03A4631462A
:1047A000284601F041FC3A463146284601F054FBC8
:1047B0003A463146284601F089FB3A4631462846BA
:1047C00001F06CFC00223146284601F00BFB002270
:1047D0003146284601F0B4FB00223146284601F05C
:1047E000E9FBB9E03A463146284601F01DFC3A465D
:1047F0003146284601F0F6FA3A463146284601F09D
:1048000065FB3A463146284601F048FC3A463146B7
:10481000284601F095FB00223146284601F01CFB9A
:1048200000223146284601F0C5FB95E03A46314664
:10483000284601F0D7FA3A463146284601F0F4FB03
:104840003A463146284601F0B5FB3A4631462846FD
:1048500001F024FC3A463146284601F037FB3A463F
:10486000314603E077E052E02DE008E0284601F011
:1048700067FB00223146284601F0EEFA6CE03A462A
:104880003146284601F0AEFA3A463146284601F054
:10489000E3FA3A463146284601F018FB0022314639
:1048A000284601F04DFB00223146284601F082FBEC
:1048B00000223146284601F0B7FB00223146284647
:1048C00001F0ECFB48E03A463146284601F08AFA0E
:1048D0003A463146284601F0BFFA3A463146284664
:1048E00001F0F4FA3A463146284601F029FB3A46EF
:1048F0003146284601F05EFB3A463146284601F033
:1049000093FB3A463146284601F0C8FB24E03A467C
:104910003146284601F066FA3A463146284601F00B
:104920009BFA3A463146284601F0D0FA3A463146DB
:10493000284601F005FB3A463146284601F074FB53
:104940003A463146284601F0A9FB00223146284666
:1049500001F030FB00E000BF00BFF8BDF8B5044631
:104960000D4616461F462300FFF768FA0A06253053
:104970004A647993B2C2E6FE3A463146284601F0CF
:10498000C7FB3A463146284601F0FEFB3A4631461F
:10499000284601F035FC3A463146284601F06CFCC9
:1049A0003A463146284601F0A3FC3A4631462846AD
:1049B00001F0D8FCE2E03A463146284601F0E4FB3B
:1049C0003A463146284601F01BFCD7E03A463146CC
:1049D000284601F09DFB3A463146284601F0D4FBBB
:1049E0003A463146284601F0F7FC3A463146284619
:1049F00001F042FC3A463146284601F079FCBDE020
:104A00003A463146284601F083FB3A46314628466D
:104A100001F0BAFB3A463146284601F0F1FB3A462E
:104A20003146284601F0D8FC3A463146284601F086
:104A300023FCA3E03A463146284601F093FC3A466F
:104A40003146284601F0A0FB3A463146284601F09F
:104A5000D7FB3A463146284601F0BEFC8EE03A4686
:104A60003146284601F07EFC3A463146284601F0A0
:104A70004FFB3A463146284601F0C2FB3A463146E2
:104A8000284601F0A9FC3A463146284601F0F4FBDD
:104A900074E03A463146284601F03AFB3A46314640
:104AA000284601F05FFC3A463146284601F020FCDA
:104AB0003A463146284601F08FFC3A4631462846B0
:104AC00001F09EFB3A463146284601F0D5FB55E001
:104AD0003A463146284601F01BFB3A463146284605
:104AE00001F052FB3A463146284601F089FB45E089
:104AF0003A463146284601F00BFB3A4631462846F5
:104B000001F042FB3A463146284601F079FB3A462D
:104B10003146284601F0B0FB3A463146284601F0BE
:104B2000E7FB3A463146284601F01CFC3A4631463E
:104B3000284601F051FC21E03A463146284601F072
:104B4000E7FA3A463146284601F01EFB3A4631461E
:104B5000284601F055FB3A463146284601F08CFBC9
:104B60003A463146284600E007E001F0FBFB3A46B2
:104B70003146284601F030FC00E000BF00BFF8BD20
:104B800038B5044600205A236822052100901846B3
:104B9000FDF7BCFF632C17D00A212046FBF721FC50
:104BA000CDB20A4B052290212846FFF7D7FE0A21F5
:104BB0002046FBF716FCC4B2002C05D0034B05229F
:104BC0005A212046FFF7CAFE38BD0000FFFF000053
:104BD000F8B504461A492046FCF70AF90746FCF7DF
:104BE000DDF9C6B20A213046FBF7FBFBCDB2154B0F
:104BF000DC2205212846FFF733FD2046FCF7CEF9DD
:104C0000C6B20A213046FBF7ECFBCDB20D4BDC22DD
:104C10002D212846FFF724FD0949204602F052F9CC
:104C20000746FCF795F906460A21FBF7DAFBCDB2F9
:104C3000044BDC225A212846FFF712FDF8BD000084
:104C400000002041FFFF0000F8B506463046FCF7A3
:104C5000A5F80446354A364B02F0D6F831D200208A
:104C600040232422DC210090A520FDF74FFF0020E7
:104C700040232422DC210090CD20FDF747FF0020B7
:104C800040232422DC210090FA20FDF73FFF294831
:104C900007231022F8210090AF20FDF737FF2548A9
:104CA00007231022F8210090D720FDF72FFF21487D
:104CB00007231022F8210090FF200530FDF726FF82
:104CC00033E01D493046FCF793F80746FCF766F9D8
:104CD000C5B20A212846FBF784FBCCB2154BDC2277
:104CE000A5212046FFF7BCFC3046FCF757F9C5B2BA
:104CF0000A212846FBF775FBCCB20E4BDC22CD21F6
:104D00002046FFF7ADFC0C49304602F0DBF80746C1
:104D1000FCF71EF904460A21FBF763FBCDB2054BF5
:104D2000DC22FA212846FFF79BFCF8BD9A99999955
:104D300099F95840FFFF0000000020410FB585B0F1
:104D4000059869287ED019DC56287CD00EDC4E28C8
:104D50007AD006DC412878D04C2877D04D2876D1FF
:104D600018E24F2874D05328F9D1F3E361380300D7
:104D7000FFF764F806196DA9C5EAFE6D6A380D28BB
:104D800065D243007B449B885B009F44BD0160006B
:104D9000F8013A02E40228034E036000E403A5048C
:104DA0004C057E059C05022207990F310698801C50
:104DB000089BFFF71FF80898022308220090079924
:104DC0000E310698C01CFDF7A1FE08980A230322A5
:104DD00000900799103106980930FDF797FE089862
:104DE000032306220090079913310698C01CFDF793
:104DF0008DFE089802230822009007991931069821
:104E0000401CFDF783FE089801231A46009007997D
:104E100016310698C01CFDF779FE04220799163159
:104E2000089B0698FEF7E6FF0422079915310698BD
:104E3000401C089BFEF7DEFF0522079914310698F7
:104E4000801C06E032E1FDE32CE216E084E1FAE3A7
:104E50009EE2089BFEF7CEFF0222079919310698C1
:104E60000C30089BFCF734FF052207991A3106988D
:104E70000A30089BFCF72CFF6CE2089803230F22F2
:104E8000009007990698FDF741FE08981823032221
:104E900000900799C91C0698FDF738FE089818235A
:104EA000032200900799C91C06980C30FDF72EFECE
:104EB000089803230922009007990C310698C01C1A
:104EC000FDF724FED8E7089803230C2200900799E9
:104ED00009310698FDF71AFE089803230C2200906A
:104EE000079918310698FDF711FE08980C23032244
:104EF000009007990C310698FDF708FEBCE708986A
:104F000003230C22009007990698FDF7FFFD0898EF
:104F100003230C220090079918310698FDF7F6FD3F
:104F200008981523032200900799C91C0698FDF7DD
:104F3000EDFD08981523032200900799C91C0698D7
:104F40000C30FDF7E3FD97E7052207990C31069831
:104F5000401D089BFCF7BCFE092207990D310698FD
:104F6000C01C089BFCF7B4FE042207990E3100E038
:104F700081E00698801C089BFCF7AAFE0422079992
:104F80000E3106980930089BFCF7A2FE0322079910
:104F90000F310698401C089BFCF79AFE03220799E4
:104FA0000F3106980B30089BFCF792FE03220799FD
:104FB0001031089B0698FCF78BFE032207991031ED
:104FC00006980C30089BFCF783FE08980623022203
:104FD0000090079911310698FDF798FD0898042371
:104FE000022200900799113106980D30FDF78EFDD1
:104FF000089802230B220090079913310698801C11
:10500000FDF784FD0222079915310698801C089B44
:10501000FEF7F0FE0322079917310698401C089B03
:10502000FCF756FE02220799173106980D30089BAF
:10503000FCF74EFE0322079918310698801C089B46
:10504000FCF746FE03220799183106980C30089B9E
:10505000FCF73EFE0B22079919310698C01C089BED
:10506000FCF736FE092207991A310698001D089BA5
:10507000FCF72EFE00E7089803230F220090079903
:105080000698FDF743FD089803230922009007992D
:105090000C310698FDF73AFD08981823032200907A
:1050A0000799C91C0698FDF731FDE5E6089802232B
:1050B0001A4600900799891D0698801DFDF726FD68
:1050C000082207990C310698401C089BFCF700FE4B
:1050D000072207990D310698801C089BFCF7F8FD04
:1050E00008980B230222009007990E310698C01DE4
:1050F000FDF70CFD089802230F2200900799193143
:105100000698FDF703FDB7E60898032309220090EF
:105110000698801D0799FDF7F9FC089815230322CE
:1051200000900799C91C06980930FDF7EFFC089814
:1051300003231A460090079915310698C01CFDF705
:10514000E5FC089803231A46009007991831069841
:10515000801DFDF7DBFC8FE608981B2303220090DF
:1051600007990698FDF7D2FC089803230C220090BB
:10517000079918310698C01CFDF7C8FC7CE6089812
:1051800010230222009007990B310698801DFDF72D
:10519000BDFC71E608981B2303220090079906982E
:1051A000FDF7B4FC08981B230322009006980C30EE
:1051B0000799FDF7ABFC002004901EE00798401C07
:1051C0000499401803900698C01C401802900622CB
:1051D000089B0399FEF70EFE0798401C049940189F
:1051E000039006980B30401A02900622089B039900
:1051F000FEF700FE0498401C049004980528DDDBAF
:105200003AE6089802230722009007991031069881
:10521000FDF77CFC089802230522009007991031C5
:1052200006980830FDF772FC0322079912310698A0
:10523000401C089BFEF7DEFD042207991A31089BEB
:105240000698FCF745FD032207991A310698C01D00
:10525000089BFCF73DFD032207991A3106980C3094
:10526000089BFCF735FD0898072302220090079958
:1052700013310698401CFDF749FC089809230222C7
:105280000090079911310698C01DFDF73FFC089862
:105290000923022200900799113106980C30FDF77E
:1052A00035FCB8E308981B23032200900799069861
:1052B000FDF72CFC08981B230322009006980C3065
:1052C0000799FDF723FC0020049028E0089800903F
:1052D0000498410041180798C01C081803900698CC
:1052E000C01C049940180323022202900399FDF781
:1052F0000DFC08980090049841004118079815305B
:10530000401A039006980A300499401A0323022297
:1053100002900399FDF7FAFB0498401C049004984E
:105320000328D3DB022207990C310698801D089BC5
:10533000FEF760FD032207990C310698C01D089BFB
:10534000FEF758FD022207990D3106980830089B98
:10535000FEF750FD5FE3089803230F2200900799A2
:105360000C310698FDF7D2FB08980C23032200901D
:1053700007990F310698FDF7C9FB08980C23032203
:10538000009007990F3106980C30FDF7BFFB42E300
:1053900008980323092200900698C01C0799FDF77E
:1053A000B5FB089803230922009007991831069845
:1053B000C01CFDF7ABFB089815230322009007994A
:1053C000C91C0698FDF7A2FB08981523032200903C
:1053D0000799C91C06980C30FDF798FB1BE3089849
:1053E00003230F22009007990C310698FDF78EFBDE
:1053F000089803230F220090079918310698FDF7AB
:1054000085FB089809230322009007990F3106981D
:10541000FDF77CFB089809230322009007990F31C0
:1054200006980C30FDF772FBF5E20422079909316A
:10543000089B0698FCF74CFC08980F23022200906A
:1054400007990A310698801CFDF760FB089807232E
:105450000B220090079919310698FDF757FB03229C
:1054600007990A310698001D089BFEF7C3FC0898AF
:1054700002231A460090079909310698401DFDF74E
:1054800045FB0898022303220090079908310698EB
:10549000C01DFDF73BFB089802231A4600900799B0
:1054A000093106980A30FDF731FB022207990A31CB
:1054B00006980C30089BFEF79DFC022207991131DB
:1054C0000698001D089BFEF795FC022207991231F1
:1054D0000698401D089BFEF78DFC089802231A468B
:1054E0000090079913310698801DFDF70FFB0122EC
:1054F0000799143106980830089BFEF77BFC089842
:1055000002231A4600900799133106980930FDF7D7
:10551000FDFA02220799133106980B30089BFCF71D
:10552000D7FB04220799123106980C30089BFCF730
:10553000CFFB072207990B3106980D30089BFEF729
:1055400059FC052207990C3106980E30089BFEF78E
:1055500051FC60E24DE00898022305220090079973
:105560000C310698401CFDF7D1FA08980B23022253
:10557000009007990E310698001DFDF7C7FA0898AC
:1055800002230B220090079919310698FDF7BEFA05
:10559000022207990F310698801D089BFEF72AFC0E
:1055A000089802230322009007990E310698C01D27
:1055B000FDF7ACFA089802231A46009007990D31BE
:1055C00006980830FDF7A2FA0898022304220090FA
:1055D00007990C3106980A30FDF798FA08980223CB
:1055E0001A46009007990D3106980D30FDF78EFA96
:1055F00011E2089803230D2200900698801C079959
:10560000FDF784FA089803230B22009007990C31C8
:105610000698801CFDF77AFA089803230D22009063
:10562000079918310698FDF771FA08980B230322A1
:1056300000900799891C0698FDF768FA08980B23D3
:10564000032201E070E1E5E1009007990E31069830
:105650000C30FDF75BFA01220799491C0698401CA3
:10566000089BFCF735FB01220799C91C0698C01C52
:10567000089BFCF72DFB012207990D310698401C71
:10568000089BFCF725FB012207990B310698C01CEB
:10569000089BFCF71DFB012207990D3106980D3080
:1056A000089BFCF715FB012207990F3106980B3078
:1056B000089BFCF70DFB01220799173106980B3068
:1056C000089BFCF705FB01220799193106980D305C
:1056D000089BFCF7FDFA9EE1022207990E31089B18
:1056E0000698FEF787FB042207991531089B069858
:1056F000FEF780FB0222079916310698401C089B92
:10570000FEF778FB0322079916310698801C089B48
:10571000FEF770FB0322079917310698C01C089BFF
:10572000FEF768FB0322079918310698001D089BB5
:10573000FEF760FB089802230522009007991931B3
:105740000698401DFDF7E2F90122079919310698E4
:105750000A30089BFEF74EFB022207991931069882
:105760000B30089BFCF7B4FA03220799183106980E
:105770000B30089BFCF7ACFA032207991731069807
:105780000C30089BFCF7A4FA08980523022200902D
:105790000799123106980D30FDF7B8F908980223E1
:1057A0000C220090079911310698801CFDF7AEF984
:1057B000089805230222009007990D310698401C95
:1057C000FDF7A4F9089802231A46009007990C31B6
:1057D0000698801CFDF79AF908980223072200908A
:1057E00007990B310698001DFDF790F908980223E0
:1057F0000322009007990C3106980B30FDF786F9CB
:10580000089802231A46009007990E3106980C302A
:10581000FDF77CF9012207990B3106980D30089BA2
:10582000FCF756FAF7E00898112302220090079936
:1058300008310698C01CFDF769F90D2207990D3152
:10584000089B0698FCF744FA042207991931069838
:10585000001D089BFCF73CFA072207991A310698AD
:10586000401D089BFCF734FA042207991931069869
:105870000A30089BFCF72CFA022207991831069887
:105880000C30089BFCF724FAC5E008980F2303228C
:10589000009007990C310698FDF738F908980F2306
:1058A0000322009007990C3106980C30FDF72EF971
:1058B0000898032309220090079918310698C01C04
:1058C000FDF724F9A7E00020049021E004984100AE
:1058D00007980A3008180390049906984018029017
:1058E0000422089B0399FEF785FA04984100079863
:1058F0000A300818039006980E300499401A029056
:105900000422089B0399FEF775FA0498401C049042
:1059100004980728DADB0322079918310698C01D7E
:10592000089BFEF767FA76E00898052302220090AC
:105930000799091D0698FDF7E9F808980523032241
:1059400000900799C91D0698401CFDF7DFF80898DC
:1059500006230322009007990B310698801CFDF75F
:10596000D5F808980423032200900799103106986F
:10597000C01CFDF7CBF80898042303220090079978
:1059800013310698001DFDF7C1F8089804231A4644
:105990000090079916310698401DFDF7B7F80322CD
:1059A00007991A310698801D089BFCF791F9089811
:1059B0000523022200900799091D06980D30FDF776
:1059C000A5F808980523032200900799C91D069899
:1059D0000B30FDF79BF808980623032200900799E7
:1059E0000B3106980A30FDF791F80898042303223A
:1059F00000900799103106980930FDF787F808984C
:105A00000423032200900799133106980830FDF70C
:105A10007DF800E000BF00BF09B000BD38B5044606
:105A200000205A23682205210090CF20FDF76EF850
:105A3000632C16D00A212046FAF7D3FCCDB2094BCD
:105A40000522FF2106312846FEF788FF0A2120465D
:105A5000FAF7C7FCC4B2034B0522CF212046FEF75C
:105A60007DFF38BDFFFF000038B5044600201B2332
:105A70004B22452100900820FDF748F82300FEF74F
:105A8000DDF90DFC08213A536C7F98B1CAE3FBFAAB
:105A9000FC00964B452208216A20FFF74FF9934BF3
:105AA00045221C216120FFF749F9904B4522302106
:105AB0006E20FFF743F98D4B452244217620FFF7F6
:105AC0003DF911E1894B452208216620FFF736F99F
:105AD000864B45221C216520FFF730F9834B452278
