:020000041004E6
:1000000000600020011D0410471B0410CD160410D1
:10001000AA5555AA45554C420000000000000000BA
:100020000000000000000000000000002D2504106A
:100030000000000000000000FD1C0410412E041010
:1000400045140410F91C041000000000000000001A
:10005000692F0410B52304108D110410C73104104A
:100060000000000000000000000000000000000090
:1000700000000000DD100410D3160410D116041087
:10008000000000003F1B0410411B0410431B041020
:10009000451B0410C51D0410FB1C0410091204109C
:1000A0000000000000000000000000000000000050
:1000B0000000000000000000000000000000000040
:1000C00000F002F800F08EF80CA030C808382418B0
:1000D0002D18A246671EAB4654465D46AC4201D180
:1000E00000F080F87E460F3E0FCCB6460126334224
:1000F00000D0FB1AA246AB46334318475C640000AD
:10010000FC640000103A02D378C878C1FAD85207CC
:1001100001D330C830C101D504680C6070470000BD
:100120000023002400250026103A01D378C1FBD813
:10013000520700D330C100D50B607047EFF3148233
:10014000EFF309811C4880F31488BFF36F8FF0B57B
:1001500043464C4655465E466746F8B4174CEFF3A7
:100160000883236006B4164C2068164C2060164C99
:100170002068164C2060164C2068164C2060164CE7
:10018000276800202060BFF34F8F30BF27600B4CE3
:10019000246884F3088882B003BCF8BC9846A14662
:1001A000AA46B346BC46F0BC04BC80F3098881F380
:1001B0001488BFF36F8F1047000000000800002074
:1001C00004ED00E0FC02002024ED00E0000300202C
:1001D00000E200E004030020080020401FB51FBD1E
:1001E00010B510BD03488546FFF7F8FF05F05CF930
:1001F00000F018FF0060002003B4FFF7F1FF03BC1C
:1002000000F048FF70B505460C46164602E00FCCDC
:100210000FC5103E102EFAD2082E02D303CC03C510
:10022000083E042E07D301CC01C5361F03E0217818
:100230002970641C6D1C761EF9D270BD0FB405497F
:1002400010B503AA029800F007FE10BC08BC04B069
:1002500018470000E4020020002203098B422CD33F
:10026000030A8B4211D300239C464EE003460B4306
:100270003CD4002243088B4231D303098B421CD368
:10028000030A8B4201D394463FE0C3098B4201D35A
:10029000CB01C01A524183098B4201D38B01C01A92
:1002A000524143098B4201D34B01C01A5241030909
:1002B0008B4201D30B01C01A5241C3088B4201D3B8
:1002C000CB00C01A524183088B4201D38B00C01A65
:1002D000524143088B4201D34B00C01A5241411A8C
:1002E00000D201465241104670475DE0CA0F00D06F
:1002F0004942031000D34042534000229C46030968
:100300008B422DD3030A8B4212D3FC22890112BAED
:10031000030A8B420CD3890192118B4208D38901C5
:1003200092118B4204D389013AD0921100E08909DD
:10033000C3098B4201D3CB01C01A524183098B42BE
:1003400001D38B01C01A524143098B4201D34B01A7
:10035000C01A524103098B4201D30B01C01A52410A
:10036000C3088B4201D3CB00C01A524183088B4291
:1003700001D38B00C01A5241D9D243088B4201D31A
:100380004B00C01A5241411A00D201466346524105
:100390005B10104601D34042002B00D54942704704
:1003A00063465B1000D3404201B50020C046C04602
:1003B00002BD00000246C80FC00781434B0030B5A4
:1003C0004B405B009B0D20D01923DB06C91801238D
:1003D0001B05994220DB0324A40704251346AB40E8
:1003E0000BD3002B04D1EB0613409B00E34204D453
:1003F00001246407002312195941FF231B05994268
:100400000BD2C9000143500F09E0CB0204D50143D0
:100410000803024305D0054830BDFF21C905084344
:1004200030BD084607210905884330BD0000C07F64
:10043000F0B50C46871A9C410D46861A9D4103D2A1
:10044000C01BA141D21963410D0D1F0DC94EEC1BFC
:10045000AE435CD07F057F0D0026002F51D02D05C7
:10046000AC46A943DD020123ED0A1B051D432023F1
:100470001B1B24D41746E740381871412F46E7402C
:10048000CC199D402818314661410C0D27D161449B
:100490009A4013D50023401C594152000ED1400808
:1004A000400001224B005205D34207D305204007EC
:1004B000C14201D5B04900E0B0493046F0BD6B0003
:1004C000002A00D001229A181F23203C1B1B01D5B3
:1004D000002302E0E540281871410C0DD7D001241B
:1004E00024050919C407CD0740084908E40F28432B
:1004F0006144002CD5D00024401C61419A40D0D1E9
:10050000CDE76A05520DD9D1C90FC907D5E79C4D72
:100510004E00002801D0012400E0002434195F00BF
:10052000002A01D0012600E00026BE19954FAC42FA
:100530000CD8AE420AD8B44206D001256D05EC4273
:10054000BCD010461946F0BD9942FCD00020394677
:10055000F0BDF0B51FB40C460F46811A9F412546E9
:10056000861A9D4106D20125ED076F40401ABC4115
:1005700052187B41210D1E0D8D1BAC467D4D8D43C8
:100580007ED075056D0D7CD00D05AE46AC431B03CA
:100590001B0B794D52429D41202366469B1B14D371
:1005A0001746F740381800260090744160462F46E1
:1005B0000741E41900989D402818664116D47146F9
:1005C00071189A4025D5012320E093182A466A41E4
:1005D0005200002B00D0521C1E23203E9B1B002BE0
:1005E00061DD3541EE1728186641E8D500187641DF
:1005F0005B1C9A4000D3401C4B05F3181524E340C4
:1006000010D3002B52D071467118D30FC01802D3EB
:10061000491C05B0F0BD0123DB079A42F9D140081F
:100620004000F6E701225205B21801D1002853D04C
:100630000123CC0ADB029943891E002A08D1020C4F
:1006400003D0020C0004103902E0024600202039D9
:100650000023550B05D112020823550B01D152017D
:100660000D23550C01D112011B1DD50C01D1920097
:100670009B1C150D01D152005B1C2025EE1A01E0D8
:100680002CE022E00546F54015439840CA1AE107E0
:1006900069181305C918002ABBDA03204007081897
:1006A000C10FC9070FE071466118B2E7F1074008B2
:1006B0000843711071444A000CD001235B059A4233
:1006C000A7D2C90FC9070020A3E74905490D26D1C4
:1006D000002001E00028F4D100219AE7284D6600AF
:1006E000002801D0012100E0002171185F00002ADC
:1006F00001D0012600E00026BE19224FA94210D8E1
:10070000AE420ED8B14208D001256D05E94206D0AF
:100710001946A802414010467BE79C4201D0214681
:1007200077E70020394674E710B50C465C4005D5E4
:100730000124E4076340FFF70CFF10BDFFF778FECC
:1007400010BD30B40C465C4004D50124E40763407E
:1007500030BC6DE630BCFCE670B50124E4076140B6
:100760000D465D4002D4FFF763FE70BD6340FFF7A6
:10077000F0FE70BDFF0700000000F0FF0000F07FFA
:100780000000E0FF0000F87FF0B5F94D0C091E09EC
:100790002C402E402F468BB0A7437DD0B543FCD0D4
:1007A000002E7AD0002CFCD00D465D40ED0F254385
:1007B000AC1BFF25AD0464190894C502440DC902A1
:1007C0002143500DDC0204430120C00701430443D0
:1007D000D2020191200C110C00958C460104234695
:1007E0008B430A9161460904E24D8A430991010A4B
:1007F0007D4449198039097805464D4301266D1815
:10080000F605751B6943C90C640B891C4C436418BD
:10081000B5012C1B250C2E04B4434C434D43210C35
:10082000691889090591009DE90701D00121C907CF
:1008300004912C4601996708CD072F434C08059D6C
:10084000E10B4D432D0C29466646754302950D4636
:1008500045432E46029D7D1BB44100950D465D43E8
:1008600001942C0C2F040D465543AE462D0C3D43F0
:10087000029503947546049C2D04641B049406D2CF
:10088000029C039D641C002675410395029401ACF3
:1008900070CC009F7D1B01E03EE162E1B4410904A0
:1008A0000095079101940599A4086143090C0C4631
:1008B0004443650BE7040C4666467443A646640B46
:1008C0003C43039502947446049DE4042C1B049459
:1008D00006D2029C039D641C002675410395029478
:1008E00001AC70CC009F7D1BB44101940C465C436D
:1008F0000095650FE7000C465443A646640F3C4341
:10090000039502947446049DE4002C1B049406D2C3
:10091000029C039D641C002675410395029401AC62
:1009200070CC009F7D1BB441AE09AF06049DC90089
:10093000AD092F43049DA406AD060495079D3443DD
:1009400069180791059DE10B4D432D0C294666461C
:10095000754302950D4645432E46029D7D1BB441CD
:1009600000950D465D4301942C0C2F040D46554314
:10097000AE462D0C3D43029503947546049C2D0410
:10098000641B049406D2029C039D641C00267541DE
:100990000395029401AC70CC009F7D1BB44101947F
:1009A0008C050694079C890A611800950791019CA3
:1009B0000599A4086143090C0D464543680BEF04F3
:1009C0000D46644665436C0B3C43049FED047D1B60
:1009D000AC4602D20025641C6841009E019D371B75
:1009E00085410846584301950C46460FC5005443BF
:1009F000600F28436546E4002C1B02D20025401CF2
:100A00006E41019D3F1AB5412846BD098006284325
:100A10008446A009BF064E020699A406761807432D
:100A2000079D002068410A99079019430020099BFF
:100A300000906046FF1913434041E20F64003A43BF
:100A4000A4460446D71A8C41A04203D90120009045
:100A500020463A46C70F941840416246D20F2243BF
:100A6000644664000494009CBE466400D71AA44601
:100A7000044602978C417746002F01D1A04204D949
:100A80006046401C8446029A2046C40FA64694182D
:100A90004041049A0546D20F224364466400D31AAB
:100AA0008D417146002901D1A84202D928461A4633
:100AB000641C10430122002800D01643610200206C
:100AC000079B891904465C410223002C02DB49186C
:100AD00013466441089DCE0A2D145D194B05670528
:100AE000E10A2C050D1908993E43C9076940002BFE
:100AF00008D0934006D30022761C5141002B01D12F
:100B0000760876001C4A002D43DB154241D0AA43EB
:100B10003FD030460BB0F0BD06180D464D41174C86
:100B20007642AC411AD395181C465C41134A6D427B
:100B3000A24113D3012252054C00D4420AD15C00D9
:100B4000D4420BD04B4002D592021143E2E7490058
:100B50004908DFE75940C90FC90718E000200849D4
:100B6000D8E7054801420DD10342F7D0F2E7000073
:100B70000000FF07A45C00000000F07F0000E0FF21
:100B80000000F87F114859400143C0124140002045
:100B9000C0E70123089A9B069A4205DC032252070C
:100BA0008918C90FC907B5E7052252078918074AEE
:100BB0001143D2125140ADE770B515461C460246AE
:100BC0000B4628462146FFF7DFFD70BDFFFFFF7F84
:100BD0001F22030C02D10F22000402D0030E03D007
:100BE00004E00020014670470002083A030F01D1DB
:100BF0000001121F830F01D18000921E002801DB2B
:100C00004000521E120551184205C01241181046EC
:100C10007047C10FC90700D040420122920711431B
:100C2000D6E701218907D3E70121C905012341182E
:100C300042001B06D3185B0E0AD0C1100722D20651
:100C4000891840075242D14201D552008918704795
:100C5000090208D50146002A03D0C10FC9070020A8
:100C6000704710467047420202D000200249704788
:100C7000072109050143F4E70000F87FF0B5FF25DF
:100C80002D04C609C209FF2704462E400137CB09AF
:100C90003E4348402A402B400746002A6BD0002B99
:100CA00069D0AA4267D0AB4265D0002800DA32464C
:100CB0000125ED0529432C4309022002090AD21A15
:100CC0004B0C7F24E31A434C000A7C44E35C7D24F4
:100CD0002404121914145B00A218884201D3521C78
:100CE00000E0400049420C465C4324115C43DB01B8
:100CF0006415E318040A5C43C502200D0C46444306
:100D00006419250A5D432303EC0C0D46654300037B
:100D10000019EB184C42A34201D35B18401CD405C8
:100D20002018002B07D05B00C91804D3401C0029F1
:100D300001D1400840003F2189048A4209D3002A9A
:100D400008DC1106090F04D0032149074018C00F21
:100D5000C007F0BD01224100120689187F22520609
:100D60009142F6D205214907C84201D59010F0BD45
:100D7000FF20C005F0BD002F00DA32461648AA4217
:100D800007D2AB4205D21902090E17D0F80FC007DF
:100D9000F0BDFF2563002D06AB42F9D84900A942FA
:100DA000F6D8AB4201D1A942F2D0A94201D100212B
:100DB00001E061004908D0050843F0BD1102090EA9
:100DC000FBD0FF200243D005F0BD0A460146104685
:100DD00054E700004A5800000000C07F10B50146EB
:100DE0009E240002CA15A307002A02D01843002A35
:100DF00004DBA21A002A0CDDD04010BD1206120E30
:100E000001D140004008A21A03D4D040404200283B
:100E1000F3DDFF2248001206904201D9002010BDE8
:100E2000C817C043584010BD0102C21504D00123A9
:100E3000DB071943002A0ADB9E239A1A02D40846CC
:100E4000D0407047FF2241001206914201D9002094
:100E50007047C017C0437047084B70B50D467B44C0
:100E600000F08DF80446284600F09CF8002802D0D7
:100E70000020C04370BD204670BD00003746000012
:100E8000F8B5224C4E00069DA6420AD8A64201D1D2
:100E9000002806D15E00A64203D8A6420AD1002A45
:100EA00008D00D24240425422CD02946002000F02F
:100EB0007DF8F8BD0C461C430CD4994202D0EFF3E8
:100EC0000080F8BD904202D0EFF30080F8BDEFF350
:100ED0000080F8BD09242407E5008B4206D0EFF31B
:100EE0000080A043591A06D2284304E0101A05D303
:100EF000EFF30080A04380F30088F8BDEFF300809B
:100F0000A043F1E7009500F069F8F8BD0000E0FFAC
:100F100010B5FF231B0644009C421DD84C009C4288
:100F20001AD80346124A0B4307D4401A02D3EFF3F0
:100F3000008010BDEFF3008010BD081A06D2EFF359
:100F4000008001219043C907084302E0EFF30080CD
:100F5000904380F3008810BD0D231B041A4204D077
:100F60001146002000F022F810BD00F041F810BD3D
:100F70000000009001694A1C02610878704700B5C2
:100F80008FB00291002105910549019379440391A5
:100F900011460490684600F033F80FB000BD000021
:100FA000E5FFFFFFC068802108407047C80212D5E6
:100FB0004803400F002804D0C803C04301218840E3
:100FC0007047EFF30080000100090321090708437F
:100FD00080F30088704700207047000010B50020A3
:100FE0000249029A00F026F810BD00000000F87FC8
:100FF00010B5024800F01EF810BD00000000C07FD0
:10100000F8B5064600244768806800903046F568C9
:1010100003E00099B847641C3046A8470028F8D17F
:101020002046F8BD10B50446C046C0462046FFF72E
:10103000E3F810BD10B50C461107090F092904D0BB
:101040000A290AD008290CD104E011460820FFF72C
:10105000ADFF06E0510606D501E0510601D501209D
:10106000C007214610BDD10607D501010909CC08EA
:101070004907000E0006044309E0410F200249071A
:10108000000A0143200E00061D22D14101430846FB
:10109000E7E7000001491820ABBEFEE7260002008A
:1010A000704730B58C180278401C13071B0F01D114
:1010B0000378401C120906D10278401C03E0057831
:1010C000401C0D70491C5B1EF9D101E00B70491CDE
:1010D000521EFBD1A142E6D3002030BD7047F8B5C7
:1010E00004460D4616461F462A2000F014FD210432
:1010F000080E00F01AFDE0B200F017FD3104080EF2
:1011000000F013FDF0B200F010FD2B2000F003FD05
:101110002904080E00F009FDE8B200F006FD3904CC
:10112000080E00F002FDF8B200F0FFFC2C2000F0E9
:10113000F2FCF8BD10B50146002004E0114A125C33
:10114000521C1218D0B20F4A125C002AF6D1C21CEF
:10115000202A0CDA02220B4B1A543523094C421C6C
:10116000A3542346821C99540023C21CA354022278
:10117000054B1A7035225A701A4691700022DA70A7
:1011800010BD0000780300201C00002010B50920CD
:10119000C00604680120C0032040002801D000F0F0
:1011A0005BFA0920C006046010BD000010B50A4CAF
:1011B0000A48844200D90EE02002000A401E084975
:1011C00048610321081F00F0E3FC00200449886106
:1011D0000720086100BF10BD7F3E0000FFFFFF0039
:1011E00000E000E00148006870470000CC020020E9
:1011F00000B50146FFF7F6FF024600BFFFF7F2FF1A
:10120000801A8842FAD300BD70470000F0B58BB059
:1012100005460E461C224EA16846FEF7F3FF07A8BE
:1012200000F0E4F9002D73D04021684681734C2111
:10123000C17220210172B22141745B2101754B48BA
:10124000846A200C4A4988420BD16846C17D7020CF
:1012500081436846C175C07D6107490E08436946F0
:10126000C8754248446A200C414988420BD16846FF
:10127000417930208143684641714079A107890E48
:1012800008436946487139484038046B200C384996
:1012900088420BD16846C07D810889006846C175C7
:1012A000C07DA107890F08436946C8756846C17AA1
:1012B000042001436846C172407F00016946897F6E
:1012C000084312280ADB6846C17D04208143684632
:1012D000C175C07D0A900A98FFF72CFF684680B25E
:1012E0000121090408430921C906C86000BF09207B
:1012F000C006C0680121090408400028F7D16946EA
:10130000487F0001897F0843122801DB01F0E6FCD9
:1013100000BF1848008B0028FBD001201549088326
:101320001720888100200861002E0BD00920C006FC
:10133000076900BF0920C006006910210840394034
:101340008842F7D00C480D4908600BB0F0BD000092
:10135000023F00023E30023C20023B4C023A400277
:1013600039B202345B02350B00000000C0070010E8
:1013700055AA000000001048CCBCECFC1400002072
:101380000121890788627047002907D0012292074E
:10139000D269024301239B07DA6106E0012292072A
:1013A000D269824301239B07DA61704741680129B2
:1013B00007D1890709690268114301229207116167
:1013C00007E0012189070969026891430122920718
:1013D0001161816801290ED1890789690268114369
:1013E00001229207916111464969026891430122E5
:1013F000920751611AE0816800290FD10121890704
:1014000089690268914301229207916111464969F5
:101410000268914301229207516107E00121890787
:1014200049690268114301229207516170470146E0
:1014300001208007406A0840002801D00120704741
:101440000020FCE710B50120C002FFF7F0FF0128E3
:1014500007D1C002FFF794FF09480068401C084903
:1014600008602020FFF7E3FF012807D12020FFF7C5
:1014700087FF04480078401C0249087010BD000036
:10148000100300200C03002070B5014600220A79E9
:101490000879002808D10120800740680C68A04323
:1014A0000124A40760600BE00879062808D1002217
:1014B0000120800740680C6820430124A407606075
:1014C000002058E00C68C440E307DB0F002B50D02D
:1014D00008280EDA0124A407E46A86000F25B54027
:1014E000AC4386001546B5402C430125AD07EC62A0
:1014F0003FE0072814DD102812DA0124A407246B2A
:101500000546083DAE000F25B540AC430546083DF5
:10151000AE001546B5402C430125AD072C6328E0ED
:101520000F2814DD182812DA0124A407646B05467D
:10153000103DAE000F25B540AC430546103DAE0052
:101540001546B5402C430125AD076C6311E0172803
:101550000FDD1D4C248B0546183DAE000F25B54010
:10156000AC430546183DAE001546B5402C43164D1C
:101570002C83441CE0B21A28A4DB4879012807D147
:101580008007C0680C6820430124A407E06007E0DE
:1015900001208007C0680C68A0430124A407E06014
:1015A0008879012807D1800780680C6820430124CE
:1015B000A407A06007E00120800780680C68A043B2
:1015C0000124A407A06070BD20000040014908600C
:1015D000704700004000004001218907C863704740
:1015E00000210160017181714171704710B5154989
:1015F000154A144B283BDB691B061B0F4370114B2C
:10160000283BDB691B071B0F83700B6843600F4C83
:101610004368A34209D113680D4CA34202D10423AD
:10162000037004E00223037001E001230370437898
:10163000002B01D101234370064B9B8A5B1C9B004E
:10164000836010BD280090401C00001041A00002E3
:1016500044A000F20000104010B50120000701F086
:101660004FFC0848007C401C0649497C884202D156
:101670000448007C02E00348007C401C01490874D7
:1016800010BD000020030020FFB581B006461446BF
:101690001D460220FFF79AFF2C2000F03CFA321979
:1016A000029B19463046FFF71AFD012707E029047F
:1016B000080E00F03AFAE8B200F037FA7F1CA742B1
:1016C000F5D90220FFF788FF05B0F0BD00BFFEE7A7
:1016D000704770470A884B885B001A438B881A430F
:1016E000CB881A430B891A434B89DB031A43C26028
:1016F000704781637047017470470168802291438D
:101700008031016070470246106B0840002801D00C
:10171000012070470020FCE7014648690007800F60
:1017200070470000F8B504460D46206840084000A8
:101730002060206803214903884369794903032213
:101740005203114008432060687940002A490F5A2B
:101750002868784329490E1A2949286888420FD8F1
:10176000286841003046FEF777FD064620683021A4
:1017700088432060606880B209034018606015E00B
:1017800020492868884211D82868420081183046CC
:10179000FEF762FD06462068302188431030206045
:1017A000606880B201214904401860606068800A66
:1017B0008002E98808436060208DB1B221852068ED
:1017C00006218843297949000622114008432060F8
:1017D000287A012805D12068082188430830206034
:1017E00003E020680821884320602068400840000A
:1017F000401C2060F8BD0000D00200200024F4004E
:10180000A0860100801A06000146087E704700008D
:1018100003490160002101714171C180017270476B
:1018200088130000014608680006C00F002801D098
:10183000012070470220FCE700B587B0012108466F
:1018400001F0EEFA41204001059000216846017642
:101850008176417605A8FFF717FE002168460174DE
:10186000032141740121817404A800F06DF9012065
:10187000C002019000200290039001A8FFF796FD9E
:10188000202001900020039001A8FFF78FFD412048
:101890004001FFF775FD012141204001FFF774FD74
:1018A00007B000BD70B504460220FFF78FFEFF238E
:1018B000E133FF22413200210846FFF710FC0025EA
:1018C0000EE0002607E02104080E00F02EF9E0B239
:1018D00000F02BF9761CFF20E1308642F3D36D1C1B
:1018E000FF2041308542ECD30220FFF775FE70BD2A
:1018F00010B54020FFF770FE0520FFF779FC40206F
:10190000FFF764FE0F20FFF773FC4020FFF764FE33
:101910000F20FFF76DFC0220FFF758FEF02000F0CB
:10192000FAF8C32000F001F9F02000F0F4F8962056
:1019300000F0FBF8362000F0EEF8682000F0F5F833
:101940003A2000F0E8F8052000F0EFF8B02000F0B1
:10195000E2F8802000F0E9F8B62000F0DCF8002082
:1019600000F0E3F8022000F0E0F8B52000F0D3F832
:10197000022000F0DAF8032000F0D7F8002000F091
:10198000D4F8042000F0D1F8B12000F0C4F8802091
:1019900000F0CBF8102000F0C8F8B42000F0BBF83D
:1019A000002000F0C2F8B72000F0B5F8C62000F023
:1019B000BCF8C52000F0AFF8242000F0B6F8E42011
:1019C00000F0A9F8312000F0B0F8E82000F0A3F80A
:1019D000402000F0AAF88A2000F0A7F8002000F0CC
:1019E000A4F8002000F0A1F8292000F09EF81920AA
:1019F00000F09BF8A52000F098F8332000F095F84F
:101A0000C22000F088F8A72000F085F8E02000F060
:101A100082F8F02000F089F8092000F086F8132001
:101A200000F083F8122000F080F8122000F07DF81A
:101A30002B2000F07AF83C2000F077F8442000F0EA
:101A400074F84B2000F071F81B2000F06EF818209D
:101A500000F06BF8172000F068F81D2000F065F822
:101A6000212000F062F8E12000F055F8F02000F0AD
:101A70005CF8092000F059F8132000F056F80C200B
:101A800000F053F80D2000F050F8272000F04DF83A
:101A90003B2000F04AF8442000F047F84D2000F0C9
:101AA00044F80B2000F041F8172000F03EF8172012
:101AB00000F03BF81D2000F038F8212000F035F848
:101AC000362000F028F8482000F02FF8F02000F031
:101AD00022F8C32000F029F8F02000F01CF869205B
:101AE00000F023F8132000F016F8112000F013F88E
:101AF000292000F010F80220FFF76EFD10BD10B590
:101B00000446204600F092FC00BF102000F046FC86
:101B10000128FAD010BD10B5044601208003FFF75C
:101B200055FD2046FFF7EBFF10BD10B50446012020
:101B30008003FFF751FD2046FFF7E1FF10BD70471E
:101B4000704770477047704710B50446A07800286A
:101B500010D06178227850B200F056F82078C10693
:101B6000C90E01208840217849118900074A891847
:101B700008600AE02078C106C90E012088400349A8
:101B80008031227852119200885010BD00E100E0AF
:101B900010B5002819DA1A4A03071B0F083B9B08E7
:101BA0009B00D2588307DC0EFF23A3409A438B0788
:101BB0001B0E8407E40EA3401A43114B0407240FA5
:101BC000083CA408A4001A5118E00E4A03231B0283
:101BD000D21883089B00D2588307DC0EFF23A34052
:101BE0009A438B071B0E8407E40EA3401A43054B50
:101BF000032424021B198408A4001A5110BD0000FC
:101C00001CED00E000E100E010B5002819DA1A4AE6
:101C100003071B0F083B9B089B00D2588307DC0E71
:101C2000FF23A3409A438B071B0E8407E40EA340B7
:101C30001A43114B0407240F083CA408A4001A51AE
:101C400018E00E4A03231B02D21883089B00D258C7
:101C50008307DC0EFF23A3409A438B071B0E8407E8
:101C6000E40EA3401A43054B032424021B198408E5
:101C7000A4001A5110BD00001CED00E000E100E0DE
:101C800010B5002819DA1A4A03071B0F083B9B08F6
:101C90009B00D2588307DC0EFF23A3409A438B0797
:101CA0001B0E8407E40EA3401A43114B0407240FB4
:101CB000083CA408A4001A5118E00E4A03231B0292
:101CC000D21883089B00D2588307DC0EFF23A34061
:101CD0009A438B071B0E8407E40EA3401A43054B5F
:101CE000032424021B198408A4001A5110BD00000B
:101CF0001CED00E000E100E0704770477047000015
:101D000001F070FA012802D1FEF7DAF905E0044883
:101D100080F3088800BF03F0C7FB00BFFEE70000A8
:101D200000600020002808D0084989690122920635
:101D300091438918054A916106E0044989690122A5
:101D400092069143014A9161704700000000F04003
:101D5000002807D00749098A02229143891C054AB5
:101D6000118205E00349098A02229143014A118246
:101D7000704700002000F040114909688906890E6B
:101D800001700F4909680905890E41700C490968FD
:101D9000C903C90E81700A4909680903490FC17056
:101DA00007490968C901C90E017105490968C900D7
:101DB000090F4171024989898904890CC1807047E2
:101DC0000000F0400EB5022000F0ACF8012879D1F7
:101DD000022000F087F801A8FFF7CEFF684640799F
:101DE00039490978884207D06946487902F008FBEA
:101DF00069464879344908706846807933490978DA
:101E0000884207D06946887901F0EEFE69468879F4
:101E10002E4908706846C0792D490978884207D054
:101E20006946C87903F050FA6946C87928490870AC
:101E30006846007A27490978884207D06946087AB7
:101E400001F008FB6946087A224908706846407A22
:101E500021490978884207D06946487A02F0F6FAA3
:101E60006946487A1C4908701C480078002813DD30
:101E700000201A4908701A4808231A461E210090AB
:101E8000C42001F0E7F9164808231A463C210090C7
:101E9000C42001F0DFF914E010480078401C0F491D
:101EA0000870002008231A461E210090C42000F06C
:101EB000D5F8002008231A463C210090C42000F0E9
:101EC000CDF800BF0EBD0000140300201503002054
:101ED0001703002016030020180300200803002029
:101EE0003C58041001490872704700002000F0407F
:101EF00010B5012808D10A4A127F8243CB07DB0FB5
:101F00001A43074B1A7709E0054A127F02239A43C6
:101F10004B00022423401A43014B1A7710BD0000E6
:101F20000000F0400146044800780840002801D035
:101F3000012070470020FCE72000F04008B51A4956
:101F4000098A490849000278D207D20F1143164A7C
:101F500011820021009103E000BF0099491C00910B
:101F60004B22D20000999142F6D30F49098A7F2271
:101F700012019143C26812017F231B011A401143D1
:101F8000094A1182084A203A416851638168916385
:101F90000169D163044A203241691160816951604D
:101FA000C169916008BD00002000F0402A4989689D
:101FB0008909890102789206920E1143264A91609E
:101FC000114689683F2292019143427892013F2352
:101FD0009B011A401143204A9160114689681F22D3
:101FE00012039143827812031F231B031A401143EB
:101FF000194A916011468968072252049143C278B8
:10200000520407235B041A401143134A916011469E
:1020100089681F2212059143027912051F231B05AF
:102020001A4011430C4A916011468968520191434C
:10203000427952060F235B061A401143064A91600B
:102040001146898A890B8903C2889204920C114334
:10205000014A9182704700000000F040FFB581B056
:1020600007460D461E46002406E0291938460A9BFD
:10207000039AFFF709FB641CB442F6D305B0F0BD28
:10208000002811D0164A92B201231B041A430923D7
:10209000DB06DA6000BF0922D206D26801231B04E6
:1020A0001A40002AF7D119E00D4A9178927804235A
:1020B0009A430B4B9A701A4692B201231B041A439F
:1020C0000923DB06DA6000BF0922D206D2680123A9
:1020D0001B041A40002AF7D1014A91707047000092
:1020E0001C000020FEB504460D4600F073FD401EA6
:1020F00080002B490E58012109073046FFF7F9FAF5
:102100000121684601804421418000218180012114
:102110000903C18089000181458100F05BFD401EFB
:1021200080001F490E5869463046FFF7D3FA00BFBA
:1021300000F050FD401E800019490E583046FFF750
:10214000EBFA032801D10120FEBD00F043FD401E43
:10215000800013490E580121C9043046FFF7D3FA15
:102160000028E5D000F036FD401E80000C490E58D6
:102170000C493046FFF7BDFA0AE000F02BFD401E87
:10218000800007490E583046FFF73EFB2070641C64
:102190002846691ECDB20028EFD100BFD4E7000069
:1021A000F0020020000008103EB5044600216846F9
:1021B0000180442141800021818001210903C180E7
:1021C000890001810121418100F004FD401E800051
:1021D00025490D582846FFF790FA00BF00F0FAFC99
:1021E000401E800020490D582846FFF71BFB0128A0
:1021F000F4D000F0EFFC401E80001B490D586946EA
:102200002846FFF767FA00F0E5FC401E80001649FB
:102210000D5821782846FFF76EFA00BF00F0DAFC6F
:10222000401E800010490D582846FFF775FA032814
:1022300001D101203EBD00F0CDFC401E80000A49C6
:102240000D580121C9042846FFF75DFA0028E5D0A2
:1022500000F0C0FC401E800003490D580349284689
:10226000FFF747FA0020E5E7F00200200000081021
:10227000F0B589B004460F4606A800F043F868465A
:10228000007E01026846407E081805906846C07EC0
:1022900001026846007F08180490AF220599514357
:1022A0000846FEF7B6FC05460022134BFEF76CFA13
:1022B0000022124B01910090FEF743FA0391029025
:1022C000FEF778F820607D22049951430846FEF716
:1022D000A0FC05460022084BFEF756FA0022084BE8
:1022E00001910090FEF72DFA03910290FEF762F83B
:1022F000386009B0F0BD0000E0FFEF4000804640CC
:102300000000184038B5044606A0006800906846F2
:10231000FFF74AFF0A20FEF76BFF06212046FFF772
:10232000E1FE38BDE000000000B501E000F078F803
:10233000042000F033F80128F8D000BD0C490978DA
:1023400002229143891C0A4A117002E00849C968B7
:10235000084307498039097BC907C90F0029F5D00F
:102360000349097802229143014A11707047000025
:1023700080004040002807D0074949680222914365
:10238000891C054A516005E00349496802229143CE
:10239000014A516070470000000040400146044877
:1023A000007B0840002801D0012070470020FCE796
:1023B000000040407047000010B50446606800F01F
:1023C0003BF816484068042188432178890004229C
:1023D000114008431149486008460068402188437D
:1023E000A17889014022114008430C490860084641
:1023F000006880218843E178C901802211400843A8
:102400000649086008460068400940016178C9062D
:10241000C90E08430149086010BD0000000040409B
:102420000148806870470000000040400149886012
:102430007047000000004040F8B50546012702261D
:1024400069001048FDF708FF0446002C0BD07F20E0
:102450004002844207D802E07006060E6408FF2C92
:10246000FAD8601EC7B2084806740068FF21090246
:1024700088433902FF2212021140084302490860D2
:10248000F8BD00000024F400000040400149C8628B
:102490007047000000004040012101700721417099
:1024A00000218170C17001494160704740420F00B6
:1024B0001FB50121112000F0B3FC6846FFF790F82A
:1024C00004200090042168460171012181710021DE
:1024D0004171FEF7D9FF0820009004216846017180
:1024E000FEF7D2FF01200090042168460171FEF73B
:1024F000CBFF02A8FFF7D0FF002168460172072139
:10250000417200218172C1720748039002A8FFF74F
:1025100053FFFF20FFF7BAFFFFF710FFFFF704FF9D
:102520000120FFF727FF1FBD0048E80170470000AA
:1025300010B586B0FFF7BCFF0121084600F070FC23
:1025400004A8FFF74DF8BA480490062168460175C3
:1025500001218175417504A8FEF796FFB448FFF785
:102560003BF8FFF7C5F90020FFF79CF9B14BFF22BC
:10257000413264210020FFF787F8AE4BFF22413241
:1025800065210020FFF780F8AA4BFF224132FF218E
:1025900023310020FFF778F8A64BFF224132FF21BC
:1025A00024310020FFF770F8A24BBE226421A02046
:1025B00000F0E6FD232402A903A8FFF759FE0398C3
:1025C00002F028FD9C486100009008460B3008236B
:1025D0001A46C82100F03EFE984808231A46962164
:1025E0000090822000F036FE95481D231122B42170
:1025F0000090842000F02EFE029801F01DFB8E4812
:102600006100009008460B3008231A46FF21123162
:1026100000F020FE8B481F231A46FC2100908020EA
:1026200000F018FE83481F381E23412269210090C4
:102630002D20FFF713FD0020032309226A210090BB
:102640003F20FFF70BFD0020032309228221009089
:102650003F20FFF703FD0020152303226D2100908A
:102660004220FFF7FBFC002003230F22762100907D
:102670005020FFF7F3FC00200C2303227921009067
:102680005020FFF7EBFC00200C230322792100905F
:102690005C20FFF7E3FC1F201E23412269210090EC
:1026A000CD20FFF7DBFC0020032309226A210090E4
:1026B000DA20FFF7D3FC00200323092282210090B7
:1026C000DA20FFF7CBFC0020152303226D210090B8
:1026D000D720FFF7C3FC0020152303226D210090B3
:1026E000E320FFF7BBFC00200F230322762100909C
:1026F000EA20FFF7B3FC00200F230322762100908D
:10270000F320FFF7ABFC0020032309228221009075
:10271000ED20FFF7A3FC002013230322702100907B
:10272000FA20FFF79BFC002002230922732100906E
:10273000F720FFF793FC0020032302228121009061
:10274000FF20FFF78BFC0020032301228221009051
:10275000FE20FFF783FC0020022304228321009047
:10276000FB20FFF77BFC384802F0E2FC32486100B6
:1027700000900846AB3008231A46C82100F06AFDD5
:102780002E4808231A4696210090FF20233000F09F
:1027900061FD2B481D231122B4210090FF2025301C
:1027A00000F058FD284801F083FA234861000090AA
:1027B0000846AB3008231A46FF21123100F04AFDCB
:1027C00020481F231A46FC210090FF20213000F0F2
:1027D00041FD802001F07EFF7D200001FEF708FD15
:1027E000552001F077FF7D200001FEF701FD462016
:1027F00001F070FF7D200001FEF7FAFC282001F0B7
:1028000069FF7D200001FEF7F3FC022000F092FD3D
:102810007D200001FEF7ECFC3C2000F08BFD7D20CC
:102820000001FEF7E5FC642000F084FD06B010BD59
:1028300052400000FFFF00006A5E0410AA5E041010
:10284000EA5E0410D76004100000C84200B58DB0E5
:102850000121480300F0E4FA0020694608730220D1
:10286000AB49086015E0AA480068082802DB01208F
:10287000A7490860A649087802F026FDFF2091309C
:10288000FEF7B6FC002002F01FFDFF209130FEF79E
:10289000AFFCA04800780028E5D09D480078694644
:1028A000C8739B49087802F00FFD994800789A494F
:1028B000087001209649086000209649087015E0CC
:1028C00093480068202802DB012091490860904964
:1028D000087800F0BFFDFF209130FEF789FC6320EF
:1028E00000F0B8FDFF209130FEF782FC89480078A7
:1028F0000028E5D08648007869460874844908783D
:1029000000F0A8FD824800788449087001208049C1
:10291000086000207F49087015E07D4800680D2898
:1029200002DB01207A4908607949087801F08EFDC0
:10293000FF209130FEF75CFC632001F087FDFF2053
:102940009130FEF755FC734800780028E5D07049B7
:10295000087801F07BFD6E480078714908706C487A
:10296000007869464874FD20C0006949086000206D
:102970006849087015E0664800686A49884202DBC9
:102980000120634908606248006802F039FD4B206D
:10299000C000FEF72DFC632002F032FDC820FEF7D8
:1029A00027FC5C4800780028E5D05948006802F010
:1029B00027FD57480088694648820020544908602E
:1029C000544908707D20C000FEF712FC632002F01D
:1029D00017FD554808231A461E210090C42000F018
:1029E00039FC514808231A463C210090C42000F0CD
:1029F00031FC15E046480068182802DB00204449F5
:102A000008604349087801F0EFF8FF209130FEF7A5
:102A1000EFFB632001F0E8F8FF209130FEF7E8FBC0
:102A20003C4800780028E5D039480078694688732A
:102A30003749087801F0D8F8354800783B490870E4
:102A40000020334908603349087015E030480068B9
:102A50003C2802DB00202E4908602D49087801F04F
:102A6000CFFCFF209130FEF7C3FB632001F0C8FCD0
:102A7000FF209130FEF7BCFB264800780028E5D007
:102A800023480178684641732149087801F0B8FC71
:102A90001F4800782649087003A8FFF787FA01202D
:102AA000FFF740F90121480300F0BAF90021684618
:102AB0000175002008901F4806900020099005A885
:102AC000FFF73CFA01210220FFF712FA0220FFF77C
:102AD00009FA0021019105E000BF68468088401C8A
:102AE00081B20191684680884B21C9008842F3DB9E
:102AF000152168460172032141720121817202A8E9
:102B0000FFF722F80120FFF723F90DB000BD000008
:102B1000100300200C0300201703002016030020E0
:102B200018030020102700006A5E0410150300201F
:102B300014030020FF7F000010B586B00446012179
:102B4000092000F06DF900F045F8401E80001D4995
:102B50000858019000F03EF8401E80001A49095CB8
:102B60006846017200218172417201A8FEF78CFC57
:102B700000F030F8401E800014490858019000F021
:102B800029F8401E80001249095C6846017201A8BC
:102B9000FEF77AFC03940321684601744174002116
:102BA0008174C1744175032101750121817503A8E8
:102BB00000F0DCF9002000F0CDFA012000F0A6F9C9
:102BC00006B010BDD4570410D8570410DC570410B9
:102BD000E05704100148007870470000EC02002024
:102BE00030B585B00446FFF7F5FF401E8000294947
:102BF00008582949884204D10121284800F010F9D9
:102C000003E00121264800F00BF9FFF7E3FF401E27
:102C10008000244908580390FFF7DCFF401E800025
:102C20002149095C6846017400218174417403A83C
:102C3000FEF72AFCFFF7CEFF401E80001B49085814
:102C40000390FFF7C7FF401E80001949095C6846E2
:102C5000017403A8FEF718FC6846FEF7D9FD0121B0
:102C6000684601710094FFF7B5FF401E80000949D6
:102C70000D5869462846FEF755FDFFF7ABFF401E8D
:102C8000800004490D580B492846FEF732FD00200C
:102C900005B030BDF00200200000A040010400009B
:102CA00001020000EC570410F0570410E457041020
:102CB000E85704107F809F73012001490870704716
:102CC000EC02002010B5044600BF202000F032F9CD
:102CD0000128FAD0204600F04BFA10BD002004E095
:102CE0001549095C491C0918C8B21349095C002937
:102CF000F6D1C11C20291EDA02210F4A11542122CB
:102D00000D4B411C5A540822811C5A540022C11CEC
:102D10005A541946091889B2012212041143092292
:102D2000D206D16000BF0921C906C9680122120478
:102D300011400029F7D1704778030020024800684D
:102D4000401C014908607047CC02002010B5314B8F
:102D5000197A314B1A890020002905D10923134023
:102D6000092B01D120231843002905D11123134039
:102D7000112B01D140231843002905D121231340F1
:102D8000212B01D180231843002906D14123134070
:102D9000412B02D1FF2301331843002906D181239F
:102DA0001340812B02D101235B021843002909D172
:102DB000FF2302331340FF240234A34202D1012334
:102DC0009B021843002907D1144B1340134CA34214
:102DD00002D10123DB021843002905D1052313404A
:102DE000052B01D110231843002905D193079B0F10
:102DF000032B01D108231843022901D101231843D1
:102E0000042901D102231843082901D104231843BE
:102E100010BD0000000090400000104801040000B8
:102E2000012905D1054A126A0243044B1A6204E0E3
:102E3000024A126A8243014B1A62704700009040B6
:102E400010B5FFF77BFF10BD10B508202949888019
:102E50000321481FFEF714FF0321081FFEF710FF90
:102E600003210020FEF70CFF03210120FEF708FFDD
:102E700003210420FEF704FF03210520FEF700FFD5
:102E800000210620FEF7FCFE03210720FEF7F8FED6
:102E900003210D20FEF7F4FE03210E20FEF7F0FEC5
:102EA00003210F20FEF7ECFE03211120FEF7E8FEC0
:102EB00003211220FEF7E4FE03211320FEF7E0FEBB
:102EC00003211420FEF7DCFE03211520FEF7D8FEB7
:102ED00003211620FEF7D4FE03211720FEF7D0FEB3
:102EE00000210120FEF792F903480449086262B606
:102EF00010BD00000000104066000E000000904071
:102F0000014988607047000040000048002807D051
:102F10000749096B49084900491C054A116305E046
:102F20000349096B49084900014A116370470000D1
:102F3000000030400146C80FC007002808D00948EB
:102F400040680840002801D0012070470020FCE7BD
:102F50000448008B0840002801D00120F5E700203C
:102F6000F3E700000000304070470000F8B5044669
:102F70007648006B0007C00F002806D120680101C9
:102F80007348FDF769F9054605E02068C1007048FF
:102F9000FDF762F905466802060C6C482030868011
:102FA000F001281A401CC003070C3F2F04DD701CE1
:102FB00086B2781C8706BF0E644920310F7208461E
:102FC000007B602188432179490160221140084338
:102FD0005E49203108735D48007F60218843617934
:102FE0004901114008435949087758482030007B6F
:102FF00008218843A179C900082211400843534998
:10300000203108735148007F08218843A179C90005
:10301000114008434D490877E07900280ED14B480C
:103020002030007B022188434849203108734748FB
:10303000007F02218843454908773FE0E079022874
:103040001DD142482030007B02218843801C3F492B
:10305000203108730846007B042188433B49203116
:1030600008733A48007F02218843801C374908775B
:103070000846007F04218843344908771EE033481E
:103080002030007B02218843801C304920310873A6
:103090000846007B04218843001D2C492031087319
:1030A0002A48007F02218843801C28490877084667
:1030B000007F04218843001D244908772348006BC2
:1030C000012149028843217A49020122520211401A
:1030D00008431E4908630846006B89158843217A16
:1030E0004910090252101140084318490863084664
:1030F000006B91018843617A890392011140084372
:10310000124908630846006B51008843617A4910F0
:10311000C9035200114008430C4908630B48203092
:10312000007B10218843A17A090110221140084335
:103130000649203108730548007F10218843A17A91
:1031400009011140084301490877F8BD00003040EB
:103150000000127A0549097D38229143C2003823C4
:103160001A401143014A1175704700002000304099
:10317000C105C90D014A11807047000000003040B0
:10318000FFB581B0064614461D460220FEF71EFA22
:103190002C20FEF7C0FC0298031932460146304647
:1031A000FDF79DFF012707E02904080EFEF7BDFC8F
:1031B000E8B2FEF7BAFC7F1CA742F5D90220FEF761
:1031C0000BFA05B0F0BD704730B47446641E257824
:1031D000641CAB4204D3635D5B00E31830BC18474A
:1031E0001D46F8E738B5002016490860002409E0BC
:1031F000FFF7ACFD009069460888002800D003E086
:10320000601CC4B2032CF3DB00BF68460088202892
:1032100015DB6846008802F087F901200A4908702A
:10322000FCF7B5FF0AE000BFBFF34F8F074808491E
:10323000C860BFF34F8F00BF00BFFEE7F3E7012078
:1032400038BD0000140000200C0000200400FA0526
:1032500000ED00E0FFB581B015461C460220FEF7E8
:10326000B5F92C20FEF757FC02980019431E01986F
:103270004019421E02990198FDF731FF002652E0E5
:1032800000274DE030466043C1190A98405C0300B6
:10329000FFF79AFF08050C131A21282F363D00204E
:1032A000FEF743FC0020FEF740FC37E0FF20FEF76E
:1032B0003CFCFF20FEF739FC30E0F820FEF735FC3F
:1032C0000020FEF732FC29E00720FEF72EFCE0206C
:1032D000FEF72BFC22E00020FEF727FC1F20FEF764
:1032E00024FC1BE0FF20FEF720FCE020FEF71DFC85
:1032F00014E00720FEF719FCFF20FEF716FC0DE096
:10330000F820FEF712FC1F20FEF70FFC06E000205D
:10331000FEF70BFC0020FEF708FC00BF00BF7F1C7F
:10332000A742AFD3761CAE42AAD30220FEF754F9CF
:1033300005B0F0BD38B5044645480223292269216D
:103340000090FF201430FEF789FE41480223292215
:1033500085210090FF201430FEF780FE3C481B239F
:1033600002226B210090FF201430FEF777FE3848D0
:103370001B2302226B210090FF203B30FEF76EFEE4
:1033800033480823032274210090FF203D30FEF7CC
:1033900065FE142C1CDA1F20C00218230B226C219E
:1033A0000090FF201730FEF759FE002018230B2253
:1033B0006C210090FF202330FEF750FE00201823E0
:1033C0000B226C210090FF202F30FEF747FE3DE0DE
:1033D0003C2C1EDD3F20400118230B226C21009065
:1033E000FF201730FEF73AFE3F20400118230B2242
:1033F0006C210090FF202330FEF730FE3F2040017B
:1034000018230B226C210090FF202F30FEF726FEA0
:103410001CE00F481F3818230B226C210090FF205E
:103420001730FEF71BFE0A481F3818230B226C21A9
:103430000090FF202330FEF711FE002018230B22FE
:103440006C210090FF202F30FEF708FE38BD0000F1
:10345000FFFF000038B5044600201D23242223214D
:1034600000901B20FEF7FAFD632C17D00A2120469E
:10347000FCF7FCFECDB20A4B23222F21284600F098
:1034800011F80A212046FCF7F1FEC4B2002C05D049
:10349000034B23221B21204600F004F838BD000016
:1034A000FFFF0000F8B504460D4616461F462300F0
:1034B000FFF78AFE0A0625304A647993B2C2E6FE17
:1034C0003A463146284601F023FA3A463146284624
:1034D00001F028FA3A463146284601F02EFA3A46DB
:1034E0003146284601F035FA3A463146284601F081
:1034F0003BFA3A463146284601F041FAE2E03A46C4
:103500003146284601F00EFA3A463146284601F087
:1035100014FAD7E03A463146284601F0F9F93A461E
:103520003146284601F0FEF93A463146284601F078
:1035300030FA3A463146284601F00BFA3A4631460F
:10354000284601F011FABDE03A463146284601F01E
:10355000DFF93A463146284601F0E4F93A46314669
:10356000284601F0EAF93A463146284601F011FAB8
:103570003A463146284601F0ECF9A3E03A46314696
:10358000284601F0FCF93A463146284601F0CAF9CE
:103590003A463146284601F0D0F93A4631462846A7
:1035A00001F0F7F98EE03A463146284601F0E7F996
:1035B0003A463146284601F0ABF93A4631462846AC
:1035C00001F0BBF93A463146284601F0E2F93A46A5
:1035D0003146284601F0BDF974E03A4631462846A6
:1035E00001F096F93A463146284601F0C8F93A46C4
:1035F0003146284601F0B8F93A463146284601F0EE
:10360000C8F93A463146284601F097F93A4631461C
:10361000284601F09EF955E03A463146284601F029
:1036200077F93A463146284601F07CF93A46314668
:10363000284601F082F945E03A463146284601F035
:1036400067F93A463146284601F06CF93A46314668
:10365000284601F072F93A463146284601F079F9D8
:103660003A463146284601F07FF93A463146284627
:1036700001F085F93A463146284601F08AF921E001
:103680003A463146284601F043F93A463146284643
:1036900001F048F93A463146284601F04EF93A46DB
:1036A0003146284601F055F93A463146284600E0B1
:1036B00007E001F064F93A463146284601F069F91D
:1036C00000E000BF00BFF8BDF8B504460D46164641
:1036D0001F462300FFF778FD0A062A4E7296BADECF
:1036E000FDFCFBFA3A463146284601F05DF93A46C0
:1036F0003146284601F092F93A463146284601F013
:10370000C7F93A463146284601F0FCF93A463146B7
:10371000284601F031FA3A463146284601F066FA69
:1037200000223146284601F09BFA49E13A463146EB
:10373000284601F073F93A463146284601F0A8F9C7
:1037400000223146284601F02FF900223146284652
:1037500001F0D8F900223146284601F00DFA002286
:103760003146284601F042FA00223146284601F04F
:1037700077FA25E13A463146284601F015F93A46EE
:103780003146284601F04AF93A463146284601F0CA
:1037900067FA3A463146284601F0B4F93A463146CE
:1037A000284601F0E9F900223146284601F070F977
:1037B00000223146284601F019FA01E13A46314625
:1037C000284601F0F1F83A463146284601F026F93C
:1037D0003A463146284601F05BF93A4631462846DA
:1037E00001F03EFA3A463146284601F08BF90022B4
:1037F0003146284601F0C0F900223146284601F042
:10380000F5F9DDE03A463146284601F0EFF93A464F
:103810003146284601F002F93A463146284601F081
:1038200037F93A463146284601F01AFA0022314665
:10383000284601F0B9F800223146284601F062F925
:1038400000223146284601F097F9B9E03A46314660
:10385000284601F0CBF93A463146284601F0A4F853
:103860003A463146284601F013F93A463146284691
:1038700001F0F6F93A463146284601F043F90022B4
:103880003146284601F0CAF800223146284601F0A8
:1038900073F995E03A463146284601F085F83A46F4
:1038A0003146284601F0A2F93A463146284601F051
:1038B00063F93A463146284601F0D2F93A46314694
:1038C000284601F0E5F83A46314603E077E052E059
:1038D0002DE008E0284601F015F90022314628467F
:1038E00001F09CF86CE03A463146284601F05CF85D
:1038F0003A463146284601F091F83A463146284684
:1039000001F0C6F800223146284601F0FBF80022FB
:103910003146284601F030F900223146284601F0B0
:1039200065F900223146284601F09AF948E03A4606
:103930003146284601F038F83A463146284601F02B
:103940006DF83A463146284601F0A2F83A4631462B
:10395000284601F0D7F83A463146284601F00CF9DE
:103960003A463146284601F041F93A463146284662
:1039700001F076F924E03A463146284601F014F881
:103980003A463146284601F049F83A46314628463B
:1039900001F07EF83A463146284601F0B3F83A463F
:1039A0003146284601F022F93A463146284601F0D0
:1039B00057F900223146284601F0DEF800E000BF4A
:1039C00000BFF8BDF8B504460D4616461F46230055
:1039D000FFF7FAFB0A0625304A647993B2C2E6FE85
:1039E0003A463146284601F075F93A4631462846AE
:1039F00001F0ACF93A463146284601F0E3F93A467F
:103A00003146284601F01AFA3A463146284601F076
:103A100051FA3A463146284601F086FAE2E03A4643
:103A20003146284601F092F93A463146284601F0DF
:103A3000C9F9D7E03A463146284601F04BF93A46F3
:103A40003146284601F082F93A463146284601F0CF
:103A5000A5FA3A463146284601F0F0F93A46314691
:103A6000284601F027FABDE03A463146284601F0E3
:103A700031F93A463146284601F068F93A4631466E
:103A8000284601F09FF93A463146284601F086FA69
:103A90003A463146284601F0D1F9A3E03A4631468C
:103AA000284601F041FA3A463146284601F04EF9DF
:103AB0003A463146284601F085F93A4631462846CD
:103AC00001F06CFA8EE03A463146284601F02CFAB5
:103AD0003A463146284601F0FDF83A463146284636
:103AE00001F070F93A463146284601F057FA3A4655
:103AF0003146284601F0A2F974E03A46314628469C
:103B000001F0E8F83A463146284601F00DFA3A4607
:103B10003146284601F0CEF93A463146284601F0B2
:103B20003DFA3A463146284601F04CF93A463146CC
:103B3000284601F083F955E03A463146284601F01F
:103B4000C9F83A463146284601F000F93A4631466E
:103B5000284601F037F945E03A463146284601F05B
:103B6000B9F83A463146284601F0F0F83A4631466F
:103B7000284601F027F93A463146284601F05EF919
:103B80003A463146284601F095F93A4631462846EC
:103B900001F0CAF93A463146284601F0FFF921E022
:103BA0003A463146284601F095F83A4631462846CD
:103BB00001F0CCF83A463146284601F003F93A467E
:103BC0003146284601F03AF93A463146284600E0A7
:103BD00007E001F0A9F93A463146284601F0DEF93E
:103BE00000E000BF00BFF8BD38B5044600205A23EE
:103BF0006822052100901846FEF730FA632C17D092
:103C00000A212046FCF732FBCDB20A4B0522902157
:103C10002846FFF7D7FE0A212046FCF727FBC4B24F
:103C2000002C05D0034B05225A212046FFF7CAFE7F
:103C300038BD0000FFFF0000F8B504461A492046D1
:103C4000FDF71CF80746FDF7EFF8C6B20A2130462B
:103C5000FCF70CFBCDB2154BDC2205212846FFF703
:103C600033FD2046FDF7E0F8C6B20A213046FCF7E6
:103C7000FDFACDB20D4BDC222D212846FFF724FDA5
:103C80000949204601F01EFD0746FDF7A7F8064644
:103C90000A21FCF7EBFACDB2044BDC225A2128466C
:103CA000FFF712FDF8BD000000002041FFFF0000FB
:103CB000F8B506463046FCF7B7FF0446354A364BA2
:103CC00001F0A2FC31D2002040232422DC2100900C
:103CD000A520FEF7C3F9002040232422DC21009018
:103CE000CD20FEF7BBF9002040232422DC210090E8
:103CF000FA20FEF7B3F9294807231022F821009093
:103D0000AF20FEF7ABF9254807231022F8210090D9
:103D1000D720FEF7A3F9214807231022F8210090AD
:103D2000FF200530FEF79AF933E01D493046FCF7D5
:103D3000A5FF0746FDF778F8C5B20A212846FCF72B
:103D400095FACCB2154BDC22A5212046FFF7BCFC2E
:103D50003046FDF769F8C5B20A212846FCF786FA15
:103D6000CCB20E4BDC22CD212046FFF7ADFC0C4936
:103D7000304601F0A7FC0746FDF730F804460A215B
:103D8000FCF774FACDB2054BDC22FA212846FFF786
:103D90009BFCF8BD9A99999999F95840FFFF00004A
:103DA00000002041FFB583B00E4614461D4603981F
:103DB0006C2875D014DC642853D008DC4E2870D0F1
:103DC0004F286FD0612815D063286CD131E0652869
:103DD0006DD0662869D0692868D06A28F5D1B2E02C
:103DE0006D380300FFF7F0F90ADFF7F6F55FF4F33B
:103DF000F2F1F05F03230F22214630460095FEF7D3
:103E00002DF918230322E11C30460095FEF726F910
:103E100018230322E11C30460C300095FEF71EF9F2
:103E20000323092221460C31F01C0095FEF716F9F8
:103E3000E3E203230C222146093130460095FEF7C8
:103E40000DF903230C222146183130460095FEF768
:103E500005F90C230322E11830460095FEF7FEF821
:103E6000CBE203230C22214630460095FEF7F6F8FC
:103E700003230C222146183130460095FEF7EEF858
:103E800015230322E11C30460095FEF7E7F81523C1
:103E90000322E11C30460C300095FEF7DFF8ACE25F
:103EA00071E0AEE00BE1A7E201E01EE034E00323A5
:103EB0000F22214630460095FEF7D0F803230C224E
:103EC000A11830460095FEF7C9F803230F222146BA
:103ED000183130460095FEF7C1F815230322E11C86
:103EE00030460095FEF7BAF887E203230F222146F9
:103EF00030460095FEF7B2F80323092221460C3123
:103F000030460095FEF7AAF818230322E11C30463C
:103F10000095FEF7A3F870E2032309222146F01C66
:103F20000095FEF79BF80323092221461831F01C67
:103F30000095FEF793F815230322E11CB01D0095B0
:103F4000FEF78CF859E2032309222146B01D0095A3
:103F5000FEF784F815230322E11C30460930009552
:103F6000FEF77CF803231A4621461531F01C009514
:103F7000FEF774F803231A4621461831B01D009548
:103F8000FEF76CF839E21B230322214630460095E8
:103F9000FEF764F803230C2221461831F01C00952B
:103FA000FEF75CF829E21B230322214630460095E8
:103FB000FEF754F81B230322214630460C300095AF
:103FC000FEF74CF8002719E0F3E1D8E1C8E165E11C
:103FD000F3E0B5E092E059E0621CD119F21CD0196F
:103FE0002B460622FFF7CCF8621CD11932460B3261
:103FF000D01B2B460622FFF7C3F87F1C052FEBDBF7
:10400000FBE11B230322214630460095FEF726F8EC
:104010001B230322214630460C300095FEF71EF884
:1040200000271AE078003A18E01C1118F01CC0199B
:104030000323022200950290FEF710F878003A1848
:1040400020461530811A30460A30C01B0323022255
:1040500000950290FEF702F87F1C032FE2DB2B464F
:10406000022221460C31B01DFFF78AF82B460322AD
:1040700021460C31F01DFFF783F82B460222214622
:104080000D3130460830FFF77BF8B6E103230F22ED
:1040900021460C3130460095FDF7E0FF0C2303224A
:1040A00021460F3130460095FDF7D8FF0C2303223F
:1040B00021460F31F0180095FDF7D0FF9DE1032355
:1040C00009222146F01C0095FDF7C8FF03230922B1
:1040D00021461831F01C0095FDF7C0FF152303227F
:1040E000E11C30460095FDF7B9FF15230322E11CC2
:1040F00030460C300095FDF7B1FF7EE103230F221F
:1041000021460C3130460095FDF7A8FF03230F220E
:104110002146183130460095FDF7A0FF0923032200
:1041200021460F3130460095FDF798FF0923032201
:1041300021460F3130460C300095FDF78FFF5CE1D2
:1041400003230B22214630460095FDF787FF1823F5
:104150000322E11C30460095FDF780FF0723032270
:10416000A11C30460A300095FDF778FF0223072294
:1041700021460931F01C0095FDF770FF2B46012206
:10418000611C30460B30FDF77FFA2B460222214698
:10419000093130460A30FDF777FA2B4601222146D5
:1041A0000A3130460A30FDF76FFA2B4606222146C7
:1041B0000B31F01CFDF768FA1FE103230B222146A7
:1041C00030460095FDF74AFF18230322E11C3046D4
:1041D0000095FDF743FF07230322A11C30460A3058
:1041E0000095FDF73BFF0223072221460931F01C11
:1041F0000095FDF733FF2B460122611C30460B3042
:10420000FDF742FA2B4602222146093130460A3098
:10421000FDF73AFA2B46012221460A3130460A3090
:10422000FDF732FA2B46062221460B31F01CFDF732
:104230002BFA03231A4621460C31F01D0095FDF799
:104240000DFF03231A4621460F31304608300095F2
:10425000FDF704FF03231A46214612313046093088
:104260000095FDF7FBFE03231A4621461531304623
:104270000A300095FDF7F2FE03231A462146183155
:1042800030460B300095FDF7E9FE00230122214660
:104290001A3130460B30FDF7F7F9AEE003230D225B
:1042A0002146B01C0095FDF7D9FE03230B222146C1
:1042B0000C31B01C0095FDF7D1FE03230D222146E1
:1042C000183130460095FDF7C9FE0B230322A11CCF
:1042D00030460095FDF7C2FE0B23032221460E3126
:1042E00030460C300095FDF7B9FE2B460122611CCB
:1042F000701CFDF7C9F92B460122E11CF01CFDF7EB
:10430000C3F92B46012221460D31701CFDF7BCF983
:104310002B46012221460B31F01CFDF7B5F92B4647
:10432000012221460D3130460D30FDF7ADF92B4607
:10433000012221460F3130460B30FDF7A5F92B46FF
:1043400001222146173130460B30FDF79DF92B46EF
:1043500001222146193130460D30FDF795F94CE028
:1043600003230F22214630460095FDF777FE1823E0
:104370000322E11CB01D0095FDF770FE3DE00F2308
:10438000032221460C3130460095FDF767FE0F23CE
:10439000032221460C3130460C300095FDF75EFEBD
:1043A0000323092221461831F01C0095FDF756FE23
:1043B00023E0002716E07A0020460A301118F01991
:1043C0002B4604220290FEF7DBFE7A0020460A30DC
:1043D000111830460E30C01B2B4604220290FEF707
:1043E000CFFE7F1C072FE6DB2B4603222146183128
:1043F000F01DFEF7C5FE00E000BF00BF07B0F0BD36
:1044000038B5044600205A23682205210090CF20A9
:10441000FDF724FE632C16D00A212046FBF726FF69
:10442000CDB2094B0522FF2106312846FFF7CAFA13
:104430000A212046FBF71AFFC4B2034B0522CF2105
:104440002046FFF7BFFA38BDFFFF000038B504462D
:1044500000201B234B22452100900820FDF7FEFD84
:104460002300FEF7B1FE0DFC08213A536C7F98B192
:10447000CAE3FBFAFC00964B452208216A20FFF7AD
:1044800091FC934B45221C216120FFF78BFC904B44
:10449000452230216E20FFF785FC8D4B45224421BB
:1044A0007620FFF77FFC11E1894B45220821662029
:1044B000FFF778FC864B45221C216520FFF772FC34
:1044C000834B452230217620FFF76CFC804B452240
:1044D00044217220FFF766FCF8E07D4B452208215D
:1044E0006D20FFF75FFC7A4B45221C216120FFF70E
:1044F00059FC774B452230217220FFF753FC744B57
:10450000452244217320FFF74DFCDFE0704B45222C
:1045100008216120FFF746FC6D4B45221C217620C7
:10452000FFF740FC6A4B452230217220FFF73AFC2E
:10453000674B452244216920FFF734FCC6E0644BF9
:10454000452208216D20FFF72DFC614B45221C21DF
:104550006120FFF727FC5E4B452230216920FFF7E1
:1045600021FCB3E05A4B452208216A20FFF71AFCD0
:10457000574B45221C217520FFF714FC544B452254
:1045800030216920FFF70EFC514B452244216E205B
:10459000FFF708FC9AE04E4B452208216A20FFF7FE
:1045A00001FC4B4B45221C217520FFF7FBFB484BC0
:1045B000452230216920FFF7F5FB454B4522442178
:1045C0006C20FFF7EFFB81E0414B45220821612081
:1045D000FFF7E8FB3E4B45221C216F20FFF7E2FB73
:1045E0003B4B452230217520FFF7DCFB384B452241
:1045F00044217420FFF7D6FB68E0354B45220821A3
:104600007320FFF7CFFB324B45221C216520FFF7BB
:10461000C9FB2F4B452230217020FFF7C3FB2C4BE9
:10462000452244217420FFF7BDFB4FE0284B452273
:1046300008214F20FFF7B6FB254B45221C216320A4
:10464000FFF7B0FB224B452230217420FFF7AAFB75
:104650001F4B452244216F2002E01DE003E034E0BF
:10466000FFF7A0FB32E01A4B452208214E20FFF74E
:1046700099FB174B45221C216F20FFF793FB144B2E
:10468000452230217620FFF78DFB114B4522442136
:104690006520FFF787FB19E00D4B452208216420B8
:1046A000FFF780FB0A4B45221C216520FFF77AFBB0
:1046B000074B452230216320FFF774FB044B452252
:1046C00044216520FFF76EFB00E000BF00BF38BD4E
:1046D000FFFF0000F8B50746A5246925744E0223A4
:1046E0001A4629461631204611300096FDF7B6FCD1
:1046F000642F00DD0026334601222946133120466F
:104700000D30FCF7C1FF0223082229461231204652
:104710000E300096FDF7A2FC3346012229461331E4
:1047200020461630FCF7B0FF3346032229461431E9
:1047300020460E30FCF7A8FF3346032229461431E9
:1047400020461330FCF7A0FF3346042229461131DE
:1047500020461030FCF798FF4B2F00DD0026032386
:10476000062229460C3120460F300096FDF776FCD4
:104770000323022229460D31204615300096FDF70D
:104780006DFC0323022229460E3120461730009685
:10479000FDF764FC3346022229460F3120461930CA
:1047A000FEF7EEFC3346022229460F3120460A303E
:1047B000FEF7E6FC0323022229460E3120460B3089
:1047C0000096FDF74BFC0323022229460D312046BB
:1047D0000D300096FDF742FC3C2F00DD0026032340
:1047E0000622E91D20460F300096FDF737FC032313
:1047F000042229460831204615300096FDF72EFC8C
:10480000032304222946083120460B300096FDF789
:1048100025FC3346022229460C31A01DFEF7B0FCD0
:104820003346032229460B31E01DFEF7A9FC33462F
:10483000042229460A3120460830FEF7A1FC3346FF
:10484000032229460A3120460930FEF799FC3346F7
:1048500003222946093120460A30FEF791FC3346EF
:1048600003222946093120461930FEF789FC3346D8
:10487000032229460A3120461A30FEF781FC3346CE
:10488000042229460A3120461B30FEF779FC3346C4
:10489000032229460B3120461C30FEF771FC3346BB
:1048A000022229460C3120461D30FEF769FCF8BD76
:1048B000FFFF000070B505460C4616463346082239
:1048C00021462846FCF7E0FE681E33460A22611C9A
:1048D000FCF7DAFE33460822A11C2846FCF7D4FE7A
:1048E00070BD70B504460D46164633460A22294669
:1048F0002046FEF745FC691E33460C22601CFEF77D
:104900003FFC33460A222946A01CFEF739FC70BD45
:1049100070B504460D46164632462946201DFFF75F
:10492000C9FF70BD70B504460D4616463246E91CF7
:1049300020460D30FFF7D5FF70BD70B504460D461B
:10494000164632462946103120460D30FFF7C9FF82
:1049500070BD70B504460D461646324629461A31DA
:10496000201DFFF7A7FF70BD70B505460C46164623
:104970003246214610312846FFF7B3FF70BD70B5AF
:1049800005460C4616463246E11C2846FFF7A9FFAD
:1049900070BD70B504460D461646324629460D31A7
:1049A000201DFFF787FF70BDF0B589B005460E46A4
:1049B00017460020089013A2116850689268079269
:1049C0000591069012A211685068926804920291B3
:1049D0000390002411E002A8005D401C05AB1B5DA4
:1049E000C21A08983018011905A8005D40193B4605
:1049F0000190FCF749FE601CC4B2092CEBDB09B046
:104A0000F0BD0000050302010103050608000000D7
:104A10001B1A1A191919181818000000F0B589B0D6
:104A200005460E4617461A20089013A211685068D2
:104A3000926807920591069012A2116850689268D8
:104A4000049202910390002411E002A8005D401C32
:104A500005AB1B5DC21A05A8005D811908982818CE
:104A600000193B460190FEF78BFB601CC4B2092C79
:104A7000EBDB09B0F0BD00000704010001020304F4
:104A8000060000001718181A1A1B1C1B180000003B
:104A9000F0B589B005460E4617461A20089013A2B5
:104AA00011685068926807920591069012A21168E9
:104AB00050689268049202910390002411E002A8C9
:104AC000005D401C05AB1B5DC21A05A8005D811985
:104AD0000898281800193B460190FEF751FB601C0E
:104AE000C4B2092CEBDB09B0F0BD00002424232361
:104AF0002221202124000000373A3D3D3D3C3B3A35
:104B000038000000F0B589B005460E46174636203D
:104B1000089013A211685068926807920591069058
:104B200012A21168506892680492029103900024C6
:104B300011E002A8005D401C05AB1B5DC21A08987D
:104B40003018011905A8005D40193B460190FCF79B
:104B50009BFD601CC4B2092CEBDB09B0F0BD00006A
:104B600007020000010102030500000017181819D0
:104B700019191A1A1A000000F0B589B005460E4638
:104B800017460020089013A2116850689268079297
:104B90000591069012A211685068926804920291E1
:104BA0000390002411E002A8005D401C05AB1B5DD2
:104BB000C21A05A8005D81190898281800193B46FB
:104BC0000190FEF7DDFA601CC4B2092CEBDB09B0E2
:104BD000F0BD0000222020212222232324000000F7
:104BE000363535353534343433000000F0B589B00E
:104BF00005460E4617460020089013A2116850681B
:104C0000926807920591069012A211685068926806
:104C1000049202910390002411E002A8005D401C60
:104C200005AB1B5DC21A05A8005D811908982818FC
:104C300000193B460190FEF7A3FA601CC4B2092C90
:104C4000EBDB09B0F0BD0000060707080809090AF8
:104C50000B0000001A1C1C1B1A1919181800000060
:104C6000F0B589B005460E4617461A20089013A2E3
:104C700011685068926807920591069012A2116817
:104C800050689268049202910390002411E002A8F7
:104C9000005D401C05AB1B5DC21A08983018011955
:104CA00005A8005D40193B460190FCF7EDFC601C37
:104CB000C4B2092CEBDB09B0F0BD00000907050404
:104CC00003040507090000001A1B1D1E1F1E1D1BE3
:104CD00019000000F0B58BB005460E4617460020BF
:104CE0000A9012A35A6899681868DB6809930792BA
:104CF0000891069011A30FCB02AC0FC4002411E061
:104D000002A8005D401C06AB1B5DC21A0A98301851
:104D1000011906A8005D40193B460190FCF7B4FC60
:104D2000601CC4B20D2CEBDB0BB0F0BD0705040317
:104D3000020101030507080A0C00000026252525AD
:104D4000242424232323222222000000F0B58BB048
:104D500005460E46174624200A9012A35A68996801
:104D60001868DB68099307920891069011A30FCB8E
:104D700002AC0FC4002411E002A8005D401C06AB89
:104D80001B5DC21A06A8005D81190A98281800192F
:104D90003B460190FEF7F4F9601CC4B20D2CEBDB2E
:104DA0000BB0F0BD0B08050201010102030305066B
:104DB0000800000023232424252526272829282627
:104DC00024000000F0B58BB005460E46174624209F
:104DD0000A9012A35A6899681868DB6809930792C9
:104DE0000891069011A30FCB02AC0FC4002411E070
:104DF00002A8005D401C06AB1B5DC21A06A8005D40
:104E000081190A98281800193B460190FEF7B8F955
:104E1000601CC4B20D2CEBDB0BB0F0BD343332326E
:104E20003131302F2E2D2E30320000004D5053578F
:104E3000595959595857565452000000F0B58BB083
:104E400005460E4617464D200A9012A35A689968E7
:104E50001868DB68099307920891069011A30FCB9D
:104E600002AC0FC4002411E002A8005D401C06AB98
:104E70001B5DC21A0A983018011906A8005D401976
:104E80003B460190FCF700FC601CC4B20D2CEBDB30
:104E90000BB0F0BD0B070300000001010203040684
:104EA0000800000021222222232323242424252554
:104EB00025000000F0B589B005460E4617460020D3
:104EC000089013A2116850689268079205910690A5
:104ED00012A2116850689268049202910390002413
:104EE00011E002A8005D401C05AB1B5DC21A05A8BD
:104EF000005D81190898281800193B460190FEF7BB
:104F00003FF9601CC4B20C2CEBDB09B0F0BD000013
:104F1000312F2D2E2F303131323233334D4D4D4D17
:104F20004C4C4C4C4B4B4B4AF0B589B005460E46A9
:104F300017460020089013A21168506892680792E3
:104F40000591069012A2116850689268049202912D
:104F50000390002411E002A8005D401C05AB1B5D1E
:104F6000C21A05A8005D81190898281800193B4647
:104F70000190FEF705F9601CC4B20C2CEBDB09B004
:104F8000F0BD00000808090A0A0B0B0C0D0D0E0EEF
:104F9000252729282726252524242323F0B58BB06F
:104FA00005460E46174625200A9012A35A689968AE
:104FB0001868DB68099307920891069011A30FCB3C
:104FC00002AC0FC4002411E002A8005D401C06AB37
:104FD0001B5DC21A0A983018011906A8005D401915
:104FE0003B460190FCF750FB601CC4B20D2CEBDB80
:104FF0000BB0F0BD0C0A08060504030405060709FA
:105000000B000000232527292A2B2C2B2A292826B0
:1050100023000000F8B506463046FBF705FE0446BF
:105020003B4A3C4B00F0BEFA03D23B48FFF7F2FF8D
:10503000F8BD0021304600F01BFB24D200204023A5
:105040002422912100900520FDF708F8334807231A
:105050001022AD2100900520FDF700F83046FBF747
:10506000E3FD04462E4A2F4B00F09CFA05D22B4B51
:10507000912205210120FEF727FB2B49304600F045
:1050800021FB064620E02949304600F073FB13D28D
:1050900026493046FBF7F2FD0746FBF7C5FEC5B2D1
:1050A0000A212846FBF7E2F8CCB21C4B91220521DD
:1050B0002046FEF709FB07E000204023242291212F
:1050C00000900520FCF7CAFF3046FBF7ADFEC5B2E5
:1050D0000A212846FBF7CAF8CCB2104B91222D21A9
:1050E0002046FEF7F1FA1149304600F0EBFA074688
:1050F000FBF774FE05460A21FBF7B8F8CCB2074B64
:1051000091225A212046FEF7DFFA00BF90E7000007
:105110006666666666E633C033339FC1FFFF0000F4
:10512000CDCCCCCCCCCC23C0000080BF0000204133
:10513000F8B506463046FBF777FD0446594A5A4B08
:1051400000F062FA31D20020402324229121009005
:10515000A520FCF783FF002040232422912100900A
:10516000CD20FCF77BFF00204023242291210090DA
:10517000FA20FCF773FF4D4807231022AD21009061
:10518000AF20FCF76BFF494807231022AD210090A8
:10519000D720FCF763FF454807231022AD2100907C
:1051A000FF200530FCF75AFF79E03046FBF73CFD65
:1051B00004463C4A52423E4B00F0F4F903D23D48CB
:1051C000FFF7B6FFF8BD0021304600F051FA24D2B7
:1051D00000204023242291210090A520FCF73EFFCF
:1051E000324807231022AD210090A520FCF736FF9E
:1051F0003046FBF719FD04462F4A304B00F0D2F938
:1052000005D22A4B9122A5210120FEF75DFA2C49F7
:10521000304600F057FA064620E02A49304600F0B2
:10522000A9FA13D227493046FBF728FD0746FBF7BA
:10523000FBFDC5B20A212846FBF718F8CCB21B4B80
:105240009122A5212046FEF73FFA07E000204023E7
:10525000242291210090A520FCF700FF3046FBF7A7
:10526000E3FDC5B20A212846FBF700F8CCB20F4B8C
:105270009122CD212046FEF727FA1249304600F050
:1052800021FA0746FBF7AAFD04460A21FAF7EEFFCA
:10529000CDB2064B9122FA212846FEF715FA00BF3F
:1052A00090E700009A99999999F95840FFFF0000FA
:1052B00066E633C033339FC1CDCCCCCCCCCC23C03D
:1052C000000080BF0000204138B5044600201B23A9
:1052D0003722052100901220FCF7C0FE2300FDF7C5
:1052E00073FF088A05182B3E5164778A434B0522C9
:1052F00012216420FEF756FD404B0522262169202D
:10530000FEF750FD3D4B05223A216D20FEF74AFD88
:1053100072E03A4B052212216C20FEF743FD374B19
:10532000052226217520FEF73DFD344B05223A214A
:105330006E20FEF737FD5FE0304B052212216D2015
:10534000FEF730FD2D4B052226216120FEF72AFDB8
:105350002A4B05223A217220FEF724FD4CE0274B10
:10536000052212216D20FEF71DFD244B052226216A
:105370006520FEF717FD214B05223A217220FEF72A
:1053800011FD39E01D4B052212216A20FEF70AFDAE
:105390001A4B052226216520FEF704FD174B052236
:1053A0003A217520FEF7FEFC26E0144B052212215F
:1053B0007620FEF7F7FC114B052226216520FEF72B
:1053C000F1FC0E4B05223A216E20FEF7EBFC13E0B8
:1053D0000A4B052212217320FEF7E4FC074B05223D
:1053E00026216120FEF7DEFC044B05223A216D20C8
:1053F000FEF7D8FC00E000BF00BF38BDFFFF000093
:1054000038B5044600205A23DC22052100901846B6
:10541000FCF724FE632C3BD00A212046FAF726FF36
:10542000CDB21C4B0522FF2106312846FEF7CAFAF1
:105430000A212046FAF71AFF04460A212046FAF705
:1054400015FFCDB2134B0522CF212846FEF7BAFA3D
:105450000A212046FAF70AFF04460A212046FAF7F5
:1054600005FFCDB20B4B052290212846FEF7AAFA84
:105470000A212046FAF7FAFE04460A212046FAF7E6
:10548000F5FECDB2034B05225A212846FEF79AFAC3
:1054900038BD0000FFFF000070B504460D46E0B2C5
:1054A000FDF710FC012070BD1CB5FDF7CDFCFDF72C
:1054B00003FCFBF77BFEE1204002FDF73DFB0FA064
:1054C000FAF7BCFEFCF7B8F91148FDF789FB11A00B
:1054D000FAF7B4FEFDF72CF8FDF7B8F90CE0114827
:1054E000FBF786FE694601A8FCF7C2FE0098FEF7AE
:1054F000A3FB0198FFF78EFDF1E70000496E697488
:1055000069616C69736174696F6E0D0A0000000057
:10551000A086010066696E20696E69742069326335
:105520000D0A000010270000FEB504460027FF43C7
:105530000126B0022040002800D0FEBD6846FCF7DE
:1055400055F869464878000189780843122800DA3E
:1055500000261248006808210840002805D1002EC6
:1055600002D00120FCF78CFDE7E70920C0060069A6
:10557000054628350A480068401B00020712002F24
:1055800009DD002E02D00120FCF77AFD04480068F6
:105590000921C906486000BFCFE70000C000002015
:1055A0001800002070B501250C002D051C4310D4F7
:1055B000EC4206D4AC420AD4994200D070BD90426D
:1055C00070BDE94217D4EB4215D4994270BD8942AF
:1055D00070BDEC4206D5AC42F9D58B4200D070BD0F
:1055E000824270BD6D004C00EC4204D25C00EC4283
:1055F00001D28B4270BD034C30B4FBF741FC30BC90
:1056000070BD00BF1900160470B501251C002D05E2
:105610000C4310D4EC4206D4AC420AD48B4200D0E6
:1056200070BD824270BDEB4217D4E94215D48B4263
:1056300070BD9B4270BDEC4206D5AC42F9D5994293
:1056400000D070BD904270BD6D005C00EC4204D291
:105650004C00EC4201D2994270BD0FB4034C0CBC1B
:1056600003BC30B4FBF70CFC30BC70BD1900160451
:1056700001230200DB050A430DD4DA4203D49A4227
:1056800007D488427047D84214D4D94212D48842F1
:10569000704780427047DA4203D59A42F9D5814279
:1056A00070475B004200DA4204D24A00DA4201D27B
:1056B0008142704710B5024AFBF72AFC10BD00BFBB
:1056C0000900160470B5420064414B005C41120EA3
:1056D00039D01B0E38D0FF2A3CD0FF2B3AD04002E5
:1056E0004902400A490A060045184E43000A090AC1
:1056F000D2184843ED017F3A0104731A4019190C7E
:105700004318990F04D001215B0849075B1A521C0A
:10571000D80904D3401CF50301D19D0607D0FF2A08
:1057200008D2D50506D0E4072043401970BD0125F5
:10573000A843F4E7002A01DCE00770BD2402FF2043
:105740002043C00570BD1B0EFF2A03D0FF2B01D0E4
:10575000E00770BDFF2645003606B54206D84D006D
:10576000B54203D8D218FF2A00D0E7E7004870BD41
:105770000000C07F01230A00DB0502430DD4DA429A
:1057800003D49A4207D481427047D94214D4D842F4
:1057900012D48142704789427047DA4203D59A4257
:1057A000F9D5884270475B004A00DA4204D24200D1
:1057B000DA4201D2884270474840414010B5024A5F
:1057C0004840FBF7A5FB10BD0900160400200000AF
:1057D000200000000001000001000000000800009F
:1057E0000100000000200000040000000010000084
:1057F000040000000F000000000000020000002074
:105800000000B040400000008000000000400000A8
:105810000200000004000000000800000400000076
:105820000400000004000000080000000400000064
:105830000100000004000000001000000000010151
:10584000010100000001010101010100010101014C
:105850000101010101010101010101010101010138
:105860000101010101010101010101010001010129
:10587000010101000000010101010000000001011F
:10588000010100000001010101010100010101000D
:1058900000010101010100000000010101010000FF
:1058A00000000101010101000001010100010101ED
:1058B00001010100000001010101000000000000E1
:1058C00001010101010101010101010101000000CB
:1058D00001010101010101010101010101010000BA
:1058E00001010101010101010101010101010100A9
:1058F0000101010101010101010101010101010198
:105900000101010101010000000000000000000091
:105910000001010101010000000000000000000082
:105920000000010101010000000000000000000073
:105930000000000101010000000000000000000064
:105940000000000001010100000000000000000054
:105950000000000000010101000000000000000044
:105960000000000000000101010000000000000034
:105970000000000000000001010100000000000024
:105980000000000000000000010101000000000014
:105990000000000000000000000101010000000004
:1059A00000000000000000000000010101000000F4
:1059B00000000000000000000000000101010000E4
:1059C00000000000000000000000000001010100D4
:1059D00000000000000000000000000000010101C4
:1059E00000000000000000000000000000000101B5
:1059F00001000000000000000000000000000001A5
:105A00000101000000000000000000000000000094
:105A10000101010000000000000000000000000083
:105A20000001010100000000000000000000000073
:105A30000000010101010000000000000000000062
:105A40000000000101010101000000000000000051
:105A50000000000001010101010100000000000040
:105A6000000000000000010101010101010101012C
:105A70000101010101010000010101010101010118
:105A80000101010101010100000001010101010109
:105A900001010101010101010000000001010101FA
:105AA00001010101010101010100000000010101EA
:105AB00001010000000000000000000000000000E4
:105AC00000000000010101010000000101010101CD
:105AD00001010000000000000000000000000000C4
