:020000041004E6
:1000000000600020D93704100F300410952B041025
:10001000AA5555AA45554C420000000000000000BA
:10002000000000000000000000000000714104100A
:100030000000000000000000D93104102D4A041017
:1000400021250410C1310410000000000000000050
:10005000814F0410F93F04107D220410DF51041079
:100060000000000000000000000000000000000090
:1000700000000000CD2104109B2B0410992B0410CC
:100080000000000007300410093004100B30041089
:100090000D3004109D380410D7310410E7220410ED
:1000A0000000000000000000000000000000000050
:1000B0000000000000000000000000000000000040
:1000C00000F002F800F0A3F80CA030C8083824189B
:1000D0002D18A246671EAB4654465D46AC4201D180
:1000E00000F095F87E460F3E0FCCB646012633420F
:1000F00000D0FB1AA246AB46334318472CA600009B
:10010000CCA60000103A02D378C878C1FAD85207BA
:1001100001D330C830C101D504680C6070470000BD
:100120000023002400250026103A01D378C1FBD813
:10013000520700D330C100D50B607047EFF3148233
:10014000EFF309811C4880F31488BFF36F8FF0B57B
:1001500043464C4655465E466746F8B4174CEFF3A7
:100160000883236006B4164C2068164C2060164C99
:100170002068164C2060164C2068164C2060164CE7
:10018000276800202060BFF34F8F30BF27600B4CE3
:10019000246884F3088882B003BCF8BC9846A14662
:1001A000AA46B346BC46F0BC04BC80F3098881F380
:1001B0001488BFF36F8F1047000000000800002074
:1001C00004ED00E00003002024ED00E00403002023
:1001D00000E200E0080300200800204010B5662976
:1001E00002D108F0EFFF10BD642902D100F080F8C1
:1001F00010BD002010BD1FB501F050FB0400002011
:10020000002108F0B5FEE0601FBD10B510BD044828
:100210008546FFF7F0FF08F007FC01F037FF00000C
:100220000060002003B4FFF7F0FF03BC01F0AAFF59
:1002300070B505460C46164602E00FCC0FC5103EC1
:10024000102EFAD2082E02D303CC03C5083E042E8A
:1002500007D301CC01C5361F03E021782970641C47
:100260006D1C761EF9D270BD0FB4054910B503AAF6
:10027000029801F071FA10BC08BC04B018470000E5
:10028000E8020020F8B50E46044600202062204611
:10029000E1688847002829D0252802D06268A16833
:1002A00020E0E16820460027884705001ED0284648
:1002B0004138192802D80127FF022035324620464E
:1002C00027602946FFF78AFF002808D0012804D0BC
:1002D000F61DF608F6000836D9E7361DD7E762683E
:1002E0002846A1689047206A401CCFE7206AF8BDE5
:1002F000F7B5002575291068009914A611D0C046DD
:10030000C046002802DA404211A608E000990968B8
:100310008A0701D50FA602E0490704D50EA60125DC
:1003200001E0C046C046009F0024243704E001F0ED
:1003300027FA30313955641C0028F8D12B46324653
:100340002146009800F0A3FFFEBD00000000000061
:100350002D0000002B0000002000000010B5044616
:1003600000F002F8204610BDF8B5042A2CD383070C
:1003700012D00B78491C0370401C521E83070BD00F
:100380000B78491C0370401C521E830704D00B7865
:10039000491C0370401C521E8B079B0F05D0C91AC5
:1003A000DF002023DE1B08C90AE0FFF741FFF8BD8C
:1003B0001D4608C9FD401C46B4402C4310C0121F06
:1003C000042AF5D2F308C91A521EF0D40B78491C3E
:1003D0000370401C521EEAD40B78491C0370401C69
:1003E000012AE4D409780170F8BD002203098B4288
:1003F0002CD3030A8B4211D300239C464EE00346C4
:100400000B433CD4002243088B4231D303098B4277
:100410001CD3030A8B4201D394463FE0C3098B42AD
:1004200001D3CB01C01A524183098B4201D38B0106
:10043000C01A524143098B4201D34B01C01A5241A9
:1004400003098B4201D30B01C01A5241C3088B42EE
:1004500001D3CB00C01A524183088B4201D38B00D9
:10046000C01A524143088B4201D34B00C01A52417B
:10047000411A00D201465241104670475DE0CA0F52
:1004800000D04942031000D34042534000229C4612
:1004900003098B422DD3030A8B4212D3FC2289011C
:1004A00012BA030A8B420CD3890192118B4208D3F2
:1004B000890192118B4204D389013AD0921100E054
:1004C0008909C3098B4201D3CB01C01A5241830968
:1004D0008B4201D38B01C01A524143098B4201D395
:1004E0004B01C01A524103098B4201D30B01C01AC0
:1004F0005241C3088B4201D3CB00C01A524183083A
:100500008B4201D38B00C01A5241D9D243088B428F
:1005100001D34B00C01A5241411A00D20146634632
:1005200052415B10104601D34042002B00D5494296
:10053000704763465B1000D3404201B50020C046BF
:10054000C04602BD0246C80FC00781434B0030B50C
:100550004B405B009B0D20D01923DB06C9180123FB
:100560001B05994220DB0324A40704251346AB4056
:100570000BD3002B04D1EB0613409B00E34204D4C1
:1005800001246407002312195941FF231B059942D6
:100590000BD2C9000143500F09E0CB0204D501433F
:1005A0000803024305D0054830BDFF21C9050843B3
:1005B00030BD084607210905884330BD0000C07FD3
:1005C000F0B50C46871A9C410D46861A9D4103D210
:1005D000C01BA141D21963410D0D1F0DC94EEC1B6B
:1005E000AE435CD07F057F0D0026002F51D02D0536
:1005F000AC46A943DD020123ED0A1B051D43202360
:100600001B1B24D41746E740381871412F46E7409A
:10061000CC199D402818314661410C0D27D1614409
:100620009A4013D50023401C594152000ED1400876
:10063000400001224B005205D34207D3052040075A
:10064000C14201D5B04900E0B0493046F0BD6B0071
:10065000002A00D001229A181F23203C1B1B01D521
:10066000002302E0E540281871410C0DD7D0012489
:1006700024050919C407CD0740084908E40F284399
:100680006144002CD5D00024401C61419A40D0D157
:10069000CDE76A05520DD9D1C90FC907D5E79C4DE1
:1006A0004E00002801D0012400E0002434195F002E
:1006B000002A01D0012600E00026BE19954FAC4269
:1006C0000CD8AE420AD8B44206D001256D05EC42E2
:1006D000BCD010461946F0BD9942FCD000203946E6
:1006E000F0BDF0B51FB40C460F46811A9F41254658
:1006F000861A9D4106D20125ED076F40401ABC4184
:1007000052187B41210D1E0D8D1BAC467D4D8D4336
:100710007ED075056D0D7CD00D05AE46AC431B0338
:100720001B0B794D52429D41202366469B1B14D3DF
:100730001746F740381800260090744160462F464F
:100740000741E41900989D402818664116D4714667
:1007500071189A4025D5012320E093182A466A4152
:100760005200002B00D0521C1E23203E9B1B002B4E
:1007700061DD3541EE1728186641E8D5001876414D
:100780005B1C9A4000D3401C4B05F3181524E34032
:1007900010D3002B52D071467118D30FC01802D35A
:1007A000491C05B0F0BD0123DB079A42F9D140088E
:1007B0004000F6E701225205B21801D1002853D0BB
:1007C0000123CC0ADB029943891E002A08D1020CBE
:1007D00003D0020C0004103902E002460020203948
:1007E0000023550B05D112020823550B01D15201EC
:1007F0000D23550C01D112011B1DD50C01D1920006
:100800009B1C150D01D152005B1C2025EE1A01E046
:100810002CE022E00546F54015439840CA1AE1074E
:1008200069181305C918002ABBDA03204007081805
:10083000C10FC9070FE071466118B2E7F107400820
:100840000843711071444A000CD001235B059A42A1
:10085000A7D2C90FC9070020A3E74905490D26D132
:10086000002001E00028F4D100219AE7284D66001D
:10087000002801D0012100E0002171185F00002A4A
:1008800001D0012600E00026BE19224FA94210D84F
:10089000AE420ED8B14208D001256D05E94206D01E
:1008A0001946A802414010467BE79C4201D02146F0
:1008B00077E70020394674E710B50C465C4005D553
:1008C0000124E4076340FFF70CFF10BDFFF778FE3B
:1008D00010BD30B40C465C4004D50124E4076340ED
:1008E00030BC6DE630BCFCE670B50124E407614025
:1008F0000D465D4002D4FFF763FE70BD6340FFF715
:10090000F0FE70BDFF0700000000F0FF0000F07F68
:100910000000E0FF0000F87FF0B5F94D0C091E095A
:100920002C402E402F468BB0A7437DD0B543FCD042
:10093000002E7AD0002CFCD00D465D40ED0F2543F3
:10094000AC1BFF25AD0464190894C502440DC9020F
:100950002143500DDC0204430120C007014304433E
:10096000D2020191200C110C00958C460104234603
:100970008B430A9161460904E24D8A430991010AB9
:100980007D4449198039097805464D4301266D1883
:10099000F605751B6943C90C640B891C4C4364182C
:1009A000B5012C1B250C2E04B4434C434D43210CA4
:1009B000691889090591009DE90701D00121C9073E
:1009C00004912C4601996708CD072F434C08059DDB
:1009D000E10B4D432D0C29466646754302950D46A5
:1009E00045432E46029D7D1BB44100950D465D4357
:1009F00001942C0C2F040D465543AE462D0C3D435F
:100A0000029503947546049C2D04641B049406D23D
:100A1000029C039D641C002675410395029401AC61
:100A200070CC009F7D1B01E03EE162E1B44109040E
:100A30000095079101940599A4086143090C0C469F
:100A40004443650BE7040C4666467443A646640BB4
:100A50003C43039502947446049DE4042C1B0494C7
:100A600006D2029C039D641C0026754103950294E6
:100A700001AC70CC009F7D1BB44101940C465C43DB
:100A80000095650FE7000C465443A646640F3C43AF
:100A9000039502947446049DE4002C1B049406D232
:100AA000029C039D641C002675410395029401ACD1
:100AB00070CC009F7D1BB441AE09AF06049DC900F8
:100AC000AD092F43049DA406AD060495079D34434C
:100AD00069180791059DE10B4D432D0C294666468B
:100AE000754302950D4645432E46029D7D1BB4413C
:100AF00000950D465D4301942C0C2F040D46554383
:100B0000AE462D0C3D43029503947546049C2D047E
:100B1000641B049406D2029C039D641C002675414C
:100B20000395029401AC70CC009F7D1BB4410194ED
:100B30008C050694079C890A611800950791019C11
:100B40000599A4086143090C0D464543680BEF0461
:100B50000D46644665436C0B3C43049FED047D1BCE
:100B6000AC4602D20025641C6841009E019D371BE3
:100B700085410846584301950C46460FC50054432D
:100B8000600F28436546E4002C1B02D20025401C60
:100B90006E41019D3F1AB5412846BD098006284394
:100BA0008446A009BF064E020699A406761807439C
:100BB000079D002068410A99079019430020099B6E
:100BC00000906046FF1913434041E20F64003A432E
:100BD000A4460446D71A8C41A04203D901200090B4
:100BE00020463A46C70F941840416246D20F22432E
:100BF000644664000494009CBE466400D71AA44670
:100C0000044602978C417746002F01D1A04204D9B7
:100C10006046401C8446029A2046C40FA64694189B
:100C20004041049A0546D20F224364466400D31A19
:100C30008D417146002901D1A84202D928461A46A1
:100C4000641C10430122002800D0164361020020DA
:100C5000079B891904465C410223002C02DB4918DA
:100C600013466441089DCE0A2D145D194B05670596
:100C7000E10A2C050D1908993E43C9076940002B6C
:100C800008D0934006D30022761C5141002B01D19D
:100C9000760876001C4A002D43DB154241D0AA435A
:100CA0003FD030460BB0F0BD06180D464D41174CF5
:100CB0007642AC411AD395181C465C41134A6D42EA
:100CC000A24113D3012252054C00D4420AD15C0048
:100CD000D4420BD04B4002D592021143E2E74900C7
:100CE0004908DFE75940C90FC90718E00020084943
:100CF000D8E7054801420DD10342F7D0F2E70000E2
:100D00000000FF074E9C00000000F07F0000E0FFA5
:100D10000000F87F114859400143C01241400020B3
:100D2000C0E70123089A9B069A4205DC032252077A
:100D30008918C90FC907B5E7052252078918074A5C
:100D40001143D2125140ADE770B515461C4602461C
:100D50000B4628462146FFF7DFFD70BDFFFFFF7FF2
:100D60001F22030C02D10F22000402D0030E03D075
:100D700004E00020014670470002083A030F01D149
:100D80000001121F830F01D18000921E002801DB99
:100D90004000521E120551184205C012411810465B
:100DA0007047C10FC90700D040420122920711438A
:100DB000D6E701218907D3E7F0B58B4C0F0925460B
:100DC00089B0BD437BD01D092646AE43FAD00E46FE
:100DD0005E402740F60F3E43254071D0240121425A
:100DE000FBD0FF24AD19A4042D1B039501252D056F
:100DF000DB02DB0AC9022B43C90A29431E01090190
:100E0000040F130F050121431701880B820391433F
:100E10002D098C46A90B1E438A039543B30B9A03F5
:100E200096433F09BA0B9403A74302962E467E438E
:100E30000497B6464E19D7190C46019654430597A8
:100E40007E43371B7646BF1B3601B646BE0B3619AE
:100E500000967646BC043719009C01D3641C0094AC
:100E60006400002F01D001263443029E049F754385
:100E700066467E430496760034196E003419009459
:100E8000029C019E1C196643751BAE46069465467E
:100E90004519059C05956C43594375460891691A97
:100EA0000191049E01465143A41B0491611A009CC8
:100EB0000791E10605D061090122114302E072E0C9
:100EC0006EE06109089D00272C0A2D066918049D13
:100ED0007C412A0A2D066918019D6241AC0DAD02C4
:100EE0006D185441079A910D920255196141029A69
:100EF000644658435443069B059A5A43121A131BDF
:100F00009A0E9B015B187A41010B0005C3185141F1
:100F1000220A200644195A419A4200D2491C012053
:100F20004002814203D315230226F64302E0142334
:100F30000326F6432020C51AA9401746AF40DA40E1
:100F40000A4320460399D84009147318190551180B
:100F5000039A3843D2075140AC4009D00122944053
:100F600006D30022401C5141002C01D14008400012
:100F70001E4A934212D3012203989206904207DB45
:100F80000520400709181A480143C012414004E0F7
:100F9000032040070818C10FC907002009B0F0BDA1
:100FA0000020F107FAE705180C464C4111486D4244
:100FB000A04115D394181A465A410E4864429041F4
:100FC0000ED301204A004005824209D35A008242D2
:100FD00006D35940C90F084AC90700201143DDE76D
:100FE00000200649DAE700000000FF07FE070000C6
:100FF000FFFFFF7F0000E0FF0000F07F0000F87FB0
:101000000121C9050123411842001B06D3185B0EBC
:101010000AD0C1100722D206891840075242D14295
:1010200001D5520089187047090208D50146002AE7
:1010300003D0C10FC9070020704710467047420215
:1010400002D0002002497047072109050143F4E757
:101050000000F87FF0B5FF252D04C609C209FF275F
:1010600004462E400137CB093E4348402A402B40DE
:101070000746002A6BD0002B69D0AA4267D0AB424A
:1010800065D0002800DA32460125ED0529432C43BE
:1010900009022002090AD21A4B0C7F24E31A434C9E
:1010A000000A7C44E35C7D242404121914145B00C0
:1010B000A218884201D3521C00E0400049420C466D
:1010C0005C4324115C43DB016415E318040A5C43B0
:1010D000C502200D0C4644436419250A5D432303D1
:1010E000EC0C0D46654300030019EB184C42A3427B
:1010F00001D35B18401CD4052018002B07D05B00DF
:10110000C91804D3401C002901D1400840003F21E8
:1011100089048A4209D3002A08DC1106090F04D089
:10112000032149074018C00FC007F0BD012241004C
:10113000120689187F2252069142F6D205214907EC
:10114000C84201D59010F0BDFF20C005F0BD002FB2
:1011500000DA32461648AA4207D2AB4205D219023B
:10116000090E17D0F80FC007F0BDFF2563002D064C
:10117000AB42F9D84900A942F6D8AB4201D1A94205
:10118000F2D0A94201D1002101E061004908D00557
:101190000843F0BD1102090EFBD0FF200243D00529
:1011A000F0BD0A460146104654E70000AC95000029
:1011B0000000C07F10B501469E240002CA15A30797
:1011C000002A02D01843002A04DBA21A002A0CDDF0
:1011D000D04010BD1206120E01D140004008A21AE4
:1011E00003D4D04040420028F3DDFF22480012061D
:1011F000904201D9002010BDC817C043584010BD0F
:101200000102C21504D00123DB071943002A0ADBBF
:101210009E239A1A02D40846D0407047FF2241000C
:101220001206914201D900207047C017C043704791
:101230001F22030C02D10F2200041CD0030E01D187
:101240000002083A030F01D10001121F830F01D1E0
:101250008000921E002801DB4000521ED20551186A
:10126000021251181922904004D3491C002801D1C0
:101270004908490008467047C10FC90700D04042DD
:10128000012292071143D3E701218907D0E7FFB577
:1012900004460D4681B0243000902168880604D5AC
:1012A0001022E0699143216000E00120A84201DDA5
:1012B000471B00E000270498A1697A191018081A42
:1012C000A0612078C00602D42046C046C046002651
:1012D00008E003986268A168805D9047206A401C1E
:1012E000761C206204988642F3DB2078C0060AD57B
:1012F0002046C046C04606E06268A168302090479C
:10130000206A401C206238467F1E0028F4DC07E07B
:1013100000986268A168405D9047206A401C206286
:1013200028466D1E0028F3DC2046C046C0462078C3
:10133000000602D5022005B0F0BD0120FBE7000049
:101340007047FFB50C461E468FB003CA089009913E
:101350004F007D0D00D16D1E002108460020C046C3
:101360000321099A89050840002A03DA82008018BF
:1013700040080840800D01280A9002DD0020C0438B
:101380000A90089807430DD0F048F14928184843BF
:101390000714189800281DD07542291E1DDD0A98D3
:1013A00042421BE01898012802D00020302104E0BE
:1013B0000020F24305E02154401CB042FBDB3046E4
:1013C0000022189B002121540F998B600A6048600D
:1013D00013B0F0BDBD1B6D1CDFE70A9A002900DACF
:1013E00069420BA800F0F8FA0BAB07CB03AB07C3BD
:1013F0000899099800F05CFB6B4607C30146D54885
:101400000918002D00910BDDD24903980A9A494230
:101410004018002303A90390684600F0B9FD08E0D6
:1014200003990A9A0023081803A90390684600F05C
:1014300059FD6B4607C30004000C03D00020C043D5
:10144000410800E01046189A002A03D000220092BA
:1014500015461EE0751E05D400F024FA30326255A0
:101460006D1EF9D501220843079602D000227F1C89
:1014700004E02078302801D100227F1E002A069740
:1014800087D01EE0112D07DA00F00CFA30326255D9
:101490006D1C02460A43F5D1084303D0009800288A
:1014A00019D00EE00021681E05E0235C625C6354E5
:1014B0002254401E491C8142F7DBA81B401E0795A1
:1014C0000690079A18990020A0540F98079B069A37
:1014D00081600CC07CE711260020189059E7D21DCE
:1014E000F0B50D460446D10893B0C90003C90C906D
:1014F0000D9103F09BFE02460D98C00F01D02D20E8
:1015000007E02068810701D52B2002E04007C00FCB
:101510004001032A0F9001D0072A05DB0346294624
:10152000204600F015FA0EE12078800601D5E76923
:1015300000E006272846652D04D0662814D0672DC4
:1015400069D12DE00020112F009001DB112300E074
:101550007B1C0CAA03A910A8FFF7F3FE1199002623
:1015600010987D1C0E9142E001203B460CAAC0075A
:101570000B900120009003A910A8FFF7E2FE119D37
:1015800012981099002600280E9501D1781C0D188C
:10159000781B02D446427D1C761EE81B00903AE080
:1015A000012F00DA01270020112F009001DD112307
:1015B00000E03B460CAA03A910A8FFF7C2FE119950
:1015C0003D46109800260E91217809070BD40E99FC
:1015D000A94200DA0D4603A9012D04DD4A19203A7B
:1015E000D27F302A06D0B84201DA011D04DA012187
:1015F00000910FE06D1EEFE7002802DC86192D1A1E
:1016000003E0411CA94200DD0D46801B401C0090F8
:101610000120C0070B902078000705D40098A8424D
:1016200002DB0020C043009069460020C8720B987E
:10163000012102AF0337C907884225D0022010904C
:101640002B2011900B9800280BDA40420B902D2094
:10165000119006E00B9800F093F830317F1E0B904C
:1016600039701099481E00291090F3DC0B9800285F
:10167000F0D111987F1E38702088000501D54520D3
:1016800000E065207F1E387001A8C01BC01D0B90B4
:101690000F98002800D0012041190098C0170918A0
:1016A0000B980818A169081A401EA0612078C0068E
:1016B00002D42046C046C0460F98002805D0626874
:1016C000A1689047206A401C20622078C00625D57A
:1016D0002046C046C04621E0002E07DB0E98B042EF
:1016E00004DD03A86268805DA16802E06268A16809
:1016F00030209047206A761C401C20620098401ED3
:10170000002800900AD100F0C9F8C068626801683A
:10171000405CA1689047206A401C206228466D1EEC
:101720000028D9DC07E062683878A1687F1C904700
:10173000206A401C20620B99481E00290B90F2DCA5
:101740002046C046C046032042E6000001FCFFFFE1
:10175000104D0000E1DFFFFF084B70B50D467B44E4
:1017600000F0E3F80446284600F062FC002802D0AE
:101770000020C04370BD204670BD00003B720000D9
:1017800001468008081A02091018020A1018020CF3
:101790001018C008820012185200891A01E0401C7B
:1017A0000A390A29FBD27047F8B5224C4E00069D33
:1017B000A6420AD8A64201D1002806D15E00A64260
:1017C00003D8A6420AD1002A08D00D2424042542B9
:1017D0002CD02946002000F02FFCF8BD0C461C43FD
:1017E0000CD4994202D0EFF30080F8BD904202D0B1
:1017F000EFF30080F8BDEFF30080F8BD0924240763
:10180000E5008B4206D0EFF30080A043591A06D2C0
:10181000284304E0101A05D3EFF30080A04380F3BF
:101820000088F8BDEFF30080A043F1E7009500F0D9
:101830001BFCF8BD0000E0FF10B5FF231B064400B1
:101840009C421DD84C009C421AD80346124A0B43B6
:1018500007D4401A02D3EFF3008010BDEFF30080ED
:1018600010BD081A06D2EFF3008001219043C9078A
:10187000084302E0EFF30080904380F3008810BD3E
:101880000D231B041A4204D01146002000F0D4FBA3
:1018900010BD00F0F3FB10BD000000900048704741
:1018A000040900200B4670B50246890780080843EA
:1018B00019469D08141AA941250908070543080976
:1018C0002C194841250A01060D43010A2C194141F2
:1018D000200C0D0428430D0C00194D410021401926
:1018E0004D41C00869070843E908840F8D0025436E
:1018F000840024184D4124196D41121BAB4107E0AF
:101900000925ED432C11521963410024401C61410B
:101910001C460A250026551BB441F1D270BD0000BB
:1019200001694A1C02610878704700B58FB00291C6
:1019300000210591054901937944039111460490D2
:101940006846FEF79FFC0FB000BD0000E5FFFFFFFB
:10195000F8B51F46044601230068DB020326014652
:101960001840072A05DB002801D017A506E017A5B7
:1019700004E0002801D016A500E016A51020814340
:101980002160A069C01E002FA06101D0401EA0618F
:101990002046C046C046002F09D038466268A1687C
:1019A0009047206A401C2062C01C206206E0206A2A
:1019B000FAE762682878A1686D1C9047761EF8D215
:1019C0002046C046C046F8BD4E414E006E616E00D6
:1019D000494E4600696E6600F7B516468AB0334830
:1019E00078446C4603467C33C06F5A689B680DC4CC
:1019F0002E487844763003AC0DC80DC43720C001A2
:101A0000081837211B30FEF7FAFC05460C46803DCE
:101A10001B3C02D56442012000E000200027099011
:101A200010E0E0070CD00C2020497843794432467E
:101A30004C3941186846012300F054FA6B4607C33D
:101A400064107F1C002CECD1184F7F442E3F16E011
:101A5000E80712D02001C0190EC80691089307921A
:101A60000068F04201D1981908903246012306A976
:101A700003A800F037FA03AB07C36D10641C002DF8
:101A8000E6D10998002806D032466946012303A80A
:101A900000F07EFA05E001233246694603A800F013
:101AA00021FA0A9B07C30DB0F0BD0000B08C000006
:101AB000034640000A4610B5400D0BD00121C9076E
:101AC0000F24A40200191C0364082143540D214370
:101AD000D20207E000210120F2E7D40F49002143A0
:101AE0005200401E0029F8DADB0FDB07184310BD57
:101AF000FFB50D46144685B04868516803F070FB89
:101B000000910190A868A16803F06AFB029103901C
:101B1000A868616803F064FB029A1218824202927C
:101B200001D2012000E00020019A0B18D2180028F1
:101B3000019202D08A4202D903E08A4201D20120F6
:101B400000E000200099081800906868A16803F080
:101B500047FB029A12188242029201D2012000E051
:101B60000020019A0B18D2180028019202D08A4254
:101B700002D903E08A4201D2012000E0002000994E
:101B8000081800902868216840004900400849086A
:101B90004018FA49471814E001994000C90F08435A
:101BA0000090019802994000C90F084301900298E3
:101BB00003994000C90F08430290039840007F1E1C
:101BC000039000980028E7DA0898002801D0EC4E2E
:101BD00000E00026B74201DA012000E000200028E2
:101BE00004902AD0F71BF806C00E15D0029B2021C6
:101BF000091A039A8B401A430392029A019BC2402E
:101C00008B401A430292019A009BC2408B4000997C
:101C10001A430192C14000917B110DD06F46032001
:101C2000C11A03D500218200B95003E08A00810067
:101C3000BA587A50401EF3D53746039802990028C7
:101C400000D00120014308980291002808460CD0DA
:101C5000002800D001200199019A4905084301217B
:101C6000D20AC902D202019200E001210E9B012298
:101C7000D207012B02D0002B03D013E0002807D19C
:101C800020E0904204D890420CD1019B0B4209D035
:101C9000019B5918019105D10099491C009101D16E
:101CA0007F1C009200280DD0102108460020C0465D
:101CB0000498002806D00F98002803D00821084671
:101CC0000020C04628682168019B009A4840C10F47
:101CD0000598C90739430EC009B0F0BDFFB587B0FC
:101CE000099A0898089953689268406889689646E6
:101CF0000022039317469446089A12685300099AE3
:101D00005B081268520052089A1A9E4BD4180A9A1D
:101D1000002A01D0352200E0402206920022012351
:101D200015460492DB07059324E0002D05D1754686
:101D30000346039E4D1BB34109D375466646039B7C
:101D4000491B049D9841059B7519AC465F4163464C
:101D50003B4308D0059B049EDD0776082E435B08B5
:101D60000496059301E0521E641EC50FED07491845
:101D70004041521C069B9A42D7DB002D04D1754688
:101D8000039A6B1A824101D203200CE0039A0B469E
:101D90006B404240134303D0014303D0012002E0D3
:101DA000022000E00020614601910021009702918D
:101DB0000A99002905D0614640020143704B019108
:101DC00002E08007002302909C4201DA012000E03B
:101DD000002007003AD01A1BD006C00E15D0029D75
:101DE0002021019C091AC5408C402543029C8C404F
:101DF00000D001242543019C0295009DC4408D40E4
:101E000000992C430194C140009154111DD06D469E
:101E10000221002202290CD10320001B07E0002828
:101E200004DB8600AE59002E00D00122401C03289E
:101E3000F5DB081B02D588002A5004E080002858F2
:101E400010438A00A850491EE3D51C460A98002872
:101E500002980CD0002800D001200199019A490570
:101E600008430121D20AC902D202019200E00121F5
:101E7000109B0122D207012B02D0002B03D013E0CC
:101E8000002807D11FE0904204D890420CD1019B5A
:101E90000B4209D0019B5918019105D10099491CA9
:101EA000009101D1641C009200280CD0102108463A
:101EB0000020C046002F06D01198002803D008212A
:101EC00008460020C04608980999019A009B0068BE
:101ED00009684840C10F0798C907214382600AC0BA
:101EE0000BB0F0BD00B585B0019300920A460146E3
:101EF000002302A8FFF7FCFD02A807C805B000BD3B
:101F0000FFB50A461F4685B007990193012300914A
:101F1000014602A8FFF7ECFD02990398049ECA0F40
:101F20004900D20700920F22490892028C1A002120
:101F3000002800DB0C46450013486D08844214D38A
:101F4000079A002A04DA441E0026104DF64302E0E8
:101F500004460D460E46102108460020C046002FBC
:101F600003D0042108460020C0462005E90A0843A2
:101F7000009908436905F20A1143ADE602C0FFFF6C
:101F8000013C0000FF3F0000FF070000FFFFFF7F54
:101F900000B585B0019300920A460146002302A8CD
:101FA000FFF79CFE02A807C8A8E7FFB50A461F4630
:101FB00085B00799019301230091014602A8FFF71C
:101FC0008DFE02990398049ECA0F4900D207009221
:101FD0000F22490892028C1A0021002800DB0C46CF
:101FE000450011486D08844214D3079A002A04DA88
:101FF000441E00260D4DF64302E004460D460E46F3
:10200000102108460020C046002F03D004210846B6
:102010000020C0462005E90A0843009908436905E5
:10202000F20A114358E60000FF070000FFFFFF7FA0
:10203000C068802108407047C80212D54803400F8D
:10204000002804D0C803C043012188407047EFF343
:1020500000800001000903210907084380F300887C
:10206000704700207047000010B500200249029A16
:1020700000F058F810BD00000000F87F10B50248CD
:1020800000F050F810BD00000000C07F10B50446FD
:10209000C046C0462046FEF7C5F810BD024670B5E2
:1020A0000A4392072AD11E4DEE0104C808C9541BE9
:1020B0009443344017D0D0B2D9B2401A210601431C
:1020C00010D190B299B2401A210401430AD11002F2
:1020D0001902000A090A401A2102014302D1100E16
:1020E000190E401A70BD9A42DFD010BA19BA884250
:1020F00001D9012070BD0020C04370BD02780B786B
:10210000401C491C002A09D09A4207D102780B785A
:10211000401C491C002A01D09A42EFD0D01A70BD51
:102120000101010110B50C461107090F092904D05E
:102130000A290AD008290CD104E011460820FFF72B
:102140007BFF06E0510606D501E0510601D50120CE
:10215000C007214610BDD10607D501010909CC08E9
:102160004907000E0006044309E0410F2002490719
:10217000000A0143200E00061D22D14101430846FA
:10218000E7E7000001491820ABBEFEE72600020089
:10219000704730B58C180278401C13071B0F01D113
:1021A0000378401C120906D10278401C03E0057830
:1021B000401C0D70491C5B1EF9D101E00B70491CDD
:1021C000521EFBD1A142E6D3002030BD7047F8B5C6
:1021D00004460D4616461F462A2000F000FF210443
:1021E000080E00F006FFE0B200F003FF3104080E15
:1021F00000F0FFFEF0B200F0FCFE2B2000F0EFFE3E
:102200002904080E00F0F5FEE8B200F0F2FE3904F1
:10221000080E00F0EEFEF8B200F0EBFE2C2000F00D
:10222000DEFEF8BD10B50146002004E0114A125C44
:10223000521C1218D0B20F4A125C002AF6D1C21CEE
:10224000202A0CDA02220B4B1A543523094C421C6B
:10225000A3542346821C99540023C21CA354022277
:10226000054B1A7035225A701A4691700022DA70A6
:1022700010BD0000B00400201C00002010B500F0CC
:10228000BFFF10BD10B50A4C0A48844200D90EE0C9
:102290002002000A401E084948610321081F00F07F
:1022A000DBFE0020044988610720086100BF10BDE3
:1022B0007F3E0000FFFFFF0000E000E001480068F3
:1022C00070470000CC02002000B50146FFF7F6FF82
:1022D000024600BFFFF7F2FF801A8842FAD300BD22
:1022E0000146012070477047F0B58BB005460E4699
:1022F0001C224EA16846FDF79BFF07A800F0E4F9F9
:10230000002D73D04021684681734C21C172202179
:102310000172B22141745B2101754B48846A200C23
:102320004A4988420BD16846C17D70208143684686
:10233000C175C07D6107490E08436946C8754248AA
:10234000446A200C414988420BD1684641793020CB
:102350008143684641714079A107890E0843694667
:10236000487139484038046B200C384988420BD1F9
:102370006846C07D810889006846C175C07DA10797
:10238000890F08436946C8756846C17A042001432D
:102390006846C172407F00016946897F0843122860
:1023A0000ADB6846C17D042081436846C175C07D53
:1023B0000A900A98FFF736FF684680B201210904A7
:1023C00008430921C906C86000BF0920C006C068CB
:1023D0000121090408400028F7D16946487F00011F
:1023E000897F0843122801DB02F06EFA00BF18480B
:1023F000008B0028FBD00120154908831720888115
:1024000000200861002E0BD00920C006076900BF1C
:102410000920C00600691021084039408842F7D0E1
:102420000C480D4908600BB0F0BD0000023F0002EF
:102430003E30023C20023B4C023A400239B20234A8
:102440005B02350B00000000C007001055AA000019
:1024500000001048CCBCECFC1400002001218907CE
:1024600088627047002907D001229207D26902438F
:1024700001239B07DA6106E001229207D2698243B9
:1024800001239B07DA6170474168012907D1890759
:1024900009690268114301229207116107E00121D5
:1024A00089070969026891430122920711618168D5
:1024B00001290ED189078969026811430122920717
:1024C0009161114649690268914301229207516165
:1024D0001AE0816800290FD1012189078969026802
:1024E0009143012292079161114649690268914323
:1024F00001229207516107E00121890749690268B9
:102500001143012292075161704701460120800763
:10251000406A0840002801D0012070470020FCE7F5
:1025200010B50120C002FFF7F0FF012807D1C0025B
:10253000FFF794FF09480068401C08490860202004
:10254000FFF7E3FF012807D12020FFF787FF0448AA
:102550000078401C0249087010BD000014030020E0
:102560001003002070B5014600220A79087900287E
:1025700008D10120800740680C68A0430124A4070B
:1025800060600BE00879062808D10022012080074E
:1025900040680C6820430124A4076060002058E0D4
:1025A0000C68C440E307DB0F002B50D008280EDA7C
:1025B0000124A407E46A86000F25B540AC438600D9
:1025C0001546B5402C430125AD07EC623FE00728D6
:1025D00014DD102812DA0124A407246B0546083DF7
:1025E000AE000F25B540AC430546083DAE0015468C
:1025F000B5402C430125AD072C6328E00F2814DDDE
:10260000182812DA0124A407646B0546103DAE00B9
:102610000F25B540AC430546103DAE001546B5400C
:102620002C430125AD076C6311E017280FDD1D4C0D
:10263000248B0546183DAE000F25B540AC4305463A
:10264000183DAE001546B5402C43164D2C83441C56
:10265000E0B21A28A4DB4879012807D18007C068B6
:102660000C6820430124A407E06007E001208007F4
:10267000C0680C68A0430124A407E06088790128A1
:1026800007D1800780680C6820430124A407A0605C
:1026900007E00120800780680C68A0430124A4079C
:1026A000A06070BD20000040014908607047000034
:1026B0004000004001218907C86370470021016084
:1026C000017181714171704710B51549154A144B5C
:1026D000283BDB691B061B0F4370114B283BDB6952
:1026E0001B071B0F83700B6843600F4C4368A342AA
:1026F00009D113680D4CA34202D10423037004E0F6
:102700000223037001E0012303704378002B01D101
:1027100001234370064B9B8A5B1C9B00836010BDAA
:10272000280090401C00001041A0000244A000F2CC
:1027300000001040FFB585B004460D461646002047
:10274000049002F009FA0746284602F0DBFB38182D
:102750000290272C01DDC020049003A800F03EFD6C
:10276000002801D0C4200490049800282CD118A17E
:1027700003C9019100906946002000F019FF002272
:102780002146104600F004FF134A14480168002057
:1027900001F004F8002012490870012048700298E6
:1027A0004860089888600846C66000208862C86251
:1027B0000C4808630E984863084600F02DFF08484F
:1027C00000F050FE049000BF049809B0F0BD000076
:1027D000FFFFFFFFFF00000055555500D00200200D
:1027E00090030020E122041001460248016000200D
:1027F00070470000D0020020F8B5044600BF062054
:1028000001218140284A116000BF00BFA1786846BD
:1028100081702179C1702188018002F0D5F92348A7
:1028200002F082F900202249C8600120487100208E
:1028300020494872887220881D49886000200874E9
:102840004874A18808030A21FDF7D9FD18490860DA
:102850000020087108460068002805D1164802F0DB
:1028600045FA134908600EE0134802F03FFA104998
:102870000968884203D2104802F038FA01E00C4897
:1028800000680B4908600D480D49886000204861C8
:1028900002F062F9064A1268002385184B412A4665
:1028A000074802F069FEF8BD00E100E0780300206F
:1028B0003803002068030020FFEFFF00F9560410E2
:1028C000500300207CB5002001905748407A002832
:1028D00009D002F041F9544B0CCB101A8B4102D2B3
:1028E00000205149487252E05048007C4F49497CD1
:1028F000884205DB4D48007C4C49497C401A07E082
:102900004A48007C4949497C401AFF210131081A94
:10291000C5B24649C868694602F0E2FC4349C8604E
:10292000009C0AE0266900202073A068002802D0DD
:102930002046A1688847344600BF002CF2D13B49AD
:10294000C86801A902F06CFE3849C8606846007981
:10295000012816D102F080FC064672B63348007C8E
:10296000401C3249497C884202D13048007C02E058
:102970002E48007C401C2D490874304602F0AAFC09
:1029800000BF2A48407C40192849487400BF2748A6
:10299000007C2649497C884205DB2448007C234989
:1029A000497C401A07E02148007C2049497C401AB4
:1029B000FF210131081A002896D11C48007900280F
:1029C0001AD002F089F900282DD11849087102F0B7
:1029D0003FFA174802F0A8F801A9134802F0A8FC32
:1029E00002F0BAF8114A1268002384184B412246BB
:1029F000104802F0C1FD16E00D48007C002812D0FE
:102A000002F0AAF80A4A146852681925AD03002397
:102A100064195A41201A8A4105D2064800F054F838
:102A2000044802F069FE7CBD6803002038030020E2
:102A3000780300205003002010B50120000702F0A9
:102A400061F90848007C401C0649497C884202D153
:102A50000448007C02E00348007C401C01490874E3
:102A600010BD000038030020F8B504460D46164698
:102A7000002100911248C57206721248036840682E
:102A800010490968611A0022591850410C4A116016
:102A90005060002011464872012088726946104635
:102AA00002F046FC68460078002802D00020044965
:102AB0008872012002F006FE68460078F8BD00002A
:102AC0006803002078030020F8B505461949C86856
:102AD000294602F03BFD044600200090287315486B
:102AE000C068A04222D0002C20D06946204602F0C7
:102AF00097FD1049C86068460078002818D002F099
:102B0000ABFB064672B60B48007C401C0949497C69
:102B1000884202D10748007C02E00648007C401C45
:102B200004490874304602F0D5FB01E00148C46056
:102B3000F8BD000038030020FFB581B006461446FA
:102B40001D460220FFF7B0FD2C2000F048FA321994
:102B5000029B19463046FFF73AFB012707E029049C
:102B6000080E00F046FAE8B200F043FA7F1CA742D4
:102B7000F5D90220FFF79EFD05B0F0BDF8B504467B
:102B80000E4615461F46601B3B462A463146FFF758
:102B9000D3FFF8BD00BFFEE7704770470A884B8837
:102BA0005B001A438B881A43CB881A430B891A435C
:102BB0004B89DB031A43C26070478163704701741D
:102BC000704701688022914380310160704702465E
:102BD000106B0840002801D0012070470020FCE75E
:102BE000014648690007800F70470000F8B50446A9
:102BF0000D462068400840002060206803214903FA
:102C00008843697949030322520311400843206035
:102C1000687940002A490F5A2868784329490E1AD2
:102C20002949286888420FD8286841003046FDF7B6
:102C3000DCFB06462068302188432060606880B253
:102C400009034018606015E020492868884211D8BF
:102C50002868420081183046FDF7C7FB0646206809
:102C60003021884310302060606880B2012149041F
:102C7000401860606068800A8002E98808436060EC
:102C8000208DB1B221852068062188432979490029
:102C90000622114008432060287A012805D12068C7
:102CA000082188430830206003E020680821884319
:102CB0002060206840084000401C2060F8BD0000F3
:102CC000D40200200024F400A0860100801A06002F
:102CD0000146087E70470000034901600021017130
:102CE0004171C18001727047881300000146086875
:102CF0000006C00F002801D0012070470220FCE729
:102D000000B587B00121084601F080FE4120400156
:102D100005900021684601768176417605A8FFF787
:102D200021FC002168460174032141740121817452
:102D300004A800F06DF90120C0020190002002906B
:102D4000039001A8FFF7A0FB202001900020039032
:102D500001A8FFF799FB41204001FFF77FFB01210C
:102D600041204001FFF77EFB07B000BD70B504466F
:102D70000220FFF799FCFF23E133FF2241320021BB
:102D80000846FFF724FA00250EE0002607E021049C
:102D9000080E00F02EF9E0B200F02BF9761CFF20AF
:102DA000E1308642F3D36D1CFF2041308542ECD3E5
:102DB0000220FFF77FFC70BD10B54020FFF77AFCC2
:102DC0000520FFF781FA4020FFF76EFC0F20FFF788
:102DD0007BFA4020FFF76EFC0F20FFF775FA022008
:102DE000FFF762FCF02000F0FAF8C32000F001F9D0
:102DF000F02000F0F4F8962000F0FBF8362000F008
:102E0000EEF8682000F0F5F83A2000F0E8F8052028
:102E100000F0EFF8B02000F0E2F8802000F0E9F8D0
:102E2000B62000F0DCF8002000F0E3F8022000F00B
:102E3000E0F8B52000F0D3F8022000F0DAF8032023
:102E400000F0D7F8002000F0D4F8042000F0D1F80A
:102E5000B12000F0C4F8802000F0CBF8102000F082
:102E6000C8F8B42000F0BBF8002000F0C2F8B7208A
:102E700000F0B5F8C62000F0BCF8C52000F0AFF8AF
:102E8000242000F0B6F8E42000F0A9F8312000F08A
:102E9000B0F8E82000F0A3F8402000F0AAF88A205B
:102EA00000F0A7F8002000F0A4F8002000F0A1F83E
:102EB000292000F09EF8192000F09BF8A52000F0D2
:102EC00098F8332000F095F8C22000F088F8A72089
:102ED00000F085F8E02000F082F8F02000F089F89A
:102EE000092000F086F8132000F083F8122000F08B
:102EF00080F8122000F07DF82B2000F07AF83C20BA
:102F000000F077F8442000F074F84B2000F071F8DE
:102F10001B2000F06EF8182000F06BF8172000F06E
:102F200068F81D2000F065F8212000F062F8E1202B
:102F300000F055F8F02000F05CF8092000F059F896
:102F4000132000F056F80C2000F053F80D2000F08C
:102F500050F8272000F04DF83B2000F04AF84420BC
:102F600000F047F84D2000F044F80B2000F041F845
:102F7000172000F03EF8172000F03BF81D2000F06D
:102F800038F8212000F035F8362000F028F84820E5
:102F900000F02FF8F02000F022F8C32000F029F80C
:102FA000F02000F01CF8692000F023F8132000F056
:102FB00016F8112000F013F8292000F010F8022074
:102FC000FFF778FB10BD10B50446204601F050F81D
:102FD00000BF102001F004F80128FAD010BD10B590
:102FE000044601208003FFF75FFB2046FFF7EBFF5D
:102FF00010BD10B5044601208003FFF75BFB20469F
:10300000FFF7E1FF10BD704770477047704770478A
:1030100010B50446A078002810D06178227850B20C
:1030200000F056F82078C106C90E012088402178AA
:1030300049118900074A891808600AE02078C1060A
:10304000C90E012088400349803122785211920034
:10305000885010BD00E100E010B5002819DA1A4AC6
:1030600003071B0F083B9B089B00D2588307DC0E0D
:10307000FF23A3409A438B071B0E8407E40EA34053
:103080001A43114B0407240F083CA408A4001A514A
:1030900018E00E4A03231B02D21883089B00D25863
:1030A0008307DC0EFF23A3409A438B071B0E840784
:1030B000E40EA3401A43054B032424021B19840881
:1030C000A4001A5110BD00001CED00E000E100E07A
:1030D00010B5002819DA1A4A03071B0F083B9B0892
:1030E0009B00D2588307DC0EFF23A3409A438B0733
:1030F0001B0E8407E40EA3401A43114B0407240F50
:10310000083CA408A4001A5118E00E4A03231B022D
:10311000D21883089B00D2588307DC0EFF23A340FC
:103120009A438B071B0E8407E40EA3401A43054BFA
:10313000032424021B198408A4001A5110BD0000A6
:103140001CED00E000E100E010B5002819DA1A4A91
:1031500003071B0F083B9B089B00D2588307DC0E1C
:10316000FF23A3409A438B071B0E8407E40EA34062
:103170001A43114B0407240F083CA408A4001A5159
:1031800018E00E4A03231B02D21883089B00D25872
:103190008307DC0EFF23A3409A438B071B0E840793
:1031A000E40EA3401A43054B032424021B19840890
:1031B000A4001A5110BD00001CED00E000E100E089
:1031C000704770B504460D461646324629462046DD
:1031D000FDF7C4F870BD70477047000070B5044635
:1031E000002506480068008808210840002803D010
:1031F000204601F0D5FC0546284670BDD491041048
:10320000FEB50920C00605680120000628400028F8
:103210007DD001F07DFE5B4880B201210904401899
:103220000921C906C86057480838406D0561554AEC
:10323000083A506D526D116B8847012804D15148EE
:103240000838406D846A03E04E480838406DC46A0F
:10325000002C09D1012000070921C906486000207F
:103260004949096808805CE0474800680088474988
:1032700008402178482211430843434909680880DF
:1032800020461C3000903820015D20788001404AA3
:10329000126880188172217889013D4A009812686D
:1032A0008918088221788901394A0098126889189A
:1032B000488220788001364909684018807D802145
:1032C000084321788901324A126889188875607824
:1032D00004210840002824D088060921C906486036
:1032E000607820210840002812D001F035FC074604
:1032F000606801F007FE381801906078C207D20FAD
:103300000223184001460198FFF7AEFB09E026E0D2
:103310006378DA07D20F02273B4019466068FFF74F
:10332000A3FBE80FC007002804D101208007284034
:1033300000280BD005F06CFD12490839496D8861F1
:1033400001F0EAFB0F490839496D48610D4808381A
:10335000466D446521463046726B904700BF0120A0
:10336000C0032840002801D0FFF766FB012040047D
:103370002840002801D0C046C0460920C00605608C
:10338000FEBD000060040020D4910410F0FF000096
:10339000D891041070B504460D46062001218140E5
:1033A0002C4A116000BF09202B49096848712A493D
:1033B0000968C87105202849096888712649096883
:1033C0000872002D1FD124480068407980210843ED
:1033D00021490968487120480068C0798021084364
:1033E0001D490968C8711C4800688079802108431C
:1033F00019490968887118480068007A80210843D3
:1034000015490968087215480465002012490968C1
:103410000880012000070921C9064860104988601A
:103420000920C0060668066047200C490860002095
:1034300008710B2000F0C0F900221146104600F080
:10344000C9F8062001218140024A803A116000BF7C
:1034500070BD000080E100E0D49104105804002009
:1034600040000048F0B585B004460020039002A853
:10347000FFF7B4FE00287BD1404908710120000706
:103480000921C90648603E483C49886000213B4804
:10349000C160103000903B4900980968488120784D
:1034A00045076D0F374800680088374908404821B4
:1034B000294308433349096808800020A901334A99
:1034C000126889188881A901304A12688918C88150
:1034D0000021A8012D4A12688018818220461C30E4
:1034E0000190A901294A0198126889180882019857
:1034F00081B2A801254A126880184182A801234997
:1035000009684018807D80210843A9011F4A12687C
:1035100089188875194844653820015DA8011B4A3F
:1035200012688018817272B66078202108400028E5
:1035300012D001F011FB0746606801F0E3FC3E1871
:103540006078C207D20F0223184001463046FFF7C9
:103550008BFA03900AE00BE06378DA07D20F0227B8
:103560003B4019466068FFF77FFA039062B601E0BE
:10357000C4200390039805B0F0BD0000580400205B
:10358000862E0000D4910410F0FF0000D8910410A2
:1035900010B58301054C24681B19D9728301034CB3
:1035A00024681B1920331A7010BD0000D891041034
:1035B00030B50246002008E00C5C9301044D2D68F4
:1035C0005B1921331C54431CD8B20528F4DB30BDF1
:1035D000D891041030B5012901D0012A0CD1830102
:1035E0000C4C24681B19DB7D0A2423438401094DFC
:1035F0002D686419E3750BE08301064C24681B19E0
:10360000DB7DF52423408401024D2D686419E375A8
:1036100030BD0000D89104108189C18301461C315E
:10362000818301229204816891420DD2027A202185
:103630000A54018909040A0E21210A548168890368
:103640008A0F22210A544CE001221205816891421E
:1036500014D2018989050A0E20210A548168890340
:103660000A0E21210A54816809038A0F22210A5473
:103670000A5C04210A4322210A5432E00122920505
:103680008168914214D2018909050A0E20210A5449
:10369000816809030A0E21210A54816889028A0F70
:1036A00022210A540A5C08210A4322210A5418E004
:1036B000012212068168914213D2018989040A0EFF
:1036C00020210A54816889020A0E21210A54816846
:1036D00009028A0F22210A540A5C0C210A43222182
:1036E0000A54417880221140002906D122210A5C27
:1036F00080210A4322210A5405E022210A5C40214C
:103700000A4322210A5422210A5C30210A43222141
:103710000A5421490A7823210A541F4909880904B7
:103720000A0E24210A541C49096809030A0F25219D
:103730000A54002226210A5441781022114042786E
:10374000D207D20F1143427802231A401143262296
:1037500011542621095CCA06D20E26210A54095C9E
:10376000FB221140262211542621095C02785201C5
:103770001143CAB226210A54FF2227210A540022EB
:1037800038210A54417802221140002902D08022B7
:1037900038210A54704700005804002010B58301F6
:1037A000044C24681B1999618301024C24681B197D
:1037B000DA6110BDD8910410C106080E002106E0A0
:1037C0008A01044B1B68D21820329077491C0829C3
:1037D000F6DB7047D891041001F044FD012802D1B6
:1037E000FCF76EFC05E0044880F3088800BF05F094
:1037F0001BF900BFFEE7000000600020002808D091
:10380000084989690122920691438918054A916104
:1038100006E004498969012292069143014A9161B7
:10382000704700000000F040002807D00749098ACF
:1038300002229143891C054A118205E00349098A45
:1038400002229143014A1182704700002000F0409B
:10385000114909688906890E01700F49096809052F
:10386000890E41700C490968C903C90E81700A4963
:1038700009680903490FC17007490968C901C90EE0
:10388000017105490968C900090F41710249898917
:103890008904890CC18070470000F0403EB50220C9
:1038A00000F0F4F801287DD1022000F0CFF801A843
:1038B000FFF7CEFF684640794C49097888422BD003
:1038C0004BA0FCF7D1FC6946487903F033FB69460D
:1038D00048794649087008460478494802782146E4
:1038E00048A0FCF7C1FC012050490870444800780A
:1038F000312802DD20463C30C4B241480078201A0D
:103900000A2808DD4A4802F02FFC494804F0AAF9C9
:10391000FF203B49087000BF684680794549097817
:10392000884207D06946887902F0BAFB69468879EF
:10393000404908706846C0793F490978884207D0F5
:103940006946C87904F0AAFE6946C8793A49087000
:103950006846007A39490978884207D06946087A6A
:1039600001F0D4FF6946087A344908706846407A05
:1039700033490978884207D06946487A03F000FB4A
:103980006946487A2E4908702E480078002815DDCF
:1039900000202C4908702C4808231A461E2100904C
:1039A000C42000E020E001F0B1FE274808231A46B9
:1039B0003C210090C42001F0A9FE14E021480078C9
:1039C000401C20490870002008231A461E21009040
:1039D000C42000F0F7F8002008231A463C2100908C
:1039E000C42000F0EFF800BF3EBD00001803002027
:1039F000495251206D6D696E7574650D0A000000A5
:103A00003403002076616C75655F636F6D70617261
:103A100065203D202564206C6173745F74696D6559
:103A20005F626C65203D2025640D0A001D030020A7
:103A30000000C842190300201B0300201A030020C5
:103A40001C0300200C0300204C9204100149087252
:103A5000704700002000F04010B5012808D10A4A44
:103A6000127F8243CB07DB0F1A43074B1A7709E01B
:103A7000054A127F02239A434B00022423401A4333
:103A8000014B1A7710BD00000000F04001460448C9
:103A900000780840002801D0012070470020FCE792
:103AA0002000F04008B51A49098A490849000278FF
:103AB000D207D20F1143164A11820021009103E070
:103AC00000BF0099491C00914B22D20000999142FD
:103AD000F6D30F49098A7F2212019143C26812016D
:103AE0007F231B011A401143094A1182084A203AD8
:103AF00041685163816891630169D163044A20324E
:103B00004169116081695160C169916008BD00001F
:103B10002000F0402A4989688909890102789206C3
:103B2000920E1143264A9160114689683F22920104
:103B30009143427892013F239B011A401143204A4E
:103B40009160114689681F22120391438278120303
:103B50001F231B031A401143194A916011468968BB
:103B6000072252049143C278520407235B041A408F
:103B70001143134A9160114689681F22120591432F
:103B8000027912051F231B051A4011430C4A91604C
:103B90001146896852019143427952060F235B0610
:103BA0001A401143064A91601146898A890B89039C
:103BB000C2889204920C1143014A9182704700001E
:103BC0000000F040FFB581B007460D461E460024B8
:103BD00006E0291938460A9B039AFEF7ADFF641CDC
:103BE000B442F6D305B0F0BD38B504460D46012108
:103BF000090620690840002854D08911206908402E
:103C000000284FD12069C00FC007002827D02648C0
:103C100004F0B4FE2549091AE06840780C3081426E
:103C200011DDE2685078811C1F4804F063FE2246D3
:103C3000183204211C4804F052FE2246143204219A
:103C4000194804F04CFE1A4800901A481A4A0368B2
:103C50001A4801681A480078FEF76CFD22E001213D
:103C600089062069084000280BD0114800901148AF
:103C7000114A03681148016811480078FEF75AFD9F
:103C800010E0012189072069084000280AD008486F
:103C900000900848084A0368084801680848007806
:103CA000FEF748FD012038BDD004002002020000CC
:103CB000E93B041028030020E30700202003002034
:103CC00024030020002811D0164A92B201231B04BD
:103CD0001A430923DB06DA6000BF0922D206D26844
:103CE00001231B041A40002AF7D119E00D4A9178EC
:103CF000927804239A430B4B9A701A4692B201238E
:103D00001B041A430923DB06DA6000BF0922D2062E
:103D1000D26801231B041A40002AF7D1014A91708E
:103D2000704700001C000020FEB504460D4600F060
:103D300047FD401E80002B490E58012109073046DF
:103D4000FEF73BFF012168460180442141800021AC
:103D5000818001210903C18089000181458100F032
:103D60002FFD401E80001F490E5869463046FEF761
:103D700015FF00BF00F024FD401E800019490E58B9
:103D80003046FEF72DFF032801D10120FEBD00F0D3
:103D900017FD401E800013490E580121C90430460A
:103DA000FEF715FF0028E5D000F00AFD401E800058
:103DB0000C490E580C493046FEF7FFFE0AE000F0B1
:103DC000FFFC401E800007490E583046FEF780FF7A
:103DD0002070641C2846691ECDB20028EFD100BFB8
:103DE000D4E70000F4020020000008103EB50446AD
:103DF0000021684601804421418000218180012109
:103E00000903C180890001810121418100F0D8FCB2
:103E1000401E800025490D582846FEF7D2FE00BFFF
:103E200000F0CEFC401E800020490D582846FEF7C9
:103E30005DFF0128F4D000F0C3FC401E80001B4948
:103E40000D5869462846FEF7A9FE00F0B9FC401E51
:103E5000800016490D5821782846FEF7B0FE00BFB5
:103E600000F0AEFC401E800010490D582846FEF7B9
:103E7000B7FE032801D101203EBD00F0A1FC401E89
:103E800080000A490D580121C9042846FEF79FFE0B
:103E90000028E5D000F094FC401E800003490D5836
:103EA00003492846FEF789FE0020E5E7F4020020DA
:103EB00000000810F0B589B004460F4606A800F0CF
:103EC00043F86846007E01026846407E0818059067
:103ED0006846C07E01026846007F08180490AF2241
:103EE000059951430846FCF75CFF05460022134B39
:103EF000FCF712FD0022124B01910090FCF7E9FC47
:103F000003910290FCF71EFB20607D22049951432F
:103F10000846FCF746FF05460022084BFCF7FCFC70
:103F20000022084B01910090FCF7D3FC0391029012
:103F3000FCF708FB386009B0F0BD0000E0FFEF407F
:103F4000008046400000184038B5044606A00068CE
:103F500000906846FFF74AFF1420FEF7B5F90621E6
:103F60002046FFF7E1FE38BDFD00000000B501E08E
:103F700000F078F8042000F033F80128F8D000BDF4
:103F80000C49097802229143891C0A4A117002E007
:103F90000849C968084307498039097BC907C90F1F
:103FA0000029F5D00349097802229143014A117092
:103FB0007047000080004040002807D0074949684A
:103FC00002229143891C054A516005E00349496872
:103FD00002229143014A51607047000000004040B6
:103FE00001460448007B0840002801D001207047AA
:103FF0000020FCE7000040407047000010B5044678
:10400000606800F03BF81648406804218843217836
:10401000890004221140084311494860084600689D
:1040200040218843A17889014022114008430C496E
:1040300008600846006880218843E178C901802231
:1040400011400843064908600846006840094001DD
:104050006178C906C90E08430149086010BD000017
:104060000000404001488068704700000000404068
:10407000014988607047000000004040F8B50546DF
:104080000127022669001048FCF7AFF90446002C0E
:104090000BD07F204002844207D802E07006060E53
:1040A0006408FF2CFAD8601EC7B20848067400687E
:1040B000FF21090288433902FF22120211400843FE
:1040C00002490860F8BD00000024F40000004040F0
:1040D0000149C862704700000000404001210170A2
:1040E0000721417000218170C17001494160704712
:1040F00040420F001FB50121112000F087FC6846E7
:10410000FEF7DCFA042000900421684601710121C9
:10411000817100214171FEF725FA082000900421E9
:1041200068460171FEF71EFA0120009004216846DE
:104130000171FEF717FA02A8FFF7D0FF00216846C9
:1041400001720721417200218172C17207480390F8
:1041500002A8FFF753FFFF20FFF7BAFFFFF710FF9A
:10416000FFF704FF0120FFF727FF1FBD0048E8010C
:104170007047000010B586B0FFF7BCFF012108466C
:1041800000F044FC04A8FEF799FAA3480490062125
:104190006846017501218175417504A8FEF7E2F9B1
:1041A0009D48FEF787FAFEF707FE0020FEF7DEFDCA
:1041B0009A4BFF22413264210020FEF7BDFC974B51
:1041C000FF22413265210020FEF7B6FC934BFF220F
:1041D0004132FF2123310020FEF7AEFC8F4BFF223E
:1041E0004132FF2124310020FEF7A6FC8B4BBE227A
:1041F0006421A02000F0D0FF232402A903A8FFF728
:1042000059FE039803F0A0FC854861000090084621
:104210000B3008231A46C82101F078FA8148082398
:104220001A4696210090822001F070FA7E481D23E4
:104230001122B4210090842001F068FA029801F064
:1042400057FF77486100009008460B3008231A4654
:10425000FF21123101F05AFA74481F231A46FC213B
:104260000090802001F052FA71481E2341226921FA
:1042700000902D20FFF7A6FC0020032309226A21CD
:1042800000903F20FFF79EFC00200323092282219B
:1042900000903F20FFF796FC0020152303226D219C
:1042A00000904220FFF78EFC002003230F2276218E
:1042B00000905020FFF786FC00200C230322792178
:1042C00000905020FFF77EFC00200C230322792170
:1042D00000905C20FFF776FC1F201E2341226921FD
:1042E0000090CD20FFF76EFC0020032309226A21F5
:1042F0000090DA20FFF766FC0020032309228221C8
:104300000090DA20FFF75EFC0020152303226D21C8
:104310000090D720FFF756FC0020152303226D21C3
:104320000090E320FFF74EFC00200F2303227621AC
:104330000090EA20FFF746FC00200F23032276219D
:104340000090F320FFF73EFC002003230922822186
:104350000090ED20FFF736FC00201323032270218C
:104360000090FA20FFF72EFC00200223092273217F
:104370000090F720FFF726FC002003230222812172
:104380000090FF20FFF71EFC002003230122822162
:104390000090FE20FFF716FC002002230422832158
:1043A0000090FB20FFF70EFC224803F05BFC1C484A
:1043B000610000900846AB3008231A46C82101F07E
:1043C000A5F9184808231A4696210090FF202330AB
:1043D00001F09CF914481D231122B4210090FF2004
:1043E000253001F093F9134801F0BEFE0C4861003E
:1043F00000900846AB3008231A46FF21123101F025
:1044000085F90A481F231A46FC210090FF2021301D
:1044100001F07CF906B010BD524000007AD60000D1
:10442000B49E0410F49E0410349F041021A10410C3
:10443000E0FF00000000C84200B58DB00121480334
:1044400000F0E4FA0020694608730220AB490860D6
:1044500015E0AA480068082802DB0120A749086087
:10446000A649087804F01AF9FF209130FDF72CFFD7
:10447000002004F013F9FF209130FDF725FFA0483C
:1044800000780028E5D09D4800786946C8739B49AC
:10449000087804F003F9994800789A4908700120D7
:1044A0009649086000209649087015E09348006816
:1044B000202802DB0120914908609049087801F02A
:1044C00025FAFF209130FDF7FFFE632001F01EFA70
:1044D000FF209130FDF7F8FE894800780028E5D0EC
:1044E00086480078694608748449087801F00EFA15
:1044F00082480078844908700120804908600020C3
:104500007F49087015E07D4800680D2802DB012016
:104510007A4908607949087802F032FDFF2091302D
:10452000FDF7D2FE632002F02BFDFF209130FDF756
:10453000CBFE734800780028E5D07049087802F077
:104540001FFD6E480078714908706C480078694614
:104550004874FD20C000694908600020684908705F
:1045600015E0664800686A49884202DB0120634919
:1045700008606248006804F02DF94B20C000FDF788
:10458000A3FE632004F026F9C820FDF79DFE5C48D9
:1045900000780028E5D05948006804F01BF9574816
:1045A00000886946488200205449086054490870D0
:1045B0007D20C000FDF788FE632004F00BF955480C
:1045C00008231A461E210090C42001F09FF851488C
:1045D00008231A463C210090C42001F097F815E00A
:1045E00046480068182802DB002044490860434917
:1045F000087801F055FDFF209130FDF765FE63203E
:1046000001F04EFDFF209130FDF75EFE3C48007842
:104610000028E5D03948007869468873374908781A
:1046200001F03EFD354800783B49087000203349D1
:1046300008603349087015E0304800683C2802DB08
:1046400000202E4908602D49087802F073FCFF20F5
:104650009130FDF739FE632002F06CFCFF209130B1
:10466000FDF732FE264800780028E5D0234801787F
:10467000684641732149087802F05CFC1F480078C5
:104680002649087003A8FFF745FA0120FFF7B6F89E
:104690000121480300F0BAF90021684601750020A5
:1046A00008901F4806900020099005A8FFF7FAF926
:1046B00001210220FFF7D0F90220FFF7C7F90021FE
:1046C000019105E000BF68468088401C81B20191DD
:1046D000684680884B21C9008842F3DB1521684673
:1046E0000172032141720121817202A8FEF790FC40
:1046F0000120FFF799F80DB000BD00001403002061
:10470000100300201B0300201A0300201C030020BC
:1047100010270000B49E0410190300201803002085
:10472000FF7F000010B586B004460121092000F08B
:104730006DF900F045F8401E80001D4908580190B1
:1047400000F03EF8401E80001A49095C684601727C
:1047500000218172417201A8FDF704FF00F030F8DA
:10476000401E800014490858019000F029F8401EAE
:1047700080001249095C6846017201A8FDF7F2FE4B
:104780000394032168460174417400218174C1744B
:104790004175032101750121817503A800F0F2FB29
:1047A000002000F0E3FC012000F0BCFB06B010BDCF
:1047B000E4910410E8910410EC910410F0910410BD
:1047C0000148007870470000F002002030B585B045
:1047D0000446FFF7F5FF401E800029490858294983
:1047E000884204D10121284800F010F903E001219A
:1047F000264800F00BF9FFF7E3FF401E8000244934
:1048000008580390FFF7DCFF401E80002149095C37
:104810006846017400218174417403A8FDF7A2FE6B
:10482000FFF7CEFF401E80001B4908580390FFF79A
:10483000C7FF401E80001949095C6846017403A83F
:10484000FDF790FE6846FEF747FA012168460171C0
:104850000094FFF7B5FF401E800009490D586946D6
:104860002846FEF7C3F9FFF7ABFF401E800004495E
:104870000D580B492846FEF7A0F9002005B030BDC1
:10488000F40200200000A04001040000010200002A
:10489000FC91041000920410F4910410F89104109B
:1048A0007F809F730120014908707047F00200204B
:1048B00010B5044600BF202000F048FB0128FAD0C4
:1048C000204600F061FC10BD002004E01549095CA1
:1048D000491C0918C8B21349095C0029F6D1C11C4A
:1048E00020291EDA02210F4A115421220D4B411CAE
:1048F0005A540822811C5A540022C11C5A54194689
:10490000091889B20122120411430922D206D1608A
:1049100000BF0921C906C9680122120411400029FB
:10492000F7D17047B004002002480068401C0149DC
:1049300008607047CC02002010B5314B197A314B1A
:104940001A890020002905D109231340092B01D120
:1049500020231843002905D111231340112B01D125
:1049600040231843002905D121231340212B01D1D5
:1049700080231843002906D141231340412B02D143
:10498000FF2301331843002906D181231340812BD3
:1049900002D101235B021843002909D1FF2302330E
:1049A0001340FF240234A34202D101239B02184387
:1049B000002907D1144B1340134CA34202D1012309
:1049C000DB021843002905D105231340052B01D133
:1049D00010231843002905D193079B0F032B01D106
:1049E00008231843022901D101231843042901D1C6
:1049F00002231843082901D10423184310BD0000E5
:104A0000000090400000104801040000012905D179
:104A1000054A126A0243044B1A6204E0024A126A0F
:104A20008243014B1A6270470000904010B5FFF7B7
:104A30007BFF10BD10B50820294988800321481F3D
:104A4000FEF782FB0321081FFEF77EFB03210020F7
:104A5000FEF77AFB03210120FEF776FB03210420F9
:104A6000FEF772FB03210520FEF76EFB00210620F6
:104A7000FEF76AFB03210720FEF766FB03210D20EA
:104A8000FEF762FB03210E20FEF75EFB03210F20E1
:104A9000FEF75AFB03211120FEF756FB03211220DB
:104AA000FEF752FB03211320FEF74EFB03211420D7
:104AB000FEF74AFB03211520FEF746FB03211620D3
:104AC000FEF742FB03211720FEF73EFB00210120E9
:104AD000FDF70AFC03480449086262B610BD0000F5
:104AE0000000104066000E00000090400246012ABF
:104AF00007D1002902D0074800797047054840795E
:104B0000FBE7002902D003488079F6E701484079A5
:104B1000F3E700004804002010B50921C9068868A1
:104B200000F022F810BD00000A49097E017409490D
:104B30002039096AC16007492039CA68896842601A
:104B4000016004492039C969816002492039496BF3
:104B5000416170472804002010B5024803F026FF89
:104B600010BD000008040020F8B5074669460B4850
:104B700003F023FF05460E46084A916A009AD21BAD
:104B800012021012054A483203F032FF0446314641
:104B900000202A1B81411046F8BD000008040020B7
:104BA000024600200923DB06596811604B01590FAA
:104BB000032901D1022006E0022901D1012002E0EF
:104BC000012900D10320704710B5044620883C49D4
:104BD0000861E078002802D1A078002813D000BF37
:104BE0003848008B0028FBD036488089400A4002B4
:104BF000173034498881324800F0FAFC3048806A26
:104C00002F49C8620DE0192000042D49C86288624E
:104C10002D4848622D48C8612D480862FF20E930C0
:104C2000C882E178264820300176254A516A128AE6
:104C300090B200F023FD2249C88A04F031F92048DF
:104C4000C08A1F49088300211D4A11605160092054
:104C5000C0060069114608630846006B48630021DE
:104C60009160D1601B49C9794806400E04F073F980
:104C70003830C1B2124840300171164949794806AE
:104C8000400E04F068F91B30C1B20D48403041714C
:104C90001049097A4806400E04F05DF93830C1B277
:104CA0000748403081710B49097A4806400E04F0EC
:104CB00052F91B30C1B202484030C17110BD000032
:104CC0000804002000001048C2F528008D5B000099
:104CD000ECEB6501C00000200348008B002801D1E7
:104CE000012070470020FCE70000104810B5044682
:104CF000034802464832816A204603F079FE10BD1F
:104D00000804002001498860704700004000004806
:104D1000F7B584B016460598012807D1002E02D0B9
:104D20002C48047909E02B48447906E0002E02D093
:104D30002848847901E02748C47903A925484038E8
:104D400003F03BFE0499081A071B2248403800690B
:104D50001430B84209D201252D06012001901D48CA
:104D60004038007D1C49487203E001256D06002093
:104D7000019018484038416A384604F081F81649D5
:104D8000497AC900401A0290039902980818000253
:104D9000000A28430199002902D00121090700E0F7
:104DA000002108430921C90648600298002808DA52
:104DB00001200006854204D100204860012007B090
:104DC000F0BD0920C006406802494039086400204F
:104DD000F5E7000048040020C00000200921C906B2
:104DE0004860704770B504460E461248416A204636
:104DF00004F046F80446102C01D9204600E01020AB
:104E000004460920C006056920460830281800021B
:104E1000000A012109064018002E01D0090100E016
:104E20000021084304498860084680680149C86336
:104E3000284670BD080400204000004810B5034813
:104E4000007E002801D000F0E3FB10BD2804002004
:104E500010B594B02A48007E002842D0502228493C
:104E600020396846FBF7E4F9684600F029FB049A0C
:104E700090B2099900F002FC6846018BC08A814219
:104E800006D06946C88A04F00BF86846C18A0183D7
:104E900000F0E5F9044672B66846007D18492039ED
:104EA00008756846C08AC8826846008B08830798E0
:104EB000C86108980862099848620A9888620B9845
:104EC000C8620F98C8631098086410A801890C483C
:104ED00020300181403804F01FF8204600F0FDF931
:104EE0000BE000F0BCF9044672B60548203804F027
:104EF00013F8204600F0F1F900BF14B010BD000017
:104F00002804002010B50446204604F024F810BD03
:104F10000248C08A02494880704700000804002007
:104F2000C0000020002807D00749096B4908490044
:104F3000491C054A116305E00349096B490849000A
:104F4000014A116370470000000030400146C80F5D
:104F5000C007002808D0094840680840002801D050
:104F6000012070470020FCE70448008B084000281F
:104F700001D00120F5E70020F3E7000000003040F9
:104F800070470000F8B504467648006B0007C00F74
:104F9000002806D1206801017348FBF726FA054670
:104FA00005E02068C1007048FBF71FFA054668025B
:104FB000060C6C4820308680F001281A401CC00383
:104FC000070C3F2F04DD701C86B2781C8706BF0ECD
:104FD000644920310F720846007B602188432179A3
:104FE00049016022114008435E49203108735D4841
:104FF000007F602188436179490111400843594984
:10500000087758482030007B08218843A179C900DF
:105010000822114008435349203108735148007F4A
:1050200008218843A179C900114008434D490877F8
:10503000E07900280ED14B482030007B02218843C4
:105040004849203108734748007F02218843454979
:1050500008773FE0E07902281DD142482030007BEC
:1050600002218843801C3F49203108730846007B99
:10507000042188433B49203108733A48007F0221CC
:105080008843801C374908770846007F04218843FD
:10509000344908771EE033482030007B02218843E2
:1050A000801C3049203108730846007B0421884366
:1050B000001D2C49203108732A48007F02218843B3
:1050C000801C284908770846007F04218843001D7A
:1050D000244908772348006B012149028843217A3B
:1050E000490201225202114008431E490863084642
:1050F000006B89158843217A49100902521011402A
:105100000843184908630846006B91018843617A97
:105110008903920111400843124908630846006B55
:1051200051008843617A4910C90352001140084375
:105130000C4908630B482030007B10218843A17A7A
:10514000090110221140084306492031087305481F
:10515000007F10218843A17A0901114008430149C9
:105160000877F8BD000030400000127A0549097D3B
:1051700038229143C20038231A401143014A117565
:105180007047000020003040C105C90D014A118060
:105190007047000000003040FFB581B0064614465D
:1051A0001D460220FDF780FA2C20FDF718FF02981B
:1051B0000319324601463046FDF709F8012707E09A
:1051C0002904080EFDF715FFE8B2FDF712FF7F1C5A
:1051D000A742F5D90220FDF76DFA05B0F0BD704782
:1051E000F8B5040C8BB2264682B25E431046584393
:1051F0000D0C370C360400218019164679416E4398
:10520000370C36048019264679416E438919F8BD5A
:1052100030B47446641E2578641CAB4204D3635DCD
:105220005B00E31830BC18471D46F8E74900CA0286
:105230000243100000D004204A0D01D00122104387
:10524000044A490D914201D102210843012800D1AD
:1052500005207047FF070000EFF310807047EFF361
:105260001080704738B5002016490860002409E016
:10527000FFF762FB009069460888002800D003E031
:10528000601CC4B2032CF3DB00BF684600882028F2
:1052900015DB6846008803F07DFD01200A4908708F
:1052A000FAF775FF0AE000BFBFF34F8F07480849C0
:1052B000C860BFF34F8F00BF00BFFEE7F3E70120D8
:1052C00038BD0000140000200C0000200400FA0586
:1052D00000ED00E080F31088704780F3108870477D
:1052E000FEB505460E462C4600200290019535601D
:1052F00000900EE0207B002806D0FFF72DFC2168EF
:105300000F1A002F00DD06E0029424690098401C6B
:105310000090002CEED100BF0098002804D000219E
:1053200002980161019401E0002030600198FEBD07
:10533000F3B587B00446002108980170A07A0028D0
:1053400059D02E48036840682D4909680022591831
:10535000504104910590FFF77FFF019072B6FFF76F
:10536000FBFB039102906368226819277F030026E4
:1053700004990598C9197041511A83410BD3FF2331
:105380007333002204990598CB185041039A02996F
:10539000591A904127D2217AE07AFFF7A7FB0546F8
:1053A0000026029A0399531971410C229B187141EE
:1053B00062682068181A91410ED2227AE17A206838
:1053C000FFF7A6FC089908700198FFF783FF0020FB
:1053D000A072012060720DE00198FFF77BFF0121B0
:1053E0000898017006E00198FFF774FF012000079C
:1053F000FFF7F4FC00BF09B0F0BD00007803002007
:1054000038030020F8B504460D4616461F46207B9B
:105410004019401E217B491E884380B2009020889D
:105420006188884203DB20886188401A04E0608834
:105430002188401AA188081A009988420EDBA068CA
:10544000C1192A463046FDF7BCFEA1886388009A40
:105450009818FAF7D4FF61800020F8BD0120FCE71E
:10546000F8B504460D4616461F46207B4019401EDF
:10547000217B491E884380B2009020886188884241
:1054800003DB20886188401A04E060882188401A84
:10549000A188081A00994018A18888420EDAA168EC
:1054A000C8192A463146FDF78CFEA1882388009A48
:1054B0009818FAF7A4FF21800020F8BD0120FCE72E
:1054C000FEB5114C114E7269316995092E4666433D
:1054D00002960F4B0E0A0196CEB200961F46019E11
:1054E0007743009E5E43360ABE19103676098662FF
:1054F000029E8036360A4662C1610262054E4E4304
:10550000360CC682FEBD00005307000000001048A4
:10551000F6BC080055050000F8B503460A461946D2
:105520000024009301E00C460969002906D04D686B
:10553000086857681668801BBD41F4D31161002CC0
:1055400001D1009200E022610098F8BD30B502461A
:105550000B4611460024104601E00C46096900295B
:1055600001D09942F9D1002905D0914201D10869B1
:1055700001E00D69256130BDF8B5044615461E46AB
:1055800000200090207B002801D00120F8BD66603B
:105590002560012020731549C8682146FFF7BCFF2C
:1055A000A04220D16946204600F03AF80F49C86071
:1055B00068460078002816D0FFF74EFE074672B600
:1055C0000A48007C401C0949497C884202D10748AE
:1055D000007C02E00548007C401C04490874384601
:1055E000FFF778FE00BF68460078CFE73803002059
:1055F00010B5044600F00CF800BF0448008B0028EA
:10560000FBD02046FFF75CFF10BD000000001048F3
:1056100001200249088300200861704700001048FB
:10562000FEB507460D463C460197002028701BE05A
:10563000207B002817D0FFF70FFE009072B6FFF70F
:105640008BFA21680E1A002E07DD01213046FFF784
:10565000C9FB0098FFF73EFE08E001202870009883
:10566000FFF738FE02E02469002CE1D100BF287862
:10567000002801D00198FEBD2046FCE770B5054624
:105680000E463146284603F0FBFB0446012080020B
:10569000844200D3441E082C00D208246005000E6A
:1056A000064908750648008808210840002803D1EB
:1056B0000248007D0249487270BD000008040020C5
:1056C000C000002010B50446002C0AD008484079DC
:1056D00000280CD1074800F00FF801200449487158
:1056E00005E00448FDF7F0F900200149487110BDBC
:1056F000380300205003002010B50446FFF79EFB3E
:1057000001200149087110BD38030020FFB581B0A8
:1057100015461C460220FCF7C7FF2C20FDF75FFC56
:1057200002980019431E01984019421E02990198DF
:10573000FCF74DFD002652E000274DE03046604367
:10574000C1190A98405C0300FFF762FD08050C13BD
:105750001A21282F363D0020FDF74BFC0020FDF7D5
:1057600048FC37E0D620FDF744FC7A20FDF741FCE9
:1057700030E0F820FDF73DFC0020FDF73AFC29E081
:105780000720FDF736FCE020FDF733FC22E0002087
:10579000FDF72FFC1F20FDF72CFC1BE0FF20FDF781
:1057A00028FCE020FDF725FC14E00720FDF721FC94
:1057B000FF20FDF71EFC0DE0F820FDF71AFC1F206E
:1057C000FDF717FC06E00020FDF713FC0020FDF7B5
:1057D00010FC00BF00BF7F1CA742AFD3761CAE42B7
:1057E000AAD30220FCF766FF05B0F0BD38B5044629
:1057F00044480223292269210090FF201430FEF73B
:10580000E1F940480223292285210090FF2014302D
:10581000FEF7D8F93B481B2302226B210090FF20A2
:105820001430FEF7CFF937481B2302226B2100907A
:10583000FF203B30FEF7C6F93248082303227421CB
:105840000090FF203D30FEF7BDF9142C1CDA1F201C
:10585000C00218230B226C210090FF201730FEF7A6
:10586000B1F9002018230B226C210090FF20233077
:10587000FEF7A8F9002018230B226C210090FF20CE
:105880002F30FEF79FF93BE03C2C1EDD3F2040010E
:1058900018230B226C210090FF201730FEF792F99D
:1058A0003F20400118230B226C210090FF20233061
:1058B000FEF788F93F20400118230B226C2100904D
:1058C000FF202F30FEF77EF91AE00F4818230B2235
:1058D0006C210090FF201730FEF774F90A48182356
:1058E0000B226C210090FF202330FEF76BF9002083
:1058F00018230B226C210090FF202F30FEF762F955
:1059000038BD00007AD60000E0FF000038B504463C
:1059100000201D232422232100901B20FEF752F992
:10592000632C17D00A212046FAF769FDCDB20A4B45
:1059300023222F21284600F011F80A212046FAF7E9
:105940005EFDC4B2002C05D0034B23221B21204650
:1059500000F004F838BD00007AD60000F8B504461F
:105960000D4616461F462300FFF752FC0A06253057
:105970004A647993B2C2E6FE3A463146284601F0BF
:1059800061FD3A463146284601F066FD3A46314609
:10599000284601F06CFD3A463146284601F073FD79
:1059A0003A463146284601F079FD3A4631462846C6
:1059B00001F07FFDE2E03A463146284601F04CFD19
:1059C0003A463146284601F052FDD7E03A46314684
:1059D000284601F037FD3A463146284601F03CFDA5
:1059E0003A463146284601F06EFD3A463146284691
:1059F00001F049FD3A463146284601F04FFDBDE031
:105A00003A463146284601F01DFD3A4631462846C1
:105A100001F022FD3A463146284601F028FD3A467B
:105A20003146284601F04FFD3A463146284601F0FE
:105A30002AFDA3E03A463146284601F03AFD3A46AF
:105A40003146284601F008FD3A463146284601F025
:105A50000EFD3A463146284601F035FD8EE03A46C5
:105A60003146284601F025FD3A463146284601F0E8
:105A7000E9FC3A463146284601F0F9FC3A463146FF
:105A8000284601F020FD3A463146284601F0FBFC4D
:105A900074E03A463146284601F0D4FC3A46314695
:105AA000284601F006FD3A463146284601F0F6FC4C
:105AB0003A463146284601F006FD3A463146284628
:105AC00001F0D5FC3A463146284601F0DCFC55E0B1
:105AD0003A463146284601F0B5FC3A46314628465A
