:020000041004E6
:1000000000600020510F0410970D0410810A0410A5
:10001000AA5555AA45554C420000000000000000BA
:10002000000000000000000000000000D5140410D3
:1000300000000000000000004D0F0410791D0410A6
:10004000F9070410490F0410000000000000000030
:10005000A11E04105D13041041050410FF200410BC
:100060000000000000000000000000000000000090
:100070000000000091040410870A0410850A04108F
:10008000000000008F0D0410910D0410930D04105A
:10009000950D0410151004104B0F0410BD0504102D
:1000A0000000000000000000000000000000000050
:1000B0000000000000000000000000000000000040
:1000C00000F002F800F08EF80CA030C808382418B0
:1000D0002D18A246671EAB4654465D46AC4201D180
:1000E00000F080F87E460F3E0FCCB6460126334224
:1000F00000D0FB1AA246AB463343184748450000E0
:10010000E8450000103A02D378C878C1FAD85207FF
:1001100001D330C830C101D504680C6070470000BD
:100120000023002400250026103A01D378C1FBD813
:10013000520700D330C100D50B607047EFF3148233
:10014000EFF309811C4880F31488BFF36F8FF0B57B
:1001500043464C4655465E466746F8B4174CEFF3A7
:100160000883236006B4164C2068164C2060164C99
:100170002068164C2060164C2068164C2060164CE7
:10018000276800202060BFF34F8F30BF27600B4CE3
:10019000246884F3088882B003BCF8BC9846A14662
:1001A000AA46B346BC46F0BC04BC80F3098881F380
:1001B0001488BFF36F8F1047000000000800002074
:1001C00004ED00E0F402002024ED00E0F80200203D
:1001D00000E200E0FC020020080020401FB51FBD27
:1001E00010B510BD03488546FFF7F8FF03F07CFE0D
:1001F00000F022F90060002003B4FFF7F1FF03BC18
:1002000000F022F970B505460C46164602E00FCC08
:100210000FC5103E102EFAD2082E02D303CC03C510
:10022000083E042E07D301CC01C5361F03E0217818
:100230002970641C6D1C761EF9D270BD0FB405497F
:1002400010B503AA029800F0B5F810BC08BC04B0C1
:1002500018470000DC020020002203098B422CD347
:10026000030A8B4211D300239C464EE003460B4306
:100270003CD4002243088B4231D303098B421CD368
:10028000030A8B4201D394463FE0C3098B4201D35A
:10029000CB01C01A524183098B4201D38B01C01A92
:1002A000524143098B4201D34B01C01A5241030909
:1002B0008B4201D30B01C01A5241C3088B4201D3B8
:1002C000CB00C01A524183088B4201D38B00C01A65
:1002D000524143088B4201D34B00C01A5241411A8C
:1002E00000D201465241104670475DE0CA0F00D06F
:1002F0004942031000D34042534000229C46030968
:100300008B422DD3030A8B4212D3FC22890112BAED
:10031000030A8B420CD3890192118B4208D38901C5
:1003200092118B4204D389013AD0921100E08909DD
:10033000C3098B4201D3CB01C01A524183098B42BE
:1003400001D38B01C01A524143098B4201D34B01A7
:10035000C01A524103098B4201D30B01C01A52410A
:10036000C3088B4201D3CB00C01A524183088B4291
:1003700001D38B00C01A5241D9D243088B4201D31A
:100380004B00C01A5241411A00D201466346524105
:100390005B10104601D34042002B00D54942704704
:1003A00063465B1000D3404201B50020C046C04602
:1003B00002BD0000084B70B50D467B4400F013F8F9
:1003C0000446284600F022F8002802D00020C0434E
:1003D00070BD204670BD00001B3B000001694A1C37
:1003E00002610878704700B58FB002910021059135
:1003F000054901937944039111460490684600F041
:1004000009F80FB000BD0000E5FFFFFFC0688021C4
:1004100008407047F8B50646002447688068009099
:100420003046F56803E00099B847641C3046A84799
:100430000028F8D12046F8BD10B50446C046C04695
:100440002046FFF7D9FE10BD01491820ABBEFEE7DC
:1004500026000200704730B58C180278401C130744
:100460001B0F01D10378401C120906D10278401CF1
:1004700003E00578401C0D70491C5B1EF9D101E0BA
:100480000B70491C521EFBD1A142E6D3002030BDA7
:100490007047F8B504460D4616461F462A2000F060
:1004A00062FC2104080E00F068FCE0B200F065FC7C
:1004B0003104080E00F061FCF0B200F05EFC2B206D
:1004C00000F051FC2904080E00F057FCE8B200F0DF
:1004D00054FC3904080E00F050FCF8B200F04DFC5A
:1004E0002C2000F040FCF8BD10B50146002004E0CF
:1004F000114A125C521C1218D0B20F4A125C002A28
:10050000F6D1C21C202A0CDA02220B4B1A543523D6
:10051000094C421CA3542346821C99540023C21C3C
:10052000A3540222054B1A7035225A701A46917054
:100530000022DA7010BD0000680300201C000020BB
:1005400010B50920C00604680120C003204000281F
:1005500001D000F05BFA0920C006046010BD000065
:1005600010B50A4C0A48844200D90EE02002000A65
:10057000401E084948610321081F00F031FC00209B
:10058000044988610720086100BF10BD7F3E00005C
:10059000FFFFFF0000E000E0014800687047000036
:1005A000CC02002000B50146FFF7F6FF024600BF6F
:1005B000FFF7F2FF801A8842FAD300BD70470000AF
:1005C000F0B58BB005460E461C224EA16846FFF7DB
:1005D00019FE07A800F0E4F9002D73D04021684609
:1005E00081734C21C17220210172B22141745B21BF
:1005F00001754B48846A200C4A4988420BD16846F1
:10060000C17D702081436846C175C07D6107490E78
:1006100008436946C8754248446A200C41498842EB
:100620000BD1684641793020814368464171407959
:10063000A107890E08436946487139484038046B60
:10064000200C384988420BD16846C07D810889005A
:100650006846C175C07DA107890F08436946C87502
:100660006846C17A042001436846C172407F000198
:100670006946897F084312280ADB6846C17D042049
:1006800081436846C175C07D0A900A98FFF72CFF28
:10069000684680B20121090408430921C906C860DF
:1006A00000BF0920C006C0680121090408400028D5
:1006B000F7D16946487F0001897F0843122801DB92
:1006C00001F0A8FA00BF1848008B0028FBD00120D9
:1006D000154908831720888100200861002E0BD05F
:1006E0000920C006076900BF0920C0060069102163
:1006F000084039408842F7D00C480D4908600BB0DB
:10070000F0BD0000023F00023E30023C20023B4CA4
:10071000023A400239B202345B02350B000000009D
:10072000C007001055AA000000001048CCBCECFC2B
:10073000140000200121890788627047002907D032
:1007400001229207D269024301239B07DA6106E086
:1007500001229207D269824301239B07DA61704725
:100760004168012907D189070969026811430122FB
:100770009207116107E00121890709690268914325
:10078000012292071161816801290ED189078969C7
:10079000026811430122920791611146496902687A
:1007A00091430122920751611AE0816800290FD11B
:1007B00001218907896902689143012292079161A9
:1007C000114649690268914301229207516107E08D
:1007D0000121890749690268114301229207516189
:1007E0007047014601208007406A0840002801D078
:1007F000012070470020FCE710B50120C002FFF780
:10080000F0FF012807D1C002FFF794FF09480068F4
:10081000401C084908602020FFF7E3FF012807D1AA
:100820002020FFF787FF04480078401C0249087029
:1008300010BD0000040300200003002070B5014635
:1008400000220A790879002808D101208007406831
:100850000C68A0430124A40760600BE00879062817
:1008600008D100220120800740680C682043012441
:10087000A4076060002058E00C68C440E307DB0F69
:10088000002B50D008280EDA0124A407E46A860061
:100890000F25B540AC4386001546B5402C430125D5
:1008A000AD07EC623FE0072814DD102812DA0124BE
:1008B000A407246B0546083DAE000F25B540AC43A8
:1008C0000546083DAE001546B5402C430125AD0751
:1008D0002C6328E00F2814DD182812DA0124A4075D
:1008E000646B0546103DAE000F25B540AC43054690
:1008F000103DAE001546B5402C430125AD076C6395
:1009000011E017280FDD1D4C248B0546183DAE0065
:100910000F25B540AC430546183DAE001546B54021
:100920002C43164D2C83441CE0B21A28A4DB4879D2
:10093000012807D18007C0680C6820430124A40760
:10094000E06007E001208007C0680C68A043012434
:10095000A407E0608879012807D1800780680C68C7
:1009600020430124A407A06007E0012080078068DD
:100970000C68A0430124A407A06070BD20000040C3
:1009800001490860704700004000004001218907CC
:10099000C863704700210160017181714171704726
:1009A00010B51549154A144B283BDB691B061B0F74
:1009B0004370114B283BDB691B071B0F83700B68CF
:1009C00043600F4C4368A34209D113680D4CA34206
:1009D00002D10423037004E00223037001E0012329
:1009E00003704378002B01D101234370064B9B8A8F
:1009F0005B1C9B00836010BD280090401C00001011
:100A000041A0000244A000F20000104010B50120F7
:100A1000000701F011FA0848007C401C0649497C97
:100A2000884202D10448007C02E00348007C401C5C
:100A30000149087410BD000010030020FFB581B00B
:100A4000064614461D460220FFF79AFF2C2000F0B0
:100A50008AF93219029B19463046FFF71AFD012721
:100A600007E02904080E00F088F9E8B200F085F9E3
:100A70007F1CA742F5D90220FFF788FF05B0F0BD23
:100A800000BFFEE77047704700B587B001210846F8
:100A900001F062F94120400105900021684601768D
:100AA0008176417605A8FFF7C9FE002168460174EA
:100AB000032141740121817404A800F06DF9012023
:100AC000C002019000200290039001A8FFF748FEA9
:100AD000202001900020039001A8FFF741FE412053
:100AE0004001FFF727FE012141204001FFF726FECC
:100AF00007B000BD70B504460220FFF741FFFF2399
:100B0000E133FF22413200210846FFF7C2FC0025F5
:100B10000EE0002607E02104080E00F02EF9E0B2F6
:100B200000F02BF9761CFF20E1308642F3D36D1CD8
:100B3000FF2041308542ECD30220FFF727FF70BD34
:100B400010B54020FFF722FF0520FFF72BFD4020C6
:100B5000FFF716FF0F20FFF725FD4020FFF716FFD8
:100B60000F20FFF71FFD0220FFF70AFFF02000F023
:100B7000FAF8C32000F001F9F02000F0F4F8962014
:100B800000F0FBF8362000F0EEF8682000F0F5F8F1
:100B90003A2000F0E8F8052000F0EFF8B02000F06F
:100BA000E2F8802000F0E9F8B62000F0DCF8002040
:100BB00000F0E3F8022000F0E0F8B52000F0D3F8F0
:100BC000022000F0DAF8032000F0D7F8002000F04F
:100BD000D4F8042000F0D1F8B12000F0C4F880204F
:100BE00000F0CBF8102000F0C8F8B42000F0BBF8FB
:100BF000002000F0C2F8B72000F0B5F8C62000F0E1
:100C0000BCF8C52000F0AFF8242000F0B6F8E420CE
:100C100000F0A9F8312000F0B0F8E82000F0A3F8C7
:100C2000402000F0AAF88A2000F0A7F8002000F089
:100C3000A4F8002000F0A1F8292000F09EF8192067
:100C400000F09BF8A52000F098F8332000F095F80C
:100C5000C22000F088F8A72000F085F8E02000F01E
:100C600082F8F02000F089F8092000F086F81320BF
:100C700000F083F8122000F080F8122000F07DF8D8
:100C80002B2000F07AF83C2000F077F8442000F0A8
:100C900074F84B2000F071F81B2000F06EF818205B
:100CA00000F06BF8172000F068F81D2000F065F8E0
:100CB000212000F062F8E12000F055F8F02000F06B
:100CC0005CF8092000F059F8132000F056F80C20C9
:100CD00000F053F80D2000F050F8272000F04DF8F8
:100CE0003B2000F04AF8442000F047F84D2000F087
:100CF00044F80B2000F041F8172000F03EF81720D0
:100D000000F03BF81D2000F038F8212000F035F805
:100D1000362000F028F8482000F02FF8F02000F0EE
:100D200022F8C32000F029F8F02000F01CF8692018
:100D300000F023F8132000F016F8112000F013F84B
:100D4000292000F010F80220FFF720FE10BD10B59A
:100D50000446204600F03EFB00BF102000F0F2FAEF
:100D60000128FAD010BD10B5044601208003FFF71A
:100D700007FE2046FFF7EBFF10BD10B5044601202B
:100D80008003FFF703FE2046FFF7E1FF10BD704729
:100D9000704770477047704710B50446A078002828
:100DA00010D06178227850B200F056F82078C10651
:100DB000C90E01208840217849118900074A891805
:100DC00008600AE02078C106C90E01208840034966
:100DD0008031227852119200885010BD00E100E06D
:100DE00010B5002819DA1A4A03071B0F083B9B08A5
:100DF0009B00D2588307DC0EFF23A3409A438B0746
:100E00001B0E8407E40EA3401A43114B0407240F62
:100E1000083CA408A4001A5118E00E4A03231B0240
:100E2000D21883089B00D2588307DC0EFF23A3400F
:100E30009A438B071B0E8407E40EA3401A43054B0D
:100E4000032424021B198408A4001A5110BD0000B9
:100E50001CED00E000E100E010B5002819DA1A4AA4
:100E600003071B0F083B9B089B00D2588307DC0E2F
:100E7000FF23A3409A438B071B0E8407E40EA34075
:100E80001A43114B0407240F083CA408A4001A516C
:100E900018E00E4A03231B02D21883089B00D25885
:100EA0008307DC0EFF23A3409A438B071B0E8407A6
:100EB000E40EA3401A43054B032424021B198408A3
:100EC000A4001A5110BD00001CED00E000E100E09C
:100ED00010B5002819DA1A4A03071B0F083B9B08B4
:100EE0009B00D2588307DC0EFF23A3409A438B0755
:100EF0001B0E8407E40EA3401A43114B0407240F72
:100F0000083CA408A4001A5118E00E4A03231B024F
:100F1000D21883089B00D2588307DC0EFF23A3401E
:100F20009A438B071B0E8407E40EA3401A43054B1C
:100F3000032424021B198408A4001A5110BD0000C8
:100F40001CED00E000E100E07047704770470000D2
:100F500001F0E4F8012802D1FFF7B2F805E00448F7
:100F600080F3088800BF02F0BFFF00BFFEE700006B
:100F700000600020002808D00849896901229206F3
:100F800091438918054A916106E004498969012263
:100F900092069143014A9161704700000000F040C1
:100FA000002807D00749098A02229143891C054A73
:100FB000118205E00349098A02229143014A118204
:100FC000704700002000F040114909688906890E29
:100FD00001700F4909680905890E41700C490968BB
:100FE000C903C90E81700A4909680903490FC17014
:100FF00007490968C901C90E017105490968C90095
:10100000090F4171024989898904890CC18070479F
:101010000000F0401CB5022000F07AF801284CD105
:10102000022000F055F86846FFF7CEFF684640788A
:1010300022490978884207D06946487802F05AF870
:10104000694648781D490870684680781C490978C7
:10105000884207D06946887801F0F6FC69468878AE
:10106000174908706846C07816490978884207D041
:101070006946C87802F048FE6946C8781149087088
:101080006846007910490978884207D0694608798E
:1010900001F07CF9694608790B4908706846407987
:1010A0000A490978884207D06946487902F048F829
:1010B000694648790549087000BF1CBD0803002037
:1010C000090300200B0300200A0300200C0300206A
:1010D00001490872704700002000F04010B5012857
:1010E00008D10A4A127F8243CB07DB0F1A43074B12
:1010F0001A7709E0054A127F02239A434B00022423
:1011000023401A43014B1A7710BD00000000F04045
:101110000146044800780840002801D001207047AB
:101120000020FCE72000F04008B51A49098A490868
:1011300049000278D207D20F1143164A11820021CA
:10114000009103E000BF0099491C00914B22D2009E
:1011500000999142F6D30F49098A7F2212019143E7
:10116000C26812017F231B011A401143094A1182F0
:10117000084A203A41685163816891630169D163EB
:10118000044A20324169116081695160C1699160EE
:1011900008BD00002000F0402A49896889098901BA
:1011A00002789206920E1143264A91601146896890
:1011B0003F2292019143427892013F239B011A40C2
:1011C0001143204A9160114689681F2212039143FE
:1011D000827812031F231B031A401143194A91609E
:1011E00011468968072252049143C27852040723AA
:1011F0005B041A401143134A9160114689681F220B
:1012000012059143027912051F231B051A40114351
:101210000C4A916011468968520191434279520605
:101220000F235B061A401143064A91601146898AD2
:10123000890B8903C2889204920C1143014A91825E
:10124000704700000000F040FFB581B007460D4632
:101250001E46002406E0291938460A9B039AFFF728
:10126000EDFB641CB442F6D305B0F0BD002811D0EC
:10127000164A92B201231B041A430923DB06DA60E3
:1012800000BF0922D206D26801231B041A40002A9B
:10129000F7D119E00D4A9178927804239A430B4BC9
:1012A0009A701A4692B201231B041A430923DB06E3
:1012B000DA6000BF0922D206D26801231B041A405B
:1012C000002AF7D1014A9170704700001C000020ED
:1012D00000B501E000F078F8042000F033F80128B0
:1012E000F8D000BD0C49097802229143891C0A4AB2
:1012F000117002E00849C968084307498039097B31
:10130000C907C90F0029F5D0034909780222914382
:10131000014A11707047000080004040002807D04B
:101320000749496802229143891C054A516005E03A
:101330000349496802229143014A51607047000005
:101340000000404001460448007B0840002801D0CE
:10135000012070470020FCE700004040704700007B
:1013600010B50446606800F03BF816484068042158
:1013700088432178890004221140084311494860BC
:101380000846006840218843A17889014022114025
:1013900008430C4908600846006880218843E178CA
:1013A000C9018022114008430649086008460068C8
:1013B000400940016178C906C90E08430149086027
:1013C00010BD0000000040400148806870470000E8
:1013D0000000404001498860704700000000404024
:1013E000F8B505460127022669001048FEF734FFCC
:1013F0000446002C0BD07F204002844207D802E034
:101400007006060E6408FF2CFAD8601EC7B20848A2
:1014100006740068FF21090288433902FF22120284
:101420001140084302490860F8BD00000024F400A0
:10143000000040400149C862704700000000404081
:10144000012101700721417000218170C1700149A3
:101450004160704740420F001FB50121112000F08C
:101460007BFC6846FFF796FA04200090042168464A
:1014700001710121817100214171FFF7DFF908201D
:101480000090042168460171FFF7D8F9012000900F
:10149000042168460171FFF7D1F902A8FFF7D0FFD8
:1014A0000021684601720721417200218172C172D8
:1014B0000748039002A8FFF753FFFF20FFF7BAFF8A
:1014C000FFF710FFFFF704FF0120FFF727FF1FBD05
:1014D0000048E801704700003EB5FFF7BDFF01215D
:1014E000084600F039FC01A8FFF754FAD5480190EE
:1014F00006216846017201218172417201A8FFF73D
:101500009DF9D048FFF742FAFFF71AFB0020FFF7DA
:10151000F1FACD4BFF22413264210020FFF78EFA11
:10152000C94BFF22413265210020FFF787FAC64BE5
:10153000FF224132FF2123310020FFF77FFAC24B07
:10154000FF224132FF2124310020FFF777FABE4B02
:10155000BE226421A02000F0AFFD2324BA4B9122CB
:101560000521022001F04CF8B74B91222D210520D6
:1015700001F046F8B44B91225A21082001F040F8BE
:10158000B2486100009008460B3008231A46C82173
:1015900000F0FCFDAE4808231A46962100908220F8
:1015A00000F0F4FDAB481D231122B42100908420EB
:1015B00000F0ECFDA44BDC220521084601F020F8E8
:1015C000A14BDC222D21012001F01AF89E4BDC22D8
:1015D0005A21062001F014F89C486100009008464A
:1015E0000B3008231A46FF21123100F0CFFD9A4834
:1015F0001F231A46FC210090802000F0C7FD92486E
:101600001F381E234122692100902D20FFF71CFE68
:101610000020032309226A2100903F20FFF714FED7
:10162000002003230922822100903F20FFF70CFEB7
:101630000020152303226D2100904220FFF704FEB5
:10164000002003230F22762100905020FFF7FCFD9D
:1016500000200C230322792100905020FFF7F4FD95
:1016600000200C230322792100905C20FFF7ECFD81
:101670001F201E23412269210090CD20FFF7E4FDA9
:101680000020032309226A210090DA20FFF7DCFD05
:1016900000200323092282210090DA20FFF7D4FDE5
:1016A0000020152303226D210090D720FFF7CCFDE9
:1016B0000020152303226D210090E320FFF7C4FDD5
:1016C00000200F23032276210090EA20FFF7BCFDC3
:1016D00000200F23032276210090F320FFF7B4FDB2
:1016E00000200323092282210090ED20FFF7ACFDAA
:1016F00000201323032270210090FA20FFF7A4FD9D
:1017000000200223092273210090F720FFF79CFD9F
:1017100000200323022281210090FF20FFF794FD87
:1017200000200323012282210090FE20FFF78CFD80
:1017300000200223042283210090FB20FFF784FD78
:10174000414B9122A521012000F05AFF3E4B9122EE
:10175000CD21022000F054FF3B4B9122FA210420BE
:1017600000F04EFF3948610000900846AB30082376
:101770001A46C82100F00AFD354808231A4696216A
:101780000090FF20233000F001FD32481D2311227C
:10179000B4210090FF20253000F0F8FC2A4BDC2219
:1017A000A521082000F02CFF274BDC22CD210420AE
:1017B00000F026FF244BDC22FA21072000F020FF56
:1017C0002248610000900846AB3008231A46FF21EA
:1017D000123100F0DBFC20481F231A46FC21009048
:1017E000FF20213000F0D2FC802001F0EDFD7D20B3
:1017F0000001FEF7D7FE552001F0E6FD7D20000137
:10180000FEF7D0FE462001F0DFFD7D200001FEF74F
:10181000C9FE282001F0D8FD7D200001FEF7C2FEA0
:10182000022000F023FD7D200001FEF7BBFE3C20DE
:1018300000F01CFD7D200001FEF7B4FE642000F0E6
:1018400015FD3EBD52400000FFFF00001440041093
:1018500054400410944004108142041000B58DB02F
:101860000121480300F078FA00206946087302203D
:10187000AB49086015E0AA480068082802DB01208F
:10188000A7490860A649087802F03EFAFF20913087
:10189000FEF788FE002002F037FAFF209130FEF7B5
:1018A00081FEA04800780028E5D09D480078694670
:1018B000C8739B49087802F027FA994800789A493A
:1018C000087001209649086000209649087015E0CC
:1018D00093480068202802DB012091490860904964
:1018E000087800F053FDFF209130FEF75BFE632087
:1018F00000F04CFDFF209130FEF754FE894800783F
:101900000028E5D08648007869460874844908783C
:1019100000F03CFD8248007884490870012080492D
:10192000086000207F49087015E07D4800680D2898
:1019300002DB01207A4908607949087801F000FC4F
:10194000FF209130FEF72EFE632001F0F9FBFF200F
:101950009130FEF727FE734800780028E5D07049E3
:10196000087801F0EDFB6E480078714908706C480A
:10197000007869464874FD20C0006949086000206D
:101980006849087015E0664800686A49884202DBC9
:101990000120634908606248006802F051FA4B2058
:1019A000C000FEF7FFFD632002F04AFAC820FEF7F0
:1019B000F9FD5C4800780028E5D05948006802F03D
:1019C0003FFA574800886946488200205449086019
:1019D000544908707D20C000FEF7E4FD632002F04A
:1019E0002FFA554808231A461E210090C42000F003
:1019F000CDFB514808231A463C210090C42000F03A
:101A0000C5FB15E046480068182802DB0020444961
:101A100008604349087801F017F8FF209130FEF77D
:101A2000C1FD632001F010F8FF209130FEF7BAFDF0
:101A30003C4800780028E5D039480078694688732A
:101A40003749087801F000F8354800783B490870BC
:101A50000020334908603349087015E030480068B9
:101A60003C2802DB00202E4908602D49087801F04F
:101A700041FBFF209130FEF795FD632001F03AFB1A
:101A8000FF209130FEF78EFD264800780028E5D033
:101A900023480178684641732149087801F02AFB00
:101AA0001F4800782649087003A8FFF775FB01203E
:101AB000FFF760FA0121480300F04EF90021684663
:101AC0000175002008901F4806900020099005A885
:101AD000FFF72AFB01210220FFF700FB0220FFF79E
:101AE000F7FA0021019105E000BF68468088401C9C
:101AF00081B20191684680884B21C9008842F3DB9E
:101B0000152168460172032141720121817202A8E8
:101B1000FFF742F90120FFF743FA0DB000BD0000C6
:101B200004030020000300200B0300200A03002010
:101B30000C030020102700001440041009030020AB
:101B400008030020E2FF0E0010B586B00446012114
:101B5000092000F001F900F045F8401E80001D4901
:101B60000858019000F03EF8401E80001A49095CB8
:101B70006846017200218172417201A8FEF75EFE83
:101B800000F030F8401E800014490858019000F021
:101B900029F8401E80001249095C6846017201A8BC
:101BA000FEF74CFE03940321684601744174002142
:101BB0008174C1744175032101750121817503A8E8
:101BC00000F070F9002000F061FA012000F03AF90D
:101BD00006B010BDAC3F0410B03F0410B43F041079
:101BE000B83F04100148007870470000E40200206C
:101BF0000120014908707047E402002010B5044636
:101C000000BF202000F032F90128FAD0204600F071
:101C10004BFA10BD002004E01549095C491C091865
:101C2000C8B21349095C0029F6D1C11C20291EDA6B
:101C300002210F4A115421220D4B411C5A540822F3
:101C4000811C5A540022C11C5A541946091889B2E1
:101C50000122120411430922D206D16000BF0921DA
:101C6000C906C9680122120411400029F7D1704742
:101C70006803002002480068401C01490860704762
:101C8000CC02002010B5314B197A314B1A89002053
:101C9000002905D109231340092B01D12023184322
:101CA000002905D111231340112B01D140231843E2
:101CB000002905D121231340212B01D18023184372
:101CC000002906D141231340412B02D1FF230133C8
:101CD0001843002906D181231340812B02D101230F
:101CE0005B021843002909D1FF2302331340FF246C
:101CF0000234A34202D101239B021843002907D1D9
:101D0000144B1340134CA34202D10123DB021843AE
:101D1000002905D105231340052B01D110231843B9
:101D2000002905D193079B0F032B01D108231843EA
:101D3000022901D101231843042901D102231843A8
:101D4000082901D10423184310BD00000000904071
:101D50000000104801040000012905D1054A126A5B
:101D60000243044B1A6204E0024A126A8243014BA6
:101D70001A6270470000904010B5FFF77BFF10BD5E
:101D800010B50820294988800321481FFFF7A0F8D3
:101D90000321081FFFF79CF803210020FFF798F8A4
:101DA00003210120FFF794F803210420FFF790F8A6
:101DB00003210520FFF78CF800210620FFF788F8A3
:101DC00003210720FFF784F803210D20FFF780F897
:101DD00003210E20FFF77CF803210F20FFF778F88E
:101DE00003211120FFF774F803211220FFF770F888
:101DF00003211320FFF76CF803211420FFF768F884
:101E000003211520FFF764F803211620FFF760F87F
:101E100003211720FFF75CF800210120FEF7D0FB1B
:101E200003480449086262B610BD0000000010407B
:101E300066000E0000009040014988607047000075
:101E400040000048002807D00749096B49084900AD
:101E5000491C054A116305E00349096B490849001B
:101E6000014A116370470000000030400146C80F6E
:101E7000C007002808D0094840680840002801D061
:101E8000012070470020FCE70448008B0840002830
:101E900001D00120F5E70020F3E70000000030400A
:101EA00070470000F8B504467648006B0007C00F85
:101EB000002806D1206801017348FEF7CDF90546D8
:101EC00005E02068C1007048FEF7C6F905466802C3
:101ED000060C6C4820308680F001281A401CC00394
:101EE000070C3F2F04DD701C86B2781C8706BF0EDE
:101EF000644920310F720846007B602188432179B4
:101F000049016022114008435E49203108735D4851
:101F1000007F602188436179490111400843594994
:101F2000087758482030007B08218843A179C900F0
:101F30000822114008435349203108735148007F5B
:101F400008218843A179C900114008434D49087709
:101F5000E07900280ED14B482030007B02218843D5
:101F60004849203108734748007F0221884345498A
:101F700008773FE0E07902281DD142482030007BFD
:101F800002218843801C3F49203108730846007BAA
:101F9000042188433B49203108733A48007F0221DD
:101FA0008843801C374908770846007F042188430E
:101FB000344908771EE033482030007B02218843F3
:101FC000801C3049203108730846007B0421884377
:101FD000001D2C49203108732A48007F02218843C4
:101FE000801C284908770846007F04218843001D8B
:101FF000244908772348006B012149028843217A4C
:10200000490201225202114008431E490863084652
:10201000006B89158843217A49100902521011403A
:102020000843184908630846006B91018843617AA8
:102030008903920111400843124908630846006B66
:1020400051008843617A4910C90352001140084386
:102050000C4908630B482030007B10218843A17A8B
:102060000901102211400843064920310873054830
:10207000007F10218843A17A0901114008430149DA
:102080000877F8BD000030400000127A0549097D4C
:1020900038229143C20038231A401143014A117576
:1020A0007047000020003040C105C90D014A118071
:1020B0007047000000003040FFB581B0064614466E
:1020C0001D460220FEF75CFC2C20FEF74CFE029819
:1020D0000319324601463046FEF7DBF9012707E0D7
:1020E0002904080EFEF749FEE8B2FEF746FE7F1C03
:1020F000A742F5D90220FEF749FC05B0F0BD7047B4
:1021000030B47446641E2578641CAB4204D3635D0E
:102110005B00E31830BC18471D46F8E738B50020CF
:1021200016490860002409E0FFF7ACFD00906946FD
:102130000888002800D003E0601CC4B2032CF3DB45
:1021400000BF68460088202815DB6846008801F03B
:10215000EBFE01200A490870FEF719F80AE000BFFB
:10216000BFF34F8F07480849C860BFF34F8F00BFC8
:1021700000BFFEE7F3E7012038BD00001400002097
:102180000C0000200400FA0500ED00E0FFB581B06E
:1021900015461C460220FEF7F3FB2C20FEF7E3FD5C
:1021A00002980019431E01984019421E0299019895
:1021B000FEF76FF9002652E000274DE030466043FD
:1021C000C1190A98405C0300FFF79AFF08050C1339
:1021D0001A21282F363D0020FEF7CFFD0020FEF704
:1021E000CCFD37E0FF20FEF7C8FDFF20FEF7C5FD60
:1021F00030E0F820FEF7C1FD0020FEF7BEFD29E02B
:102200000720FEF7BAFDE020FEF7B7FD22E0002030
:10221000FEF7B3FD1F20FEF7B0FD1BE0FF20FEF729
:10222000ACFDE020FEF7A9FD14E00720FEF7A5FDB8
:10223000FF20FEF7A2FD0DE0F820FEF79EFD1F2017
:10224000FEF79BFD06E00020FEF797FD0020FEF75D
:1022500094FD00BF00BF7F1CA742AFD3761CAE42E7
:10226000AAD30220FEF792FB05B0F0BD38B50446B4
:1022700045480223292269210090FF201430FEF7EF
:10228000E3FF41480223292285210090FF201430DA
:10229000FEF7DAFF3C481B2302226B210090FF204F
:1022A0001430FEF7D1FF38481B2302226B21009027
:1022B000FF203B30FEF7C8FF334808230322742178
:1022C0000090FF203D30FEF7BFFF142C1CDA1F20CA
:1022D000C00218230B226C210090FF201730FEF75C
:1022E000B3FF002018230B226C210090FF20233025
:1022F000FEF7AAFF002018230B226C210090FF207C
:102300002F30FEF7A1FF3DE03C2C1EDD3F204001B9
:1023100018230B226C210090FF201730FEF794FF4A
:102320003F20400118230B226C210090FF20233016
:10233000FEF78AFF3F20400118230B226C210090FA
:10234000FF202F30FEF780FF1CE00F481F381823B6
:102350000B226C210090FF201730FEF775FF0A4812
:102360001F3818230B226C210090FF202330FEF72A
:102370006BFF002018230B226C210090FF202F30D0
:10238000FEF762FF38BD0000FFFF000038B50446CD
:1023900000201D232422232100901B20FEF754FF40
:1023A000632C17D00A212046FDF760FFCDB20A4BFF
:1023B00023222F21284600F011F80A212046FDF79C
:1023C00055FFC4B2002C05D0034B23221B2120460D
:1023D00000F004F838BD0000FFFF0000F8B5044627
:1023E0000D4616461F462300FFF78AFE0A062530D3
:1023F0004A647993B2C2E6FE3A463146284601F075
:1024000001F93A463146284601F006F93A46314686
:10241000284601F00CF93A463146284601F013F9F6
:102420003A463146284601F019F93A4631462846DF
:1024300001F01FF9E2E03A463146284601F0ECF897
:102440003A463146284601F0F2F8D7E03A4631469E
:10245000284601F0D7F83A463146284601F0DCF824
:102460003A463146284601F00EF93A4631462846AA
:1024700001F0E9F83A463146284601F0EFF8BDE0B0
:102480003A463146284601F0BDF83A4631462846DC
:1024900001F0C2F83A463146284601F0C8F83A46FB
:1024A0003146284601F0EFF83A463146284601F019
:1024B000CAF8A3E03A463146284601F0DAF83A462F
:1024C0003146284601F0A8F83A463146284601F040
:1024D000AEF83A463146284601F0D5F88EE03A4645
:1024E0003146284601F0C5F83A463146284601F003
:1024F00089F83A463146284601F099F83A4631467D
:10250000284601F0C0F83A463146284601F09BF8CB
:1025100074E03A463146284601F074F83A463146AE
:10252000284601F0A6F83A463146284601F096F8CA
:102530003A463146284601F0A6F83A463146284642
:1025400001F075F83A463146284601F07CF855E02E
:102550003A463146284601F055F83A463146284673
:1025600001F05AF83A463146284601F060F845E055
:102570003A463146284601F045F83A463146284663
:1025800001F04AF83A463146284601F050F83A46FA
:102590003146284601F057F83A463146284601F0C0
:1025A0005DF83A463146284601F063F83A4631462E
:1025B000284601F068F821E03A463146284601F005
:1025C00021F83A463146284601F026F83A46314687
:1025D000284601F02CF83A463146284601F033F8F7
:1025E0003A463146284600E007E001F042F83A4614
:1025F0003146284601F047F800E000BF00BFF8BDB3
:10260000F8B504460D4616461F462300FFF778FD31
:102610000A0625304A647993B2C2E6FE3A4631464C
:10262000284601F03BF83A463146284601F070F85A
:102630003A463146284601F0A5F83A463146284642
:1026400001F0DAF83A463146284601F00FF93A46E9
:102650003146284601F044F9E2E03A463146284640
:1026600001F056F83A463146284601F08BF8D7E09B
:102670003A463146284601F011F83A463146284696
:1026800001F046F83A463146284601F063F93A46E9
:102690003146284601F0B0F83A463146284601F066
:1026A000E5F8BDE03A463146284600F0F7FF3A46E5
:1026B0003146284601F02CF83A463146284601F0CA
:1026C00061F83A463146284601F044F93A46314627
:1026D000284601F091F8A3E03A463146284601F039
:1026E000FFF83A463146284601F012F83A4631469C
:1026F000284601F047F83A463146284601F02AF9C3
:102700008EE03A463146284601F0EAF83A4631462C
:10271000284600F0C3FF3A463146284601F032F819
:102720003A463146284601F015F93A4631462846E0
:1027300001F062F874E03A463146284600F0AEFFF8
:102740003A463146284601F0CBF83A46314628460B
:1027500001F08CF83A463146284601F0FBF83A463B
:102760003146284601F00EF83A463146284601F037
:1027700043F855E03A463146284600F08FFF3A4686
:102780003146284600F0C4FF3A463146284600F05C
:10279000F9FF45E03A463146284600F07FFF3A46C9
:1027A0003146284600F0B4FF3A463146284600F04C
:1027B000E9FF3A463146284601F01EF83A463146CE
:1027C000284601F053F83A463146284601F088F889
:1027D0003A463146284601F0BDF821E03A463146F6
:1027E000284600F05BFF3A463146284600F090FF4D
:1027F0003A463146284600F0C5FF3A46314628465B
:1028000000F0FAFF3A463146284600E007E001F0C2
:1028100067F83A463146284601F09CF800E000BFD0
:1028200000BFF8BDF8B504460D4616461F46230006
:10283000FFF766FC0A0625304A647993B2C2E6FEC9
:102840003A463146284601F0BFF83A463146284616
:1028500001F0F6F83A463146284601F02DF93A469D
:102860003146284601F064F93A463146284601F0DF
:102870009BF93A463146284601F0D0F9E2E03A4663
:102880003146284601F0DCF83A463146284601F048
:1028900013F9D7E03A463146284601F095F83A4612
:1028A0003146284601F0CCF83A463146284601F038
:1028B000EFF93A463146284601F03AF93A463146B0
:1028C000284601F071F9BDE03A463146284601F04C
:1028D0007BF83A463146284601F0B2F83A4631468E
:1028E000284601F0E9F83A463146284601F0D0F989
:1028F0003A463146284601F01BF9A3E03A463146F4
:10290000284601F08BF93A463146284601F098F8FE
:102910003A463146284601F0CFF83A463146284635
:1029200001F0B6F98EE03A463146284601F076F9D4
:102930003A463146284601F047F83A46314628469D
:1029400001F0BAF83A463146284601F0A1F93A4674
:102950003146284601F0ECF874E03A463146284604
:1029600001F032F83A463146284601F057F93A4626
:102970003146284601F018F93A463146284601F01A
:1029800087F93A463146284601F096F83A463146EC
:10299000284601F0CDF855E03A463146284601F088
:1029A00013F83A463146284601F04AF83A4631468D
:1029B000284601F081F845E03A463146284601F0C4
:1029C00003F83A463146284601F03AF83A4631468D
:1029D000284601F071F83A463146284601F0A8F839
:1029E0003A463146284601F0DFF83A463146284655
:1029F00001F014F93A463146284601F049F921E040
:102A00003A463146284600F0DFFF3A46314628462E
:102A100001F016F83A463146284601F04DF83A469C
:102A20003146284601F084F83A463146284600E00F
:102A300007E001F0F3F83A463146284601F028F95C
:102A400000E000BF00BFF8BD38B5044600205A239F
:102A50006822052100901846FEF7F6FB632C17D07C
:102A60000A212046FDF702FCCDB20A4B0522902137
:102A70002846FFF7D7FE0A212046FDF7F7FBC4B230
:102A8000002C05D0034B05225A212046FFF7CAFE31
:102A900038BD0000FFFF0000FFB583B00E461446AE
:102AA0001D4603986C2875D014DC642853D008DCCC
:102AB0004E2870D04F286FD0612815D063286CD174
:102AC00031E065286DD0662869D0692868D06A2809
:102AD000F5D1B2E06D380300FFF712FB0ADFF7F61D
:102AE000F55FF4F3F2F1F05F03230F222146304645
:102AF0000095FEF7A9FB18230322E11C3046009540
:102B0000FEF7A2FB18230322E11C30460C3000958F
:102B1000FEF79AFB0323092221460C31F01C009595
:102B2000FEF792FBE3E203230C22214609313046F3
:102B30000095FEF789FB03230C222146183130460D
:102B40000095FEF781FB0C230322E1183046009527
:102B5000FEF77AFBCBE203230C2221463046009598
:102B6000FEF772FB03230C222146183130460095F4
:102B7000FEF76AFB15230322E11C30460095FEF7A1
:102B800063FB15230322E11C30460C300095FEF751
:102B90005BFBACE271E0AEE00BE1A7E201E01EE01E
:102BA00034E003230F22214630460095FEF74CFB0C
:102BB00003230C22A11830460095FEF745FB0323A2
:102BC0000F222146183130460095FEF73DFB1523B4
:102BD0000322E11C30460095FEF736FB87E2032313
:102BE0000F22214630460095FEF72EFB03230922D3
:102BF00021460C3130460095FEF726FB18230322B0
:102C0000E11C30460095FEF71FFB70E2032309220A
:102C10002146F01C0095FEF717FB032309222146ED
:102C20001831F01C0095FEF70FFB15230322E11C61
:102C3000B01D0095FEF708FB59E203230922214647
:102C4000B01D0095FEF700FB15230322E11C304662
:102C500009300095FEF7F8FA03231A46214615318C
:102C6000F01C0095FEF7F0FA03231A4621461831AE
:102C7000B01D0095FEF7E8FA39E21B230322214636
:102C800030460095FEF7E0FA03230C222146183166
:102C9000F01C0095FEF7D8FA29E21B2303222146F7
:102CA00030460095FEF7D0FA1B230322214630461A
:102CB0000C300095FEF7C8FA002719E0F3E1D8E1DF
:102CC000C8E165E1F3E0B5E092E059E0621CD1199A
:102CD000F21CD0192B460622FFF7EEF9621CD1191F
:102CE00032460B32D01B2B460622FFF7E5F97F1C3C
:102CF000052FEBDBFBE11B23032221463046009529
:102D0000FEF7A2FA1B230322214630460C30009521
:102D1000FEF79AFA00271AE078003A18E01C11181A
:102D2000F01CC0190323022200950290FEF78CFAD2
:102D300078003A1820461530811A30460A30C01BF8
:102D40000323022200950290FEF77EFA7F1C032FD8
:102D5000E2DB2B46022221460C31B01DFFF7ACF915
:102D60002B46032221460C31F01DFFF7A5F92B4617
:102D7000022221460D3130460830FFF79DF9B6E1B9
:102D800003230F2221460C3130460095FEF75CFAF2
:102D90000C23032221460F3130460095FEF754FAEA
:102DA0000C23032221460F31F0180095FEF74CFA50
:102DB0009DE1032309222146F01C0095FEF744FA09
:102DC0000323092221461831F01C0095FEF73CFA36
:102DD00015230322E11C30460095FEF735FA152332
:102DE0000322E11C30460C300095FEF72DFA7EE1FF
:102DF00003230F2221460C3130460095FEF724FABA
:102E000003230F222146183130460095FEF71CFAA5
:102E10000923032221460F3130460095FEF714FAAC
:102E20000923032221460F3130460C300095FEF76E
:102E30000BFA5CE103230B22214630460095FEF796
:102E400003FA18230322E11C30460095FEF7FCF933
:102E500007230322A11C30460A300095FEF7F4F93F
:102E60000223072221460931F01C0095FEF7ECF9F8
:102E70002B460122611C30460B30FDF7DFFD2B464F
:102E800002222146093130460A30FDF7D7FD2B4694
:102E9000012221460A3130460A30FDF7CFFD2B468C
:102EA000062221460B31F01CFDF7C8FD1FE103236C
:102EB0000B22214630460095FEF7C6F9182303225F
:102EC000E11C30460095FEF7BFF907230322A11C41
:102ED00030460A300095FEF7B7F902230722214653
:102EE0000931F01C0095FEF7AFF92B460122611C59
:102EF00030460B30FDF7A2FD2B4602222146093158
:102F000030460A30FDF79AFD2B46012221460A3150
:102F100030460A30FDF792FD2B46062221460B3142
:102F2000F01CFDF78BFD03231A4621460C31F01DE2
:102F30000095FEF789F903231A4621460F313046E2
:102F400008300095FEF780F903231A462146123116
:102F5000304609300095FEF777F903231A462146DB
:102F6000153130460A300095FEF76EF903231A46F4
:102F70002146183130460B300095FEF765F90023E5
:102F8000012221461A3130460B30FDF757FDAEE0E5
:102F900003230D222146B01C0095FEF755F90323AB
:102FA0000B2221460C31B01C0095FEF74DF903238E
:102FB0000D222146183130460095FEF745F90B23C6
:102FC0000322A11C30460095FEF73EF90B23032295
:102FD00021460E3130460C300095FEF735F92B4670
:102FE0000122611C701CFDF729FD2B460122E11C0A
:102FF000F01CFDF723FD2B46012221460D31701CEC
:10300000FDF71CFD2B46012221460B31F01CFDF77C
:1030100015FD2B46012221460D3130460D30FDF7BE
:103020000DFD2B46012221460F3130460B30FDF7B6
:1030300005FD2B4601222146173130460B30FDF7A6
:10304000FDFC2B4601222146193130460D30FDF79B
:10305000F5FC4CE003230F22214630460095FEF795
:10306000F3F818230322E11CB01D0095FEF7ECF8DD
:103070003DE00F23032221460C3130460095FEF738
:10308000E3F80F23032221460C3130460C30009523
:10309000FEF7DAF80323092221461831F01C0095C7
:1030A000FEF7D2F823E0002716E07A0020460A3027
:1030B0001118F0192B4604220290FEF7FDFF7A004A
:1030C00020460A30111830460E30C01B2B46042211
:1030D0000290FEF7F1FF7F1C072FE6DB2B46032251
:1030E00021461831F01DFEF7E7FF00E000BF00BFEA
:1030F00007B0F0BD38B5044600205A2368220521E8
:103100000090CF20FEF7A0F8632C16D00A212046AD
:10311000FDF7ACF8CDB2094B0522FF210631284658
:10312000FFF780FB0A212046FDF7A0F8C4B2034B4D
:103130000522CF212046FFF775FB38BDFFFF0000B9
:1031400038B5044600201B234B224521009008205F
:10315000FEF77AF82300FEF7D3FF0DFC08213A535F
:103160006C7F98B1CAE3FBFAFC00964B452208211C
:103170006A20FFF791FC934B45221C216120FFF749
:103180008BFC904B452230216E20FFF785FC8D4B48
:10319000452244217620FFF77FFC11E1894B45222F
:1031A00008216620FFF778FC864B45221C2165200C
:1031B000FFF772FC834B452230217620FFF76CFC31
:1031C000804B452244217220FFF766FCF8E07D4BDE
:1031D000452208216D20FFF75FFC7A4B45221C2118
:1031E0006120FFF759FC774B452230217220FFF711
:1031F00053FC744B452244217320FFF74DFCDFE064
:10320000704B452208216120FFF746FC6D4B45229B
:103210001C217620FFF740FC6A4B452230217220AA
:10322000FFF73AFC674B452244216920FFF734FC45
:10323000C6E0644B452208216D20FFF72DFC614B51
:1032400045221C216120FFF727FC5E4B45223021DF
:103250006920FFF721FCB3E05A4B452208216A2080
:10326000FFF71AFC574B45221C217520FFF714FC71
:10327000544B452230216920FFF70EFC514B45226B
:1032800044216E20FFF708FC9AE04E4B45220821AE
:103290006A20FFF701FC4B4B45221C217520FFF7EC
:1032A000FBFB484B452230216920FFF7F5FB454BDE
:1032B000452244216C20FFF7EFFB81E0414B452282
:1032C00008216120FFF7E8FB3E4B45221C216F20BF
:1032D000FFF7E2FB3B4B452230217520FFF7DCFB7B
:1032E000384B452244217420FFF7D6FB68E0354B6C
:1032F000452208217320FFF7CFFB324B45221C21CA
:103300006520FFF7C9FB2F4B452230217020FFF7C6
:10331000C3FB2C4B452244217420FFF7BDFB4FE03B
:10332000284B452208214F20FFF7B6FB254B4522AD
:103330001C216320FFF7B0FB224B45223021742073
:10334000FFF7AAFB1F4B452244216F2002E01DE03E
:1033500003E034E0FFF7A0FB32E01A4B45220821DE
:103360004E20FFF799FB174B45221C216F20FFF7DA
:1033700093FB144B452230217620FFF78DFB114B38
:10338000452244216520FFF787FB19E00D4B4522BC
:1033900008216420FFF780FB0A4B45221C21652091
:1033A000FFF77AFB074B452230216320FFF774FBC0
:1033B000044B452244216520FFF76EFB00E000BF6F
:1033C00000BF38BDFFFF0000F8B50746A5246925FA
:1033D000744E02231A4629461631204611300096B3
:1033E000FDF732FF642F00DD002633460122294617
:1033F000133120460D30FDF721FB02230822294618
:10340000123120460E300096FDF71EFF3346012292
:103410002946133120461630FDF710FB33460322B0
:103420002946143120460E30FDF708FB33460322AF
:103430002946143120461330FDF700FB33460422A1
:103440002946113120461030FDF7F8FA4B2F00DDE8
:1034500000260323062229460C3120460F30009611
:10346000FDF7F2FE0323022229460D3120461530D6
:103470000096FDF7E9FE0323022229460E3120467D
:1034800017300096FDF7E0FE3346022229460F3141
:1034900020461930FEF710FE3346022229460F312E
:1034A00020460A30FEF708FE0323022229460E3189
:1034B00020460B300096FDF7C7FE03230222294663
:1034C0000D3120460D300096FDF7BEFE3C2F00DD8D
:1034D000002603230622E91D20460F300096FDF743
:1034E000B3FE0323042229460831204615300096F6
:1034F000FDF7AAFE032304222946083120460B309B
:103500000096FDF7A1FE3346022229460C31A01D8C
:10351000FEF7D2FD3346032229460B31E01DFEF7AC
:10352000CBFD3346042229460A3120460830FEF7F7
:10353000C3FD3346032229460A3120460930FEF7EF
:10354000BBFD334603222946093120460A30FEF7E7
:10355000B3FD334603222946093120461930FEF7D0
:10356000ABFD3346032229460A3120461A30FEF7C6
:10357000A3FD3346042229460A3120461B30FEF7BC
:103580009BFD3346032229460B3120461C30FEF7B3
:1035900093FD3346022229460C3120461D30FEF7AA
:1035A0008BFDF8BDFFFF000070B505460C461646C2
:1035B0003346082221462846FDF740FA681E334666
:1035C0000A22611CFDF73AFA33460822A11C28465C
:1035D000FDF734FA70BD70B504460D461646334605
:1035E0000A2229462046FEF767FD691E33460C2253
:1035F000601CFEF761FD33460A222946A01CFEF737
:103600005BFD70BD70B504460D4616463246294630
:10361000201DFFF7C9FF70BD70B504460D46164664
:103620003246E91C20460D30FFF7D5FF70BD70B55E
:1036300004460D46164632462946103120460D30C6
:10364000FFF7C9FF70BD70B504460D4616463246F9
:1036500029461A31201DFFF7A7FF70BD70B505463A
:103660000C4616463246214610312846FFF7B3FF76
:1036700070BD70B505460C4616463246E11C28461C
:10368000FFF7A9FF70BD70B504460D4616463246D9
:1036900029460D31201DFFF787FF70BDF0B589B0B9
:1036A00005460E4617460020089013A21168506880
:1036B000926807920591069012A21168506892686C
:1036C000049202910390002411E002A8005D401CC6
:1036D00005AB1B5DC21A08983018011905A8005DDA
:1036E00040193B460190FDF7A9F9601CC4B2092CB2
:1036F000EBDB09B0F0BD0000050302010103050684
:10370000080000001B1A1A191919181818000000CF
:10371000F0B589B005460E4617461A20089013A248
:1037200011685068926807920591069012A211687C
:1037300050689268049202910390002411E002A85C
:10374000005D401C05AB1B5DC21A05A8005D811918
:103750000898281800193B460190FEF7ADFC601C44
:10376000C4B2092CEBDB09B0F0BD00000704010076
:1037700001020304060000001718181A1A1B1C1B6C
:1037800018000000F0B589B005460E4617461A200D
:10379000089013A2116850689268079205910690EC
:1037A00012A211685068926804920291039000245A
:1037B00011E002A8005D401C05AB1B5DC21A05A804
:1037C000005D81190898281800193B460190FEF702
:1037D00073FC601CC4B2092CEBDB09B0F0BD000027
:1037E000242423232221202124000000373A3D3DB8
:1037F0003D3C3B3A38000000F0B589B005460E4626
:1038000017463620089013A21168506892680792F4
:103810000591069012A21168506892680492029174
:103820000390002411E002A8005D401C05AB1B5D65
:10383000C21A08983018011905A8005D40193B46C6
:103840000190FDF7FBF8601CC4B2092CEBDB09B05A
:10385000F0BD0000070200000101020305000000A6
:103860001718181919191A1A1A000000F0B589B09A
:1038700005460E4617460020089013A211685068AE
:10388000926807920591069012A21168506892689A
:10389000049202910390002411E002A8005D401CF4
:1038A00005AB1B5DC21A05A8005D81190898281890
:1038B00000193B460190FEF7FFFB601CC4B2092CC7
:1038C000EBDB09B0F0BD00002220202122222323BF
:1038D00024000000363535353534343433000000EB
:1038E000F0B589B005460E4617460020089013A291
:1038F00011685068926807920591069012A21168AB
:1039000050689268049202910390002411E002A88A
:10391000005D401C05AB1B5DC21A05A8005D811946
:103920000898281800193B460190FEF7C5FB601C5B
:10393000C4B2092CEBDB09B0F0BD00000607070894
:103940000809090A0B0000001A1C1C1B1A19191877
:1039500018000000F0B589B005460E4617461A203B
:10396000089013A21168506892680792059106901A
:1039700012A2116850689268049202910390002488
:1039800011E002A8005D401C05AB1B5DC21A08983F
:103990003018011905A8005D40193B460190FDF75C
:1039A0004DF8601CC4B2092CEBDB09B0F0BD00007F
:1039B0000907050403040507090000001A1B1D1E62
:1039C0001F1E1D1B19000000F0B58BB005460E46EA
:1039D000174600200A9012A35A6899681868DB6895
:1039E000099307920891069011A30FCB02AC0FC464
:1039F000002411E002A8005D401C06AB1B5DC21A4A
:103A00000A983018011906A8005D40193B4601903C
:103A1000FDF714F8601CC4B20D2CEBDB0BB0F0BD4D
:103A200007050403020101030507080A0C00000052
:103A300026252525242424232323222222000000B6
:103A4000F0B58BB005460E46174624200A9012A307
:103A50005A6899681868DB6809930792089106907C
:103A600011A30FCB02AC0FC4002411E002A8005D2B
:103A7000401C06AB1B5DC21A06A8005D81190A989E
:103A8000281800193B460190FEF716FB601CC4B2D3
:103A90000D2CEBDB0BB0F0BD0B08050201010102A0
:103AA00003030506080000002323242425252627D8
:103AB0002829282624000000F0B58BB005460E46C4
:103AC000174624200A9012A35A6899681868DB6880
:103AD000099307920891069011A30FCB02AC0FC473
:103AE000002411E002A8005D401C06AB1B5DC21A59
:103AF00006A8005D81190A98281800193B46019014
:103B0000FEF7DAFA601CC4B20D2CEBDB0BB0F0BD93
:103B1000343332323131302F2E2D2E30320000002E
:103B20004D5053575959595958575654520000003F
:103B3000F0B58BB005460E4617464D200A9012A3ED
:103B40005A6899681868DB6809930792089106908B
:103B500011A30FCB02AC0FC4002411E002A8005D3A
:103B6000401C06AB1B5DC21A0A983018011906A842
:103B7000005D40193B460190FCF760FF601CC4B239
:103B80000D2CEBDB0BB0F0BD0B07030000000101B7
:103B900002030406080000002122222223232324FA
:103BA0002424252525000000F0B589B005460E46E1
:103BB00017460020089013A2116850689268079277
:103BC0000591069012A211685068926804920291C1
:103BD0000390002411E002A8005D401C05AB1B5DB2
:103BE000C21A05A8005D81190898281800193B46DB
:103BF0000190FEF761FA601CC4B20C2CEBDB09B03B
:103C0000F0BD0000312F2D2E2F30313132323333C1
:103C10004D4D4D4D4C4C4C4C4B4B4B4AF0B589B037
:103C200005460E4617460020089013A211685068FA
:103C3000926807920591069012A2116850689268E6
:103C4000049202910390002411E002A8005D401C40
:103C500005AB1B5DC21A05A8005D811908982818DC
:103C600000193B460190FEF727FA601CC4B20C2CE9
:103C7000EBDB09B0F0BD00000808090A0A0B0B0CC9
:103C80000D0D0E0E2527292827262525242423233C
:103C9000F0B58BB005460E46174625200A9012A3B4
:103CA0005A6899681868DB6809930792089106902A
:103CB00011A30FCB02AC0FC4002411E002A8005DD9
:103CC000401C06AB1B5DC21A0A983018011906A8E1
:103CD000005D40193B460190FCF7B0FE601CC4B289
:103CE0000D2CEBDB0BB0F0BD0C0A08060504030439
:103CF000050607090B000000232527292A2B2C2B5A
:103D00002A2928262300000038B5044600201B235A
:103D10003722052100901220FDF796FA2300FEF7C6
:103D2000EFF9088A05182B3E5164778A434B052228
:103D300012216420FEF7B0FE404B052226216920A7
:103D4000FEF7AAFE3D4B05223A216D20FEF7A4FEA8
:103D500072E03A4B052212216C20FEF79DFE374B94
:103D6000052226217520FEF797FE344B05223A21C5
:103D70006E20FEF791FE5FE0304B052212216D2090
:103D8000FEF78AFE2D4B052226216120FEF784FED8
:103D90002A4B05223A217220FEF77EFE4CE0274B8B
:103DA000052212216D20FEF777FE244B05222621E5
:103DB0006520FEF771FE214B05223A217220FEF7A5
:103DC0006BFE39E01D4B052212216A20FEF764FECE
:103DD0001A4B052226216520FEF75EFE174B0522B1
:103DE0003A217520FEF758FE26E0144B05221221D9
:103DF0007620FEF751FE114B052226216520FEF7A5
:103E00004BFE0E4B05223A216E20FEF745FE13E0D5
:103E10000A4B052212217320FEF73EFE074B0522B6
:103E200026216120FEF738FE044B05223A216D2041
:103E3000FEF732FE00E000BF00BF38BDFFFF00000C
:103E400038B5044600205A23DC220521009018468C
:103E5000FDF7FAF9632C3BD00A212046FCF706FA5D
:103E6000CDB21C4B0522FF2106312846FEF7DAFCB5
:103E70000A212046FCF7FAF904460A212046FCF7FD
:103E8000F5F9CDB2134B0522CF212846FEF7CAFC27
:103E90000A212046FCF7EAF904460A212046FCF7ED
:103EA000E5F9CDB20B4B052290212846FEF7BAFC6E
:103EB0000A212046FCF7DAF904460A212046FCF7DD
:103EC000D5F9CDB2034B05225A212846FEF7AAFCAC
:103ED00038BD0000FFFF000070B504460D46E0B29B
:103EE000FDF78CFE012070BDFDF74AFFFDF780FE57
:103EF000FCF736FBE1204002FDF726FE05A0FCF7AB
:103F00009DF9FCF7C1FDFDF7E7FAFDF7A7FC00BF3F
:103F1000FEE70000496E697469616C6973617469D8
:103F20006F6E0D0A00000000FEB504460027FF4337
:103F30000126B0022040002800D0FEBD6846FCF7F4
:103F40002FFD69464878000189780843122800DA75
:103F500000261248006808210840002805D1002EDC
:103F600002D00120FDF782F9E7E70920C0060069C9
:103F7000054628350A480068401B00020712002F3A
:103F800009DD002E02D00120FDF770F90448006819
:103F90000921C906486000BFCFE70000C00000202B
:103FA0001800002000200000200000000001000098
:103FB00001000000000800000100000020000000D7
:103FC0000400000010000000040000000E000000CB
:103FD00000000002000000200000A040400000009F
:103FE000800000000040000002000000040000000B
:103FF00000080000040000000400000004000000AD
:10400000080000000400000001000000040000009F
:104010000010000000000101010100000001010189
:104020000101010001010101010101010101010181
:104030000101010101010101010101010101010170
:104040000101010100010101010101000000010164
:104050000101000000000101010100000001010157
:104060000101010001010100000101010101000045
:104070000000010101010000000001010101010037
:104080000001010100010101010101000000010125
:104090000101000000000000010101010101010116
:1040A0000101010101000000010101010101010103
:1040B00001010101010100000101010101010101F2
:1040C00001010101010101000101010101010101E1
:1040D00001010101010101010101010101010000D2
:1040E00000000000000000000001010101010000CB
:1040F00000000000000000000000010101010000BC
:1041000000000000000000000000000101010000AC
:10411000000000000000000000000000010101009C
:10412000000000000000000000000000000101018C
:10413000000000000000000000000000000001017D
:10414000010000000000000000000000000000016D
:10415000010100000000000000000000000000005D
:10416000010101000000000000000000000000004C
:10417000000101010000000000000000000000003C
:10418000000001010100000000000000000000002C
:10419000000000010101000000000000000000001C
:1041A000000000000101010000000000000000000C
:1041B00000000000000101010000000000000000FC
:1041C00000000000000001010100000000000000EC
:1041D00000000000000000010101000000000000DC
:1041E00000000000000000000101010000000000CC
:1041F00000000000000000000001010100000000BC
:1042000000000000000000000000010101010000AA
:104210000000000000000000000000010101010199
:10422000000000000000000000000000010101018A
:10423000010100000000000000000000000001017A
:104240000101010101010101010101010101000060
:10425000010101010101010101010101010101004F
:104260000000010101010101010101010101010140
:104270000000000001010101010101010101010132
:104280000100000000010101010100000000000028
:10429000000000000000000000000000010101011A
:1042A0000000000101010101010100000000000007
:1042B00000000000000000000000010101010100F9
:1042C00000010101010101010101000000000000E5
:1042D00000000000000000000101010101010001D7
:1042E00001010100000001010101000000000000C7
:1042F00000000000000001010101010101010101B4
:1043000001000000000001010101000000000000A8
:104310000000000001010101010101000101010093
:10432000000000000000010101000000000000008A
:104330000000010101010101010000010101000073
:10434000000000000001010100000000000000006A
:104350000101010101010100000001010100000053
:104360000000000001010100000000000000010148
:104370000101010101000000000101010100000034
:104380000000010101010000000000000101010125
:104390000101010000000000000101010100000016
:1043A0000101010100000000000001010101010103
:1043B00001000000000000000001010101010101F5
:1043C00001010000000000000101010101010100E4
:1043D00000000000000000000001010101010101D6
:1043E00000000000000001010101010101000000C6
:1043F00000000000000000000001010101010000B8
:1044000000000000010101010101010000000000A5
:10441000000000000000000000000000000000009C
:104420000000010101010101010000000000000085
:10443000000000000000000000000000000000007C
:104440000101010101010100000000000000000065
:10445000000000000000000000000000000001015A
:104460000101010101000000000000000000000047
:104470000000000000000000000000000101010138
:104480000101010000000000000000000000000029
:104490000000000000000000000001010101010116
:1044A000010000000000000000000000000000000B
:1044B00000000000000000000101010101010100F5
:1044C00000000000000101010101000000000000E7
:1044D00000000000000001010101010101000000D5
:1044E00000000001010101010101000000000000C5
:1044F00000000000010101010101010000000000B5
:1045000000010101010101010101000000000000A2
:104510000000010101010101010000000000000193
:104520000101010000000101010100000000000084
:104530000101010101010100000000000001010171
:104540000100000000000101010100000000010164
:104550000101010101000000000000000101010053
:104560000000000000000101010000000101010144
:104570000101010000000000000000010101000035
:104580000000000000010101000001010101010122
:104590000100000000000000000001010100000017
:1045A0000000000001010100010101010101010001
:1045B00000000000000000000001010101000000F7
:1045C00000000101010101010101010101000000E0
:1045D00000000000000000000001010101000000D7
:1045E00001010101000101010101010000000000C1
:1045F00000000000000000000001010101010101B4
:1046000001010000010101010100000000000000A3
:104610000000000000000000000101010101010193
:104620000000000101010100000000000000000086
:104630000000000000000000000101010101000075
:1046400000000000E4460410080000200400000000
:1046500004010410E84604100C00002004000000CF
:1046600004010410EC4604101000002004000000B7
:1046700004010410F046041014000020040000009F
:1046800004010410F4460410180000200400000087
:1046900004010410F84604101C000020080000006B
:1046A0000401041000470410300000200400000042
:1046B0000401041004470410C00000200C02000094
:1046C000560404100C470410CC02002044000000E3
:1046D000040104105047041010030020780000006B
:1046E0002001041000000000000000000000041081
:1046F00000000000000000000000000000000000BA
:104700000000000001FF01FF011100000000000097
:104710000000000000000000000000000000000099
:1047200000000000000000000000A040940000A075
:10473000800000A000000000000000000000000059
:104740000000000000000000000000000000000069
:04000005100400C122
:00000001FF
